:020000040800F2
:10000000082300201D02000855220008A51C000836
:10001000512200083F0B0008A34600080000000022
:10002000000000000000000000000000053700088C
:1000300031170008000000008D2400082D40000842
:1000400037020008370200083702000837020008AC
:10005000370200083702000837020008370200089C
:1000600037020008B1170008F5170008370200082A
:10007000370200083702000837020008370200087C
:10008000370200083702000837020008370200086C
:10009000F14500083702000837020008111800086F
:1000A000370200083702000837020008370200084C
:1000B00037020008F1400008370200083702000844
:1000C000370200083702000837020008370200082C
:1000D00037020008A1420008370200083702000872
:1000E000411700083702000887430008370200085C
:1000F00037020008370200083702000837020008FC
:10010000370200088D28000837020008370200086F
:1001100037020008370200083702000837020008DB
:1001200037020008370200083702000837020008CB
:1001300000F002F800F063F80AA090E8000C824496
:100140008344AAF10107DA4501D100F058F8AFF273
:10015000090EBAE80F0013F0010F18BFFB1A43F0A5
:100160000103184728690300486903000A444FF057
:10017000000C10F8013B13F0070408BF10F8014B06
:100180001D1108BF10F8015B641E05D010F8016B4B
:10019000641E01F8016BF9D113F0080F1EBF10F8AF
:1001A000014BAD1C0C1B09D16D1E58BF01F801CBD2
:1001B000FAD505E014F8016B01F8016B6D1EF9D555
:1001C0009142D6D37047000000230024002500266A
:1001D000103A28BF78C1FBD8520728BF30C148BFAA
:1001E0000B607047732900F0C682002070471FB56E
:1001F0009DE8030000F05AFA1FBD10B510BD00F0D5
:1002000038FB1146FFF7F3FF07F0AEF900F056FB9D
:1002100003B4FFF7F2FF03BC04F062FA0948804719
:1002200009480047FEE7FEE7FEE7FEE7FEE7FEE7D8
:10023000FEE7FEE7FEE7FEE704480549054A064BF0
:100240007047000031400008310100080819002003
:1002500008230020081B0020081B0020704770B5F1
:10026000064600F007FA056806F10B0020F00704C7
:10027000B4429CBF002070BD2B466A68BAB11068BA
:10028000A04210D304F1080188423CBF5068586076
:1002900007D35168101941601168091B016058604B
:1002A0001460101D70BD13465268002AE7D1214624
:1002B000284600F0E7F90028DED170BD70B504468D
:1002C000051F00F0D7F90068002C14BF446870BD0A
:1002D000002C18BFAC423CBF20466468F8D30168CC
:1002E0000A18AA4218BF456003D12A68054611447E
:1002F000016028684119A1421CBF6C6070BD616833
:10030000696021680844286070BD53EA020C00F05F
:1003100069802DE9F04B4FF00006002B1FBFB3FAA8
:1003200083F503FA05F424FA05F65E4012BF16437E
:10033000B2FA82F502FA05F4C5F120051EBF22FAD1
:1003400005FC44EA0C04203556EA044C4FEA1444F8
:1003500018BF641C4FF000084FF00009904271EB89
:10036000030C39D3002919BFB1FA81F701FA07F656
:10037000B0FA80F700FA07F6C7F120071EBF20FA8F
:1003800007FC46EA0C062037B6FBF4FCA7EB050792
:10039000103F07F01F0BCBF120060CFA0BFB2CFAD9
:1003A00006F644BFB3460026202FA4BF5E464FF09A
:1003B000000B5BEA060C08BF4FF0010B19EB0B09B1
:1003C000ABFB027C48EB0608C01B06FB02CC0BFB18
:1003D00003CC71EB0C01C1E70B460246414648468F
:1003E000BDE8F08B13B54FF000004FF00001AFF304
:1003F0000080BDE81C4070470FB41CB5074B06AA2F
:100400007B4469460090059800F08BF9002069460E
:1004100000F09AF91CBC5DF814FB000045030000D5
:100420002DE9F0410E460446002020622046E16896
:10043000884730B3252805D0D4E901219047206AA8
:10044000401CF2E7E168204600278847050018D0E5
:10045000A5F14100192802D820354FF40067324633
:10046000294620462760FFF7BDFE40B1012804D091
:10047000F61D26F007060836D8E7361DD6E72846CB
:10048000DAE7206ABDE8F08170B50C460546012A1E
:1004900005D02878800600D5EA69002302E0012310
:1004A00005E05B1C934202D2E05C0028F9D1A86908
:1004B000E618C01AA861286A184428622846AFF3D3
:1004C000008004E0D5E9012114F8010B9047B44203
:1004D000F8D32846AFF3008070BD30B505460B4613
:1004E0002A4613F8014B12F8010B08B1A042F8D0CC
:1004F0001CB1002802D06D1CF1E7284630BD10B5B4
:10050000431C02E010F8011B71B18107FAD14FF0D2
:10051000013202C88C1A8C4314EAC211F9D0C01AF5
:100520000A0603D0C01E10BDC01A10BD0A0401D0B7
:10053000801E10BD0902FCD0401E10BD032A40F2EF
:10054000308010F0030C00F0158011F8013BBCF175
:10055000020F624498BF11F801CB00F8013B38BF8D
:1005600011F8013BA2F1040298BF00F801CB38BF9B
:1005700000F8013B11F0030300F00181083AC0F0DC
:10058000088051F8043B083A51F804CBA0E8081061
:10059000F5E7121D5CBF51F8043B40F8043BAFF394
:1005A0000080D20724BF11F8013B11F801CB48BFEE
:1005B00011F8012B24BF00F8013B00F801CB48BF24
:1005C00000F8012B70474FF0000200B51346944627
:1005D0009646203922BFA0E80C50A0E80C50B1F19B
:1005E0002001BFF4F7AF090728BFA0E80C5048BFAF
:1005F0000CC05DF804EB890028BF40F8042B08BF4D
:10060000704748BF20F8022B11F0804F18BF00F848
:10061000012B704710B5044610F0030F08BF11F00E
:10062000030F40F015804FF0013E121FC0F20E8004
:1006300051F8043BA3EB0E0C2CEA030C1CEACE1C75
:1006400008BF40F8043BF0D0A1F1040102F104021C
:10065000521E08DB11F8013B002B00F8013BF7D1DB
:10066000114600F0BEF8204610BD70477047704735
:100670007047000000487047B0180020704770476E
:100680007047704738B504460A4600206946AFF304
:100690000080002808BF38BD02460099204600F0BF
:1006A000C7F8012038BD012000F0DCB8F8B5AFF381
:1006B0000080054600200C46102000BF0646A81901
:1006C000A0420DD9324669460020AFF300800700F2
:1006D00008BF00F0C7F80098A04218BF0546C4192B
:1006E000FFF7C8FF05600746F01D20F00700461918
:1006F000284600F00AF8B44208BFF8BDA21B3146F4
:100700003868BDE8F84000F093B800210160C0E906
:10071000011070471020704701694A1C0261087877
:10072000704700B58FB0CDE9013100210591054931
:100730007944CDE9031011466846FFF771FE0FB00A
:1007400000BD0000E5FFFFFF0A6802F8010B0A6028
:10075000704710B5436913B1AFF3008001E0FFF7B4
:1007600093FE012010BD127800F124010A700022CE
:100770004A700122EDE711684FF0FF32E9E710B54A
:10078000203AC0F00B80B1E81850203AA0E8185089
:10079000B1E81850A0E81850BFF4F5AF5FEA027C4A
:1007A00024BFB1E81850A0E8185044BF18C918C0B9
:1007B000BDE810405FEA827C24BF51F8043B40F85A
:1007C000043B08BF7047D20728BF31F8023B48BF3F
:1007D00011F8012B28BF20F8023B48BF00F8012B7D
:1007E00070474FF000020429C0F0128010F0030C93
:1007F0003FF4EBAECCF1040CBCF1020F18BF00F8D3
:10080000012BA8BF20F8022BA1EB0C01FFF7DDBEE6
:100810005FEAC17C24BF00F8012B00F8012B48BF20
:1008200000F8012B7047000000487047A81800200E
:10083000034640688C46002818BF88423CBF0346E8
:100840004068F8D318681844884207D00CF10300B8
:1008500020F00700001D411A521A0146081D0A60C7
:10086000FFF72CBD10B500F037F8BDE8104000F0E0
:100870002EB87546FFF7D8FFAE46050069465346C9
:1008800020F00700854618B020B5FFF7D5FCBDE87D
:1008900020404FF000064FF000074FF000084FF0E7
:1008A000000B21F00701AC46ACE8C009ACE8C00978
:1008B000ACE8C009ACE8C0098D46704710B50446E5
:1008C000AFF300802046BDE81040FFF7A1BC002830
:1008D00001D003F005BF704710B5012805D00021F5
:1008E00003A000F021F8012010BD09A1F8E70000E5
:1008F00053494752544D454D3A204F7574206F6609
:100900002068656170206D656D6F72790000000070
:100910003A2048656170206D656D6F727920636F54
:10092000727275707465640070B505460C460A20D5
:1009300000E06D1C03F0D6FE35B128780028F8D110
:1009400002E0641C03F0CEFE14B120780028F8D138
:10095000BDE870400A2003F0C5BE21B1826842F0B4
:100960000102826003E0826822F001028260704727
:1009700021B1826842F48072826003E0826822F4CE
:10098000807282607047000010B5044612488442AD
:1009900008D10121401501F0FBFD0021601501F097
:1009A000F7FD17E00D48844208D10121001501F040
:1009B000EFFD0021201501F0EBFD0BE0084884421B
:1009C00008D10121C80301F0E3FD00214FF40040EC
:1009D00001F0DEFD10BD00000024014000280140B0
:1009E000003C0140014600208A6802F004020AB17E
:1009F000012000E000207047014600208A6802F0D4
:100A000008020AB1012000E00020704730B502461C
:100A10000020002350680F4C20400D790C6844EAF8
:100A200005242043506090680B4C2040D1E90254CB
:100A30002C434D7944EA450420439060D06A20F469
:100A400070000C7C641EE4B2234340EA0350D06281
:100A500030BD0000FFFEF0FFFDF7F1FFF0B50446EA
:100A60000D4600200021092D11DDE068A5F10A06E0
:100A700006EB4607072606FA07F18843A5F10A06A2
:100A800006EB460603FA06F10843E0600CE0206935
:100A900005EB4507072606FA07F1884305EB4506EF
:100AA00003FA06F108432061072A0FDA606B561E2D
:100AB00006EB86071F2606FA07F18843561E06EB4B
:100AC000860605FA06F10843606322E00D2A0FDA74
:100AD000206BD61F06EB86071F2606FA07F1884310
:100AE000D61F06EB860605FA06F10843206310E0E0
:100AF000E06AA2F10D0606EB86071F2606FA07F14B
:100B00008843A2F10D0606EB860605FA06F10843B6
:100B1000E062F0BD816841F008018160704721B159
:100B2000826842F4A002826003E0826822F4A0029C
:100B300082607047816841F004018160704700BFA6
:100B4000FEE70146CAB20B1243EA022070470000DA
:100B500008B50020009022E19748008800F00F00BF
:100B6000964908700846007800287CD194480068AF
:100B7000944908800846008800F0300092490880B7
:100B80009048008800F440508E4908808C490968DC
:100B90004BF6BF7201EA020080F4005080F02000A2
:100BA00040F4004141F08001854A1160824800888C
:100BB00000F0100090BB1046006848F60F71084026
:100BC0001146086001F070F87D4909684BF6BF7264
:100BD00001EA02007B49098801F4805109B180F4DF
:100BE00080507849098801F4005109B180F400501F
:100BF0007549098801F0100109B180F010007249AF
:100C0000098801F0200109B180F0200081B241F48F
:100C1000004141F080016A4A116008BDFFE7684861
:100C2000006880B20090BDF8000000F40060B0B32E
:100C300063480068C0F30E0048F68F7108406049B1
:100C4000086002F0EBFE5E4909684BF6BF7201EAEC
:100C500002005C49098801F4805109B180F4805098
:100C60005849098800E056E001F4005109B180F4C8
:100C700000505549098801F0100109B180F01000B9
:100C80005149098801F0200109B180F0200081B2AA
:100C900041F4004141F08001494A1160BDE7FFE79E
:100CA000BDF8000000F40040002878D044480068F7
:100CB000C0F30E0048F68F7108404149086001F00A
:100CC000A9FB3F4909684BF6BF7201EA02003D49A2
:100CD000098801F4805109B180F4805039490988AC
:100CE00001F4005109B180F400503749098801F03E
:100CF000100109B180F010003349098801F020018A
:100D000009B180F0200081B241F4004141F080013E
:100D10002B4A116081E7294800782C4901EB8000BB
:100D2000D0F8000C80B20090BDF8000000F4004044
:100D3000C0B12248007801EB8000D0F8000CC0F36D
:100D40000E0048F68F7108401C4909781F4A02EBD3
:100D50008101C1F8000C19490978491E1C4A52F852
:100D600021008047BDF8000000F08000B8B11348B2
:100D70000078164901EB8000D0F8000C48F60F719E
:100D800008400E490978114A02EB8101C1F8000CB4
:100D90000A490978491E0F4A52F82100804708483D
:100DA0004430006880B20449088000F40040002804
:100DB0007FF4D2AE00BF30E7BC00002088000020E6
:100DC000005C00409C0000209E000020005000407D
:100DD000E4000020C80000200B4A02EB8001D1F89B
:100DE000001C01F4804171B102EB8001D1F8001CBC
:100DF00048F68F7211404CF280021143024B03EB14
:100E00008002C2F8001C7047005000400B4A02EB01
:100E10008001D1F8001C01F0400171B102EB8001AA
:100E2000D1F8001C48F68F72114048F2C0021143FD
:100E3000024B03EB8002C2F8001C704700500040D8
:100E4000084A02EB8001D1F8001C48F68F6211407D
:100E500048F280021143034B03EB8002C2F8001CEE
:100E6000704700000050004070B500254FF48034FA
:100E700000E0641E24B1802001F0E8FC0028F8D0D6
:100E800014B90325284670BD40F2FF5001F096FCCE
:100E90002846F8E72DE9F041064600274848456B0B
:100EA00001E04748456B05F045000028F9D005F002
:100EB000040030B10327042001F080FC3846BDE86F
:100EC000F08105F0010028B10127012001F076FC36
:100ED0003846F4E701F0B4FCB04202D0102738469F
:100EE000EDE740F2FF5001F069FC002001F0C2FC88
:100EF00004463448204008B90020E0E704F00040F0
:100F000008B11C20DBE704F0804008B10920D6E7D7
:100F100004F0005008B10A20D1E704F0805008B175
:100F20000B20CCE704F0006008B10C20C7E704F008
:100F3000806008B10D20C2E704F0807008B10E2077
:100F4000BDE704F4000008B10F20B8E704F4800006
:100F500008B11020B3E704F4001008B11120AEE787
:100F600004F4801008B11220A9E704F4002008B1AD
:100F70001320A4E704F4802008B114209FE704F4B0
:100F8000003008B115209AE704F4803008B116202B
:100F900095E704F4004008B1172090E704F480407E
:100FA00008B118208BE704F4005008B1192086E737
:100FB00004F0080008B11A2081E738467FE70000F6
:100FC0000080014008E0FFFD70B500251048446B2B
:100FD00001E00F48446B04F045000028F9D004F00C
:100FE000040028B10325042001F0E8FB284670BD69
:100FF00004F0010028B10125012001F0DFFB2846A3
:10100000F5E740F2FF5001F0D9FB2846EFE700007A
:101010000080014070B500250B48446B01E00A4890
:10102000446B04F045000028F9D004F0040028B116
:101030000325042001F0C2FB284670BD40F2FF509A
:1010400001F0BCFB2846F8E7008001402DE9F041A3
:1010500006460F464FF000082248456B01E0214844
:10106000456B05F045000028F9D005F0040038B1C3
:101070004FF00308042001F0A1FB4046BDE8F081D9
:1010800005F0010030B14FF00108012001F096FB9E
:101090004046F3E701F0D4FBB04203D04FF0100814
:1010A0004046EBE740F2FF5001F088FB002001F0E2
:1010B000E1FB044604F4604018B9200C3880404637
:1010C000DCE704F4005008B11320D7E704F48040B3
:1010D00008B11020D2E704F4004008B10F20CDE79A
:1010E0004046CBE70080014070B500264FF48035C4
:1010F0000F48446B02E06D1E0D48446B04F0450040
:1011000008B9002DF7D115B104F0040028B1032669
:10111000042001F053FB304670BD04F0400028B1BC
:101120000026402001F04AFB3046F5E73046F3E761
:101130000080014000F0805111B10349086001E0D6
:101140000249486070470000040402400000024069
:1011500021B1026842F00102026004E002684FF629
:10116000FE731A400260704701684FF6FE7211402C
:1011700001600021016041608160C1604B4988428B
:1011800008D14A490839496841F00F01474A083AED
:1011900051608AE045491431884208D143490839F1
:1011A000496841F0F001414A083A51607DE03F4909
:1011B0002831884208D13D490839496841F47061B5
:1011C0003A4A083A516070E038493C31884208D1C7
:1011D00036490839496841F47041344A083A516047
:1011E00063E032495031884208D1304908394968B2
:1011F00041F470212D4A083A516056E02B49643180
:10120000884208D129490839496841F47001274AC0
:10121000083A516049E025497831884208D123498C
:101220000839496841F07061204A083A51603CE051
:101230001F49884206D1011F096841F00F01021FB2
:10124000116032E01A491431884208D11849091F47
:10125000096841F0F001164A121F116025E0144997
:101260002831884208D11249091F096841F4706188
:101270000F4A121F116018E00D493C31884208D115
:101280000B49091F096841F47041094A121F116096
:101290000BE007495031884207D10549091F096809
:1012A00041F47021024A121F116070470800024089
:1012B0000804024001460020002201F0805313B1CF
:1012C000054B1A6801E0054B1A6802EA01030BB1ED
:1012D000012000E0002070470004024000000240AE
:1012E00010B50022026847F6F0739A430C6A8B68C7
:1012F00023430C6923434C6923438C692343CC6902
:1013000023434C6A23438C6A23431A430260CB680D
:1013100043600B6883604B68C36010BD2DE9F047E4
:101320002848006800F110052E8826480068077AD2
:10133000D6B9042F18D12448007801280FD10021F4
:101340002248006880B2801C214A42F810103020E8
:101350002049088000BF00201B49087003E00727D0
:1013600010201C49088027E0AC88A64201D8042040
:1013700000E002200746B44200D93446A0B2A96872
:1013800088478046002000F063FC8146A2B24946AF
:10139000404603F089F9A1B2002002F067FA2888DC
:1013A000001B288068882044688030200949088014
:1013B00000020949088000BF024909680F72BDE8B0
:1013C000F08700008C00002086000020505C004068
:1013D000006000409E0000209C0000202DE9F041AC
:1013E0002848006800F110042688A068C0B1BEB18A
:1013F000A588B54200D93546A8B2A16888470746F6
:101400002088401B2080608828446080002000F0F5
:101410000FFC8046AAB24146384601F023F800BFCF
:10142000208850B14FF440501749088000210846E9
:1014300002F01CFA3020154908802088A1888842D3
:1014400004DB03200F490968087218E0208800288F
:1014500004DD05200B490968087210E0208870B986
:10146000062008490968087200210948006880B20E
:10147000801C084A42F81010302004490880BDE85A
:10148000F08100008C0000209C0000209E000020C5
:10149000505C0040006000402DE9F84F9B48006818
:1014A00045780027BA46062D1BD198480068007879
:1014B00000F07F00002813D194490968887801283A
:1014C00003D193490968CF690AE0022803D1904902
:1014D00009680F6A04E0032802D18D4909684F6A40
:1014E00094E0002D64D189480068408800285FD1CD
:1014F00086480068C08802285AD18448006800796C
:10150000002855D181480068007800F07F0028B994
:101510007E480068808808B97E4F77E07B48006885
:10152000007800F07F00012810D1784909684879D7
:10153000774909688A6900219047002866D1734875
:101540000068807A002861D0724F5FE06F480068C1
:10155000007800F07F00022858D16C48006840797C
:1015600000F00F0669480068407900F0700967488C
:101570000068407900F0800038B1674901EB8600CF
:10158000D0F8000C00F0300806E0634901EB86005B
:10159000D0F8000C00F4405860480078B04235D9CB
:1015A000B9F1000F32D1B8F1000F2FD0594F2DE013
:1015B000082D07D155480068007800F07F0028BB4F
:1015C000574F23E00A2D21D150480068007800F0E1
:1015D0007F0001281AD14D480068807AB0B14B488D
:1015E0000068408890B949480068007970B9474858
:1015F0000068C088012809D14449096848794449EC
:1016000009688A690021904700B9464F57B13F48A1
:101610000068A0F812A03D48006887610020B84724
:1016200000240FE0394A12685078394A126811696B
:1016300088470446032C05D10920344909680872FB
:10164000BDE8F88F31480068008A4FF6FF71884284
:1016500004D109202D4909680872F1E7022C03D052
:101660002A480068008A20B90820284909680872B9
:10167000E6E726480068007800F08000E0B32348E1
:101680000068C088009021480068008A009988425C
:1016900004D91E4900980968088223E01B480068A5
:1016A000008A1A490968C98888421BDA1748006805
:1016B000008A1749096891F82C10884203DA002043
:1016C000194908700EE011480068008A104909683D
:1016D00091F82C1090FBF1F201FB120010B90120DF
:1016E000114908700A48006890F82C1007480068F3
:1016F0008182FFF713FE07E0FFE703200349096833
:10170000087200030949088000BF99E78C00002097
:1017100090000020BD3C0008005000400401002063
:10172000413C0008913C0008860000209C000020FD
:10173000704700000120014908707047A000002098
:1017400010B54FF4006000F08DF870B1072003F081
:10175000F5FA4FF40061134800F05DFAC0B9124881
:101760000078C0431049087012E04FF4806000F028
:1017700079F868B1072003F0E1FA4FF48061094875
:1017800000F049FA20B909480078C04307490870B9
:101790004FF4006000F060F84FF4806000F05CF8F7
:1017A00010BD0000000C01400300002005000020D7
:1017B00010B5082000F056F898B1072003F0BEFAE3
:1017C00008210A4800F027FA20B909480078401C8F
:1017D0000749087006480078022802D10020044911
:1017E0000870082000F038F810BD0000001001401B
:1017F0000400002010B5102000F034F810B10120D2
:1018000002490870102000F027F810BD5800002091
:1018100010B54FF4807000F025F8A0B1072003F058
:101820008DFA4FF480710A4800F0F5F920B90948A3
:101830000078401C0749087006480078022802D149
:101840000020044908704FF4807000F005F810BDC6
:10185000000C0140020000200149086070470000B0
:1018600014040140014600200022074B1B6803EAD4
:101870000102054B14331B680B4013B10AB1012060
:1018800000E00020704700000004014000212349CF
:101890008279002A3AD00A46126803689A430B46B6
:1018A0001A600A1D126803689A430B1D1A600279B8
:1018B00011440A6803681A430A60184A0832126819
:1018C00003689A43154B08331A601A1D126803689F
:1018D0009A43124B0C331A604279102A0ED11A1F08
:1018E000126803681A430D4B08331A601A1D1268F8
:1018F00003681A43094B0C331A600DE0074942791B
:1019000011440A6803681A430A6005E00279114429
:101910000A6803689A430A607047000000040140A7
:1019200003200149086070479C0100202DE9FC411B
:1019300007460D4600260024002000900190082054
:101940005B49086010204860402088600020C86023
:101950004FF480600861084601F00EF81020FFF790
:1019600099FA044614B12046BDE8FC81514800882C
:1019700000044F49086037204860402088600020FC
:10198000C8604FF480600861084600F0F5FF37201A
:10199000FFF780FA04460CB12046E5E74FF0FF3030
:1019A0004549086008204860302088600220C860EF
:1019B0000020086101204861084600F017FF002060
:1019C0003B49086033204860402088600020C860A0
:1019D0004FF480600861084600F0CEFF3320FFF727
:1019E00059FA04460CB12046BEE709E04FF4001056
:1019F00000F02CFF20B100F085FF4DF82600761C8A
:101A00002E48406B40F22A6108400028EED00820A2
:101A100000F01CFF28B1082000F0D0FE042420466E
:101A2000A2E7022000F012FF28B1022000F0C6FE5B
:101A30000224204698E7202000F008FF28B120204B
:101A400000F0BCFE062420468EE74FF4007000F044
:101A5000FDFE30B14FF4007000F0B0FE07242046C8
:101A600082E740F2FF5000F0A9FE009800060099BE
:101A700001F47F4140EA0120009901F47F0140EA2E
:101A80001120009940EA11606860019800060199F0
:101A900001F47F4140EA0120019901F47F0140EA0D
:101AA0001120019940EA1160286020465CE700009F
:101AB000400A002040000020540A0020008001401D
:101AC00030B500228B071C0F0F2303FA04F20B4BD7
:101AD0008C1053F824309343084C8D1044F8253073
:101AE00023468C1053F824308C07240F00FA04F49A
:101AF0002343024C8D1044F8253030BD08000140CE
:101B00002DE9F04102460025002600200023002494
:101B1000002791F803C00CF00F0591F803C00CF0FA
:101B2000100CBCF1000F03D091F802C04CEA05057F
:101B300091F800C0BCF1000F31D0146800202BE0F8
:101B40004FF0010C0CFA00F3B1F800C00CEA0306E8
:101B50009E4220D183004FF00F0C0CFA03F7BC43D8
:101B600005FA03FC4CEA040491F803C0BCF1280F09
:101B700006D14FF0010C0CFA00FCC2F814C00AE0C8
:101B800091F803C0BCF1480F05D14FF0010C0CFADD
:101B900000FCC2F810C0401C0828D1D31460B1F872
:101BA00000C0BCF1FF0F34DD546800202EE000F1CE
:101BB000080C4FF0010808FA0CF3B1F800C00CEA69
:101BC00003069E4221D183004FF00F0C0CFA03F75D
:101BD000BC4305FA03FC4CEA040491F803C0BCF1D1
:101BE000280F05D100F1080C08FA0CF8C2F814808F
:101BF00091F803C0BCF1480F07D100F1080C4FF079
:101C0000010808FA0CF8C2F81080401C0828CED34E
:101C10005460BDE8F0810246002093680B400BB190
:101C2000012000E00020704741617047016170476A
:101C300001460548006880B200EBC100001D034A60
:101C400032F8100080B27047505C004000600040E5
:101C500001460548006880B200EBC100034A32F833
:101C6000100080B270470000505C004000600040EF
:101C700070B50A480468001D0568001D06683444F4
:101C800054B108220649204600F046F804220449CF
:101C90001031284600F040F870BD0000E8F7FF1F43
:101CA000A300002000BFFEE710B518480068047AC2
:101CB000022C01D0042C05D1FFF730FB134800683B
:101CC000047A1CE0062C19D11048006840780528D9
:101CD0000ED10E480068007800F07F0040B90B4933
:101CE0000968C87801F018FD09490968086A804741
:101CF0000849096888688047082400E008240349E7
:101D000009680C7200F0C4FB10BD00008C000020BC
:101D1000980000209000002030B50B46002100BF45
:101D200016E00A24B4EB107F05D9302404EB1074BC
:101D300003F8114005E0412404EB10740A3C03F859
:101D40001140000100254C00641C1D554C1CE1B2E3
:101D50009142E6DB30BD000070B504460025062C3C
:101D600018D118480068007800F07F00012811D1D0
:101D700014480068407968B91248006880782228C1
:101D800001D1114D10E00F480068807821280BD157
:101D90000E4D09E00B480068007800F07F00212814
:101DA00002D1032C00D10A4D0DB9022070BD0548A7
:101DB0000068856100210348006841820020A8472F
:101DC0000020F3E78C0000202D1E0008FD1D0008F8
:101DD000111E000810B504460249204601F046FFD6
:101DE00010BD00006401002010B5044602492046E1
:101DF00001F03CFF10BD00005C01002010B504465E
:101E00000249204601F032FF10BD0000740100209D
:101E1000014629B90120034A126810820020704748
:101E20000148FCE78C0000200001002010B50446AA
:101E30000249204601F01AFF10BD00006C0100208D
:101E400070B5054606480068C478042C01DD002002
:101E500070BD044800EBC401284601F007FFF7E716
:101E60008C0000207C0100200246002901DD0220B8
:101E70007047002A01DD0220FAE70020F8E70000A1
:101E800000B5024606480068007800F07F0021286F
:101E900004D10B2A02D100F081F800BD0220FCE73A
:101EA0008C00002010B5002023490968887222495F
:101EB0000968C8722148C0791F4909684872002022
:101EC00001F022FC4FF40071002001F017FD1021F9
:101ED000002001F0D9FC1821002001F045FC582118
:101EE000002001F0B3FC0020FEF7AAFF144890F890
:101EF0002C10002001F04AFC002001F08DFC4FF472
:101F0000C061012001F0FAFC4FF48071012001F062
:101F10009DFC0421012001F0A9FC0021012001F019
:101F20005BFC2021012001F0AFFC002001F0F4FB5C
:101F300001200449086010BD8C000020D869030806
:101F4000080100209C010020F8B504460D46164605
:101F50001F46002000908DF800408DF801508DF84C
:101F600002608DF8037004226946812002F082FB32
:101F7000012001F0A9FCF8BD0348817A11B10521C7
:101F8000024A116070470000A41700209C01002045
:101F900004200149086070479C0100200348006844
:101FA000C178034801600020704700008C000020C9
:101FB000000100207047704710B5FFF759FE002060
:101FC00005490968887200F087FA02F041FB002099
:101FD0000249086010BD00008C0000209C01002018
:101FE0000548817A19B10521044A116002E00121F6
:101FF000024A116070470000A41700209C010020D5
:102000002DE9F14F82B000200190029808F07EF98E
:1020100004460022794B07F055FF02D800200190BA
:10202000E9E0029808F072F90446754A754B07F02A
:1020300049FF12D8029808F069F9804600226F4BD8
:1020400008F07AF8064600226F4B07F077FF044647
:1020500007F00AFFC0B20190CDE0029808F056F9EF
:1020600004466A4A6A4B07F02DFF17D8029808F019
:102070004DF98046624A634B08F05EF882460022C2
:10208000644B07F05BFF06460022634B07F038FE07
:10209000044607F0E9FEC0B20190ACE0029808F0F7
:1020A00035F904464FF066325C4B07F00BFF17D84A
:1020B000029808F02BF98246544A554B08F03CF838
:1020C00080460022564B07F039FF06460022554B4A
:1020D00007F016FE044607F0C7FEC0B201908AE082
:1020E000029808F013F904464FF033324E4B07F0D4
:1020F000E9FE18D8029808F009F982464FF06632D6
:10210000464B08F019F880460022454B07F016FFB1
:1021100006460022454B07F0F3FD044607F0A4FEF7
:10212000C0B2019067E0029808F0F0F8044600227F
:102130003F4B07F0C7FE18D8029808F0E7F8824630
:102140004FF03332384B07F0F7FF80460022344B14
:1021500007F0F4FE06460022364B07F0D1FD044698
:1021600007F082FEC0B2019045E0029808F0CEF878
:1021700004464FF06632304B07F0A4FE17D80298A1
:1021800008F0C4F880460022294B07F0D5FF064628
:1021900000222A4B07F0D2FE04460022284B07F00B
:1021A000AFFD824607F060FEC0B2019023E00298C6
:1021B00008F0ACF80446124A224B07F083FE18D808
:1021C000029808F0A3F880464FF066321A4B07F0E9
:1021D000B3FF064600221C4B07F0B0FE0446002267
:1021E0001A4B07F08DFD824607F03EFEC0B201900B
:1021F00001E0DE2001900198BDE8FE8F00000C4058
:10220000CDCCCCCCCCCC0C40000049409A999999CB
:1022100099990D40000059400000144066660E4038
:1022200000406F4000002E4033330F400000444018
:102230000000104000405040666610400080514051
:1022400000805640CCCC104000003E40004058403A
:1022500000BFFEE77047704770B5002100230F22D2
:10226000C47804B3154C246804F4E064C4F5E06455
:10227000210AC1F10403CA40447804FA03F18478C6
:102280001440214309010E4C0678A155047804F04E
:102290001F050124AC4005786D11AD0005F1E02566
:1022A000C5F8004109E0047804F01F050124AC40A2
:1022B000044D0678761145F8264070BD0CED00E01F
:1022C00000E400E080E100E002490143024A1160BD
:1022D000704700000000FA050CED00E070B5022622
:1022E00047480068447846480068007800F07F005E
:1022F000002844D1092C03D101F060FD06465FE0BF
:10230000052C14D13E480068C0787F280BDC3C487F
:102310000068807838B93A480068808818B9384829
:102320000068807A08B1082565E0002648E0032CA3
:102330000ED133480068C078012807D130480068C2
:10234000808818B901F05EFD064639E0022637E0C4
:10235000012C35D12A480068C07801280DD12848C1
:102360000068808848B926480068407A00F020005C
:1023700018B101F0AFFB064622E0022620E020481B
:102380000068007800F07F00012805D10B2C17D1E0
:1023900001F0B4FD064613E019480068007800F02B
:1023A0007F0002280BD1012C03D101F093FB0646DC
:1023B00006E0032C04D101F039FD064600E00226B8
:1023C0004EB1E0B20F4A1268516988470646032EA3
:1023D00001D109250FE00EB108250CE006250021EA
:1023E0000948006880B2801C084A42F8101030206A
:1023F0000749088000BF024909680D7270BD0000DE
:102400008C00002090000020505C004000600040E4
:102410009E00002010B511480068047A022C01D0FB
:10242000042C01D1082412E0032C01D0052C05D185
:10243000FEF7D4FF09480068047A08E0072C05D1AC
:1024400007490968C8688047082400E00824034950
:1024500009680C7200F01CF810BD00008C00002010
:1024600090000020F0B5561C7510074E06EB410495
:102470002B4605E034F8047B20F8017B401C5B1EF2
:10248000002BF7D1F0BD0000006000407047000055
:1024900010B50D4890F82C10002001F077F90B488A
:1024A0000068007A082805D14002094908801020F8
:1024B0000849088005480068007A092801D10120F0
:1024C00010BD0020FCE70000080100208C00002067
:1024D0009C0000209E00002010B5012001F059FF53
:1024E00001240B48046000200A490880084600883F
:1024F000074908600020091D08604FF4E0500549B5
:1025000008800846008802490860002010BD0000CD
:10251000405C00409600002001460020034A5068BD
:1025200020F4404008435060704700000010024013
:1025300029B1064A52690243044B5A6104E0034A36
:1025400052698243014B5A617047000000100240FB
:1025500029B1064AD2690243044BDA6104E0034A16
:10256000D2698243014BDA617047000000100240DB
:1025700029B1064A92690243044B9A6104E0034A76
:1025800092698243014B9A6170470000001002403B
:1025900029B1064AD2680243044BDA6004E0034AD8
:1025A000D2688243014BDA6070470000001002409D
:1025B0000149086070470000D800424270B50546E6
:1025C000072D01D02E4805702D48007808284ED2DE
:1025D000DFE800F004111A202B384E4F294800681C
:1025E00028B900F053F806202549087002E00520BC
:1025F0002349087041E000F049F8042020490870A0
:1026000001202049086038E002201D49487003205D
:10261000087032E01A484078401E19494870084650
:10262000407808B90420087027E01748006884B291
:1026300044F01004144804600520114908700A2071
:1026400048701AE00E484078401E0D494870084610
:10265000407858B90C48006884B224F010040A4845
:1026600004600620087000200649086005E000BFED
:1026700000BF06200249087000BF00BF70BD000007
:10268000A1010020A4010020405C004010B50748D3
:10269000006884B224F0040404480460FFF7A0FC3E
:1026A0004FF43F400149086010BD0000405C00400D
:1026B0007CB50546002400200090019000F0DAF877
:1026C00000F0007010B10E2420467CBD3949098805
:1026D00088B26946FFF72AF904460CB12046F4E7B0
:1026E000012D36D1019800F4802000282ED03148E9
:1026F0000088000430490860372048604020886026
:102700000020C860A8020861084600F035F93720AB
:10271000FEF7C0FB04460CB12046D6E7022026494E
:10272000086006204860402088600020C8604FF4A0
:1027300080600861084600F01FF90620FEF7AAFB3A
:1027400004460CB12046C0E72046BEE725242046BB
:10275000BBE7184800880004174908603720486024
:10276000402088600020C8604FF4806008610846FF
:1027700000F002F93720FEF78DFB04460CB120462D
:10278000A3E700200C4908600620486040208860CC
:102790000020C8604FF480600861084600F0ECF843
:1027A0000620FEF777FB04460CB120468DE7204655
:1027B0008BE7000040000020400A002001498863A8
:1027C00070470000008001400149886370470000A5
:1027D000008001400149086070470000A0003042BD
:1027E00001490860704700008C05304200210A4B07
:1027F00002685A6242689A621A46D16A21F0F70169
:10280000D0E902231A4303691A4343691A43114367
:10281000014AD16270470000008001400020064953
:10282000086048608860C86048628862C86203487F
:1028300088630020C863704700800140FF07C00024
:1028400001480069C0B27047008001400146002085
:10285000034A526B0A400AB1012000E00020704791
:10286000008001400248006800F00300704700004B
:102870000080014008B5014600200090024808444D
:1028800000900098006808BD1480014010B500F069
:1028900079FC10BD29B1064AD26B0243044BDA63BE
:1028A00004E0034AD26B8243014BDA6370470000B5
:1028B0000080014000210A4A516847F6FF629143B7
:1028C000027D83681A4343681A43C3681A43036846
:1028D0001A4303691A431143014A516070470000CB
:1028E0000080014008B531208DF8000000208DF8EF
:1028F000010001208DF802008DF803006846FFF703
:10290000ABFC08BD014800687047000080800140B2
:1029100008B501213420FFF72BFE4FF4F850ADF835
:10292000000003208DF8020018208DF8030069468E
:102930000E48FFF7E5F80420ADF8000069460C48A2
:10294000FFF7DEF84FF48070ADF8000048208DF8F6
:10295000030069460748FFF7D3F801218802FFF713
:10296000E7FD01210220FFF7E3FD08BD0010014053
:1029700000140140000801400021094B02689A60E0
:102980001A46D1686FF30A01D0E901231A43C368DC
:102990001A4303691A431143014AD160704700008A
:1029A000008001400549096821F00301034A1160D4
:1029B0001146096801431160704700000080014022
:1029C00030B58BB005460C461348FEF7B3FB00212B
:1029D0001248FEF7BDFB12480090019500200290BE
:1029E000A0080390002004908020059080000690AD
:1029F00080000790002008904FF4005009900020BC
:102A00000A9069460548FEF76BFC01210348FEF772
:102A10009FFB0BB030BD000000F0001044040240EA
:102A20008080014030B58BB005460C461348FEF758
:102A300081FB00211248FEF78BFB124800900195A4
:102A400010200290A00803900020049080200590A0
:102A50008000069080000790002008904FF40050FE
:102A6000099000200A9069460548FEF739FC0121CB
:102A70000348FEF76DFB0BB030BD000000F0001006
:102A8000440402408080014070B50446002521487E
:102A90000068032802D12725284670BD1D4800681C
:102AA00038B11C480068012803D01A480068022881
:102AB0002ED1B4F5805F02D127252846EDE7B4F585
:102AC000006F14D10120FFF7F3FD054605BB01207F
:102AD0001149087500200860486088604FF4006064
:102AE000C860002008610846FFF7E4FE10E00020FF
:102AF000FFF7DEFD05465DB9012007490875002096
:102B0000086048608860C86008610846FFF7D2FE28
:102B10002846C2E73C000020280A00202DE9F041A9
:102B200003460C460021AD48007883F85600AC48B7
:102B30000088A3F854001068010E88091870C1F3CA
:102B40008300587001F0030098701068C0F30741CB
:102B5000D9701088C0F30721197111785971506824
:102B6000010E0801D8805068C0F30741D88840EAB8
:102B70001110D88001F00F0018729088C0F307215F
:102B8000C8095872C1F380109872C1F34010D8720E
:102B9000C1F300101873002058739048006818B1F2
:102BA0008E48006801284BD18807000D1861117903
:102BB000186940EA810018619068010E186940EABE
:102BC00091101861C1F3C200187501F00700587523
:102BD0009068C0F3074148099875C1F38200D87521
:102BE0008807400F18761089C0F30721187E40EA45
:102BF000D11018761869401C0025C3E91205187E0B
:102C0000D3E91275801C012606FA00F0C617A7FB4F
:102C100000C805FB008007FB0600C3E912C01D7A4F
:102C20000120A84018650026D3E91257186DA5FBAE
:102C300000C807FB008005FB0600C3E912C02AE0BC
:102C400066480068022826D111798806800A186132
:102C50009068010E186940EA012018619068C0F37D
:102C600007411869084318611089C0F307211869E2
:102C7000401C4FF40075A0FB05054FF480664FF033
:102C8000000CA0FB067805FB068500FB0C50C3E991
:102C9000127070101865C1F3801003F8190F8806C0
:102CA000400E5870117A587840EAD110587001F0EF
:102CB0007F009870D068010EC809D870C1F3411028
:102CC0001871C1F3820058718807000F9871D0689D
:102CD000C0F30741987940EA91109871C1F3401010
:102CE000D8710020187201F0010058729089C0F369
:102CF0000721C8099872C1F38010D872C1F340103F
:102D00001873C1F300105873C1F38100987301F078
:102D10000300D873117B4808187401205874206888
:102D2000010ED974193B2068C0F307410D02DD85FF
:102D30002088C0F30721D88D0843D88521780D0657
:102D40001D636068010E186B40EA01451D636068F1
:102D5000C0F30741186B40EA01251D63A088C0F34A
:102D60000721186B0843186321793420C154A068E7
:102D7000010E3520C154A068C0F307410D069D63C4
:102D80002089C0F30721986B40EA01459D63217AB1
:102D9000986B40EA01259D63E068010E986B08433B
:102DA0009863E068C0F307413C20C05C40EA11151D
:102DB0003C20C5540807050DDD87A089C0F3072115
:102DC000D88F0843D887217B4D084020C554012562
:102DD0004120C5540020BDE8F08100003C000020E7
:102DE0004000002008B500200090684600F084FAFA
:102DF00008B1FF2008BD0098C0F34320FAE710B5E2
:102E00000424FFF7EFFF0446042C01D1002010BD7D
:102E1000FF2C01D10220FAE70120F8E710B51020BD
:102E2000FDF71DFA254908601020FDF718FA24491E
:102E300008600024FFF756FDFFF76AFDFFF7EEFC80
:102E400000F0D8F804460CB1204610BD1C480168BB
:102E50001A48006800F03AF804460CB12046F4E73E
:102E60000120184908750020086048608860C86023
:102E700008610846FFF71EFD3CB9114802680F487B
:102E800001681148FFF74AFE044634B90E49B1F80B
:102E90005410080400F016FA044624B94FF40060F8
:102EA000FFF7F2FD044605480068FDF707FA0448FD
:102EB0000068FDF703FA2046C7E70000480000203D
:102EC00044000020280A0020D0090020F8B504465C
:102ED0000D46002601200090FFF7C4FC10B92526FE
:102EE0003046F8BD40480068042824D000203F49FF
:102EF000086002204860C02088600020C8604FF44D
:102F0000806008610846FFF737FDFEF75DF806466A
:102F10000EB13046E5E70020FFF7ACFC206004204E
:102F2000FFF7A8FC60600820FFF7A4FCA0600C205D
:102F3000FFF7A0FCE0602C48006858B12A48006800
:102F4000012807D028480068062803D026480068D2
:102F5000022816D10020254908600320486040203F
:102F600088600020C8604FF4806008610846FFF761
:102F700003FD69460320FEF769F806460EB13046A8
:102F8000AFE71948006804282AD0BDF800001849A6
:102F90000860BDF80000000414490860092048607A
:102FA000C02088600020C8604FF480600861084637
:102FB000FFF7E2FCFEF708F806460EB1304690E750
:102FC0000020FFF757FC28600420FFF753FC6860DF
:102FD0000820FFF74FFCA8600C20FFF74BFCE860CF
:102FE000002630467DE700003C000020400A00201B
:102FF000400000202DE9F041002400260025002794
:10300000A046B2205B4908750020086048608860CF
:10301000C86008610846FFF74DFC0320FFF7C2FCBB
:103020000120FFF7D7FB0020534908604860886003
:10303000C8604FF4806008610846FFF79DFCFDF70B
:1030400013FF044614B12046BDE8F0814FF4D5705B
:103050004949086008204860402088600020C86016
:103060004FF4806008610846FFF786FCFEF73CF8E5
:1030700004462CB90120414908604FF0804812E015
:1030800000203D49086037204860402088600020CB
:10309000C8604FF4806008610846FFF76DFC372078
:1030A000FDF7F8FE044600203349086037204860E9
:1030B000402088600020C8604FF4806008610846A6
:1030C000FFF75AFC3720FDF7E5FE0446002C4ED1F1
:1030D00036E000202849086037204860402088609A
:1030E0000020C8604FF4806008610846FFF744FC88
:1030F0003720FDF7CFFE04460CB12046A4E7204858
:1031000048EA00001C490860292048604020886087
:103110000020C8604FF4806008610846FFF72CFC6F
:10312000FDF778FF04460CB120468DE70020FFF73D
:10313000A1FB0646012080EAD67080F001076D1CD5
:103140001FB94FF6FF708542C3D34FF6FF7085421B
:1031500002D31B24204677E706F08040061E03D0EA
:1031600002200649086002E0012004490860204668
:103170006AE70000280A0020400A00203C000020E6
:103180000000108010B51148006801280BD1002004
:103190000F49886040F24C40C8600C20FDF77AFE71
:1031A0000C49087002E000200A4908704FF4807052
:1031B000FFF70AFB00214FF48070FFF76BFB012043
:1031C000054908600348007810BD00004C0000204D
:1031D0000080014050000020540000202DE9F04103
:1031E00080460D4614461E46002700202E490870D2
:1031F0002E49086001202E49086000202D49C86230
:103200002D480068022801D104026D0A2B48046091
:1032100010202A494860402088600020C8604FF490
:10322000806008610846FFF7A7FB1020FDF732FE1B
:10323000074617B13846BDE8F0814FF0FF3020490E
:10324000086006FB04F04860902088600220C86097
:1032500000200861012048610846FFF7C7FA1748B7
:103260000560122015494860402088600020C86031
:103270004FF4806008610846FFF77EFB1220FDF7DF
:1032800009FE07460FB13846D5E7012140F22A3042
:10329000FFF700FB0120FFF7A3FA06FB04F140460D
:1032A000FFF78EFB3846C6E7500000205400002090
:1032B0004C000020008001403C000020400A00201B
:1032C000540A002070B5044600250A48046007200F
:1032D00008494860402088600020C8604FF4806042
:1032E00008610846FFF748FB0720FDF7D3FD0546B8
:1032F000284670BD400A002070B5044600250A48E3
:10330000008800040949886040F24D40C8600D20E3
:10331000FDF7C0FD05460DB1284670BD0348406964
:1033200020602846F9E700004000002000800140AE
:1033300010B5002400BF0B48FDF7BCFF30B90A48A8
:10334000006818B9094800780028F4D007480078C8
:1033500010B10648007810BD40F2FF50FFF72EFA7A
:103360002046F8E700200010540000205000002004
:1033700010B5002400BF0B48FDF79CFF30B90A4888
:10338000006818B9094800780028F4D00748007888
:1033900010B10648007810BD40F2FF50FFF70EFA5A
:1033A0002046F8E7002000105400002050000020C4
:1033B0002DE9F04180460F4615461E4600240020A8
:1033C00045490870454908600120454908600020CA
:1033D0004449C86244480068022801D105027F0AB6
:1033E0004248056010204149486040208860002024
:1033F000C8604FF4806008610846FFF7BDFA1020EE
:10340000FDF748FD044614B12046BDE8F081384878
:1034100000880004354908603720486040208860F3
:103420000020C8604FF4806008610846FFF7A4FAE6
:103430003720FDF72FFD04460CB12046E5E72B4869
:103440000660172029494860402088600020C86035
:103450004FF4806008610846FFF78EFA1720FDF7E9
:1034600019FD04460CB12046CFE72048076019201B
:103470001E494860402088600020C8604FF480608A
:1034800008610846FFF778FA1920FDF703FD0446A6
:103490000CB12046B9E74FF0FF301649086006FB33
:1034A00005F04860902088600020C8600861012015
:1034B00048610846FFF79AF9012140F21A30FFF7F8
:1034C000E9F90120FFF78CF906FB05F14046FFF70B
:1034D000A9FA204699E7000050000020540000207F
:1034E0004C000020008001403C000020400A0020E9
:1034F00040000020540A002008B501210420FFF7F5
:1035000037F801210803FFF733F8E020ADF8000099
:1035100018208DF8030003208DF802006946114839
:10352000FEF7EEFAE0210F48FEF77EFB00200E4981
:1035300008804FF48270488000208880C88008810D
:103540004FF400704881182088810020C881052030
:103550000882064800F0B8F80121044800F09AF803
:1035600008BD000000080140BC05002000300140FB
:1035700070B50546002405E0601CC4B2C82C01DD0E
:10358000002070BD02210E4800F090F80028F3D012
:1035900029460B4800F096F8002405E0601CC4B2F0
:1035A000C82C01DD0020ECE70121054800F07EF881
:1035B0000028F3D0024800F082F8C0B2E1E7000032
:1035C0000030014008B501210820FEF7D1FF01219C
:1035D0008803FEF7BDFF4FF46040ADF800001820EF
:1035E0008DF8030003208DF8020069461148FEF7AC
:1035F00087FA4FF460410F48FEF716FB00200E4992
:1036000008804FF48270488000208880C88008813C
:103610004FF400704881082088810020C88105206F
:103620000882064800F050F80121044800F032F802
:1036300008BD0000000C0140BC050020003800401F
:1036400070B50546002405E0601CC4B2962C01DD6F
:10365000002070BD02210E4800F028F80028F3D0A9
:1036600029460B4800F02EF8002405E0601CC4B287
:10367000962C01DD0020ECE70121054800F016F84A
:103680000028F3D0024800F01AF8C0B2E1E70000C9
:103690000038004021B1028842F04002028004E07C
:1036A00002884FF6BF731A4002807047024600201E
:1036B00013890B400BB1012000E000207047014648
:1036C000888970478181704710B50022028802F412
:1036D00041520B884C8823438C882343CC88234356
:1036E0000C8923434C8923438C892343CC8923436E
:1036F0001A430280838B4FF2FF74234083830B8A2B
:10370000038210BD704700004FF6F8710140014A76
:1037100011607047505C004030B501460F4B1A787D
:10372000002014E003060E4C04EB9353D3F8003C46
:1037300048F68F74234048F280042343C4B22343E5
:103740000406074D05EB9454C4F8003C401C90421D
:10375000E8D341F08003034C236030BD0401002016
:10376000005000404C5C004010B54A105300054A20
:10377000126892B202EBC002121D034C44F81230E0
:1037800010BD0000505C00400060004010B50246D3
:103790000F48006880B200EBC200801D0D4C04EBA6
:1037A00040033E290BDD481101F01F040CB9441EF3
:1037B000A0B24FF4004444EA80241C6007E04810A3
:1037C00001F001040CB1441CA0B284021C6010BDC5
:1037D000505C00400060004030B50E4C04EB8003AC
:1037E000D3F8003C4BF68F7403EA040201F48053D3
:1037F0000BB182F4805201F400530BB182F40052F9
:1038000042F4004343F08003024D05EB8004C4F80A
:10381000003C30BD0050004010B50B4B03EB800264
:10382000D2F8002C4BF68F7302EA030181F4805129
:1038300081F4005141F4004242F08002024C04EB5A
:103840008003C3F8002C10BD0050004010B54A1092
:103850005200044B1B689BB203EBC003024C44F8BC
:10386000132010BD505C004000600040044A126804
:1038700092B202EBC002921C024B43F81210704746
:10388000505C00400060004030B50E4C04EB8003FB
:10389000D3F8003C48F6BF7403EA040201F01003B9
:1038A0000BB182F0100201F020030BB182F0200274
:1038B00042F4004343F08003024D05EB8004C4F85A
:1038C000003C30BD0050004010B50B4B03EB8002B4
:1038D000D2F8002C48F6BF7302EA030181F0100110
:1038E00081F0200141F4004242F08002024C04EBDE
:1038F0008003C3F8002C10BD0050004010B5074BEA
:1039000003EB8002D2F8002C48F68F131A400A43CA
:10391000024C04EB8003C3F8002C10BD00500040A3
:1039200010B500F001F810BD0CB50020019000901A
:103930003348006840F480303149086000BF3048A7
:10394000006800F4003000900198401C019000983D
:1039500018B90198B0F5A06FF1D12948006800F4BA
:10396000003010B10120009001E00020009000988C
:10397000012843D12348006840F010002149086025
:103980000846006820F0030008600846006840F020
:10399000020008601A4840681949486008464068B3
:1039A00048600846406840F48060486008464068C7
:1039B00020F47C1048600846406840F4E8104860F5
:1039C0000846006840F08070086000BF0C4800683E
:1039D00000F000700028F9D00948406820F003008A
:1039E000074948600846406840F00200486000BF50
:1039F0000348406800F00C000828F9D10CBD000015
:103A0000001002400020024010B50020FEF7D0FD5B
:103A10000121C805FEF79CFD10BD000038B501244A
:103A20002948006880B2001D284931F8100080B292
:103A300001EB4000009026480068007A092832D047
:103A4000009800782249096808700098401C00908E
:103A5000009800781E49096848700098401C009042
:103A6000009800EB44000090009931F8020B00919F
:103A7000FDF767F8164909684880009800EB440094
:103A80000090009931F8020B0091FDF75AF81049A7
:103A900009688880009800EB440000900098008836
:103AA0000B490968C880012009490968087208485B
:103AB0000068C08810B9FEF711FC01E0FDF7ECFCCE
:103AC000FEF7E6FC38BD0000505C0040006000409E
:103AD0008C0000202DE9F04754480068007800F081
:103AE0007F08B8F1000F0AD150480068407A00F012
:103AF000DF004E49096848720020BDE8F087B8F140
:103B0000020F7CD149480068408818B947480068CE
:103B1000007908B10220F0E7DFF81491434800680B
:103B2000477927F080052C4640480068407900F02E
:103B3000800038B13F4901EB8400D0F8000C00F060
:103B4000300606E03B4901EB8400D0F8000C00F49D
:103B5000405699F80000A84204D91EB133480068C5
:103B6000807A08B90220C8E707F0800080B13149A7
:103B700001EB8400D0F8000C00F0300010284BD18D
:103B8000E0B2FDF743F9E0B23021FFF77DFE43E0FC
:103B9000284901EB8400D0F8000C00F44050B0F547
:103BA000805F39D1E4B9244A92F82C10E0B2FFF7D3
:103BB000EDFD204A02EB8401D1F8001C4BF68F7218
:103BC00001EA020080F4805080F4005040F400418B
:103BD00041F08001174B03EB8402C2F8001C1BE08C
:103BE000E0B2FDF7F9F8134A02EB8401D1F8001CAA
:103BF0004BF68F7201EA020080F4805000E011E081
:103C000080F4005040F4004141F08001094B03EB87
:103C10008402C2F8001C00BF08490968486980474F
:103C200000206AE700BF022067E700008C00002048
:103C300004010020005000400801002098000020EE
:103C400010B504462CB901200649096808820020F5
:103C500010BD0549096808688047024800680A30B5
:103C6000F6E700008C0000209800002010B5024606
:103C700006480068438A32B98888C01A034C246811
:103C80002082002010BD08681844FBE78C0000204B
:103C900010B504462CB901200649096808820020A5
:103CA00010BD0549096888688047024800680C30E3
:103CB000F6E700008C0000209800002010B50446B4
:103CC0002CB90220394909680882002010BD002063
:103CD0003749088035480068007800F07F0018BB3D
:103CE00032490968487A00F0200131B13049097839
:103CF00041F002012E4A117005E02D49097801F0CA
:103D0000FD012B4A117000F0400131B128490978BA
:103D100041F00101264A117005E02549097801F0BA
:103D2000FE01234A11703AE020480068007800F054
:103D30007F00012801D11E48C8E71C4800680078B0
:103D400000F07F00022828D1184A1268517901F04A
:103D50000F0001F080027AB1164B03EB8002D2F81B
:103D6000002C02F03002102A16D1114A127842F0CB
:103D700001020F4B1A700FE00E4B03EB8002D2F8DA
:103D8000002C02F44052B2F5805F05D1084A127847
:103D900042F00102064B1A7001E0002096E7064946
:103DA000096808698047024890E700008C000020FD
:103DB00084000020005000409800002010B50E48FC
:103DC0000068C0780D494978884213DC0A480068C9
:103DD000807878B908480068808858B90648006833
:103DE000C0780549096888720549096848688047AC
:103DF000002010BD0220FCE78C0000200401002000
:103E00009800002010B507480068407A40F0200074
:103E100004490968487204490968C8698047002054
:103E200010BD00008C000020980000202DE9F0411A
:103E30002E480068467926F080073C462B480068EB
:103E4000407900F0800038B1294901EB8400D0F8B6
:103E5000000C00F0300506E0254901EB8400D0F8A5
:103E6000000C00F4405523480078A04208D91F48B0
:103E70000068408820B91DB11C480068807A10B9DC
:103E80000220BDE8F08106F08000A0B1184A02EBE4
:103E90008401D1F8001C48F6BF7201EA020080F0EC
:103EA000100040F4004141F08001114B03EB84020B
:103EB000C2F8001C14E00E4A02EB8401D1F8001C89
:103EC0004BF68F7201EA020080F4805040F400410A
:103ED00041F08001064B03EB8402C2F8001C00BFD6
:103EE00005490968886980470020CAE78C000020DE
:103EF00000500040040100209800002010B5174B2E
:103F00001B68D978154B1B685879154B1B689A6943
:103F10009047044611480068807AE8B13CB90F48E0
:103F20000068007918B90D480068807808B102204F
:103F300010BD8CB90B490968C868804707480068FC
:103F4000407906490968C87204480068C078034986
:103F5000096808730020EBE70220E9E78C000020E5
:103F6000900000209800002038B500250020009027
:103F70002148006884B200BF09E0204901EB8500B8
:103F8000D0F8000C80B21E4941F825006D1C082DA8
:103F9000F3D344F480641848046044F001040460DE
:103FA00024F00104046000BF1348001D006800F401
:103FB00080600028F8D04FF6FF300F49091D0860D7
:103FC000002509E00E4850F8250080B20B4A02EBAC
:103FD0008501C1F8000C6D1C082DF3D344F00804D2
:103FE00005480460006884B244F004040248046098
:103FF000FDF796FC38BD0000405C004000500040DA
:10400000C0170020042808D14FF0E021096941F0D1
:1040100004014FF0E022116107E04FF0E02109694F
:1040200021F004014FF0E022116170477047000059
:1040300010B51348006840F00100114908600846B7
:104040004068104908400E494860084600680E491B
:1040500008400B4908600846006820F4802008608A
:104060000846406820F4FE0048604FF41F00886056
:10407000FFF756FC4FF000600449086010BD0000D7
:10408000001002400000FFF8FFFFF6FE08ED00E020
:104090007FB504460D4601210220FEF759FAADF81E
:1040A00004500020ADF80600ADF80840ADF80A0055
:1040B00001A90E4800F0A2F8012211460B4800F0B9
:1040C00093F81D208DF8000000208DF801000320DA
:1040D0008DF8020001208DF803006846FEF7BCF859
:1040E0000121024800F063F87FBD00000004004099
:1040F00010B50121234800F066F800283CD0224882
:104100000088401C2049088020480088401C1F4926
:1041100008801F480088401C1D4908801D480088F1
:10412000401C1C49088018480088322805DB002004
:104130001549088001201849087014480088B0F516
:10414000FA7F05DB0020114908800120134908701F
:104150000F480088282805DB00200D490880012031
:104160000F4908700B480088642805DB00200949C6
:10417000088001200B4908700121024800F014F862
:1041800010BD000000040040340000203600002074
:10419000380000203A000020160000201700002000
:1041A0001800002019000020CA430282704721B184
:1041B000028842F00102028004E002884FF6FE739A
:1041C0001A400280704730B50246002000230024C8
:1041D000158A05EA0103958905EA010413B10CB1BA
:1041E000012000E0002030BD1AB183890B43838198
:1041F00002E083898B43838170470000002202889C
:104200001D4B98420ED01D4B98420BD0B0F1804F01
:1042100008D01B4B984205D01A4B984202D01A4B3B
:10422000984204D14FF68F731A404B881A43174BAC
:10423000984207D0164B984204D04FF6FF431A40DD
:10424000CB881A4302808B8883850B8803850A4BB1
:1042500098420BD0094B984208D00E4B984205D09B
:104260000D4B984202D00D4B984201D10B7A038638
:104270000123838270470000002C0140003401407C
:104280000004004000080040000C00400010004006
:10429000001400400040014000440140004801403B
:1042A00010B540F225511D4800F03EF810B31B48F0
:1042B00000F064F8C4B21A48008800F40040C8B99D
:1042C0001748008800F4804060B10A2C03D0002019
:1042D0001349088020E01248008840F4004010494B
:1042E000088019E00D2C06D10D48008840F480406C
:1042F0000B49088010E00A480088C0F30D00094906
:104300000C5407480088401C05490880084600886E
:10431000C72801DD0020088010BD000000380140E2
:10432000B0010020E017002070B5024600240023F1
:104330000025002040F66A16B14200D100BFC1F34B
:10434000421501F01F03012606FA03F3012D02D1E5
:104350009689334006E0022D02D1168A334001E0EF
:10436000968A33400C12012606FA04F4168834406B
:1043700013B10CB1012000E0002070BD0146888817
:10438000C0F30800704710B54FF48020FDF764FAC1
:1043900010BD704710B50848084908600220096838
:1043A0000872074807490860074808490860054936
:1043B00009680868804710BDA41700208C00002001
:1043C0000801002090000020380100209800002003
:1043D0000EB54FF48020FDF73FFA4FF48020019096
:1043E00008208DF8090001208DF80A0001A8FDF7CA
:1043F0004DFA14208DF8000001208DF801000020F6
:104400008DF8020001208DF803006846FDF724FFB7
:104410002A208DF8000000208DF801006846FDF785
:104420001BFF0EBD10B588B00024684800686849BD
:1044300008800846008800F4004066490988084062
:1044400008B1FCF785FB6248008800F48060614990
:104450000988084030B14FF6FF305C4908605E497A
:10446000486880475A48008800F400505949098834
:10447000084018B14DF6FF70544908605448008850
:1044800000F4805053490988084030B14EF6FF705F
:104490004E4908600020FEF791F84D48008800F46E
:1044A00000604C490988084060B14C48007810B160
:1044B000FFF75AFD02E00220FEF780F84FF2FF708E
:1044C000424908604248008800F400704149098868
:1044D000084040B14FF6FF503C4908604048007822
:1044E000401C3F4908703A48008800F48070394900
:1044F00009880840002866D04FF6FF6033490860FD
:10450000081D006800F40040002856D035480068B7
:10451000401C3449086008460068032850D92B48DD
:10452000001F006800F00800002849D12748001F3C
:10453000006880B22C490860002408E02B4901EB98
:104540008400D0F8000C80B24DF82400641C082CC4
:10455000F4D32548006840F001002349086008466C
:10456000006880B21949091F08601F48006820F0E0
:1045700001001D4908600846006880B21349091F00
:10458000086000BF1148006800F480600028F9D07E
:104590004FF6FF300D490860002408E05DF8240064
:1045A00080B2124A02EB8401C1F8000C641C082C92
:1045B000F4D300200B49086002E00020094908609C
:1045C0000720FDF7FBFF08B010BD0000445C004071
:1045D000BC0000209600002008010020A00100205F
:1045E000BE000020C0000020C40000200050004099
:1045F00010B5FFF717FF10BD10B5044601210420C8
:10460000FDF7B6FF3CB10F48006880B220F0020011
:104610000C49086014E00B48006880B240F00200CA
:10462000084908600848006820F47F2006490860AF
:104630000846006840F44C300860002003490860D8
:1046400010BD0000405C004004080140B001214260
:104650000020064908604FF43F400549088008469D
:1046600000880249091F086000207047445C004030
:10467000960000202DE9F04104460E46154604F050
:104680007F00FDF7E5FA0746AAB23946304600F04A
:104690000BF8A9B204F07F00FFF7E8F80020BDE8AE
:1046A000F08100BFFEE70000F0B5144604F1010CF4
:1046B0004FEA6C07DFF824C00CEB41033D460AE0EB
:1046C0000678401C90F800C046EA0C2223F8022B22
:1046D0009B1C401C6D1E002DF2D1F0BD00600040FF
:1046E00000BF704700BF704700B587B00121480286
:1046F000FDF73EFF01210420FDF73AFF01210820CC
:10470000FDF736FF4FF40040FDF706FF0120ADF83E
:10471000040000208DF8070001A93748FDF7F0F9E3
:104720000220ADF8040001A93348FDF7E9F904209F
:10473000ADF8040001A93048FDF7E2F90820ADF812
:10474000040001A92C48FDF7DBF90220ADF80400B4
:1047500001A92A48FDF7D4F92948FCF715F90020EA
:10476000029001208DF80C008DF80D004FF46020B0
:1047700004900020059005208DF8180002A920481B
:10478000FCF744F90723012200211D48FCF766F9D4
:104790000723022201211A48FCF760F907230322AC
:1047A00002211748FCF75AF9072304220321144871
:1047B000FCF754F90723052209211148FCF74EF9AB
:1047C00001210F48FCF7D4F801210D48FCF7C5F88A
:1047D0000B48FCF79FF900BF0948FCF70DF90028CA
:1047E000FAD10748FCF7A6F900BF0548FCF7FAF82C
:1047F0000028FAD107B000BD00080140000C0140BC
:104800000024014010B501210348FCF788F901217B
:104810000248FCF79DFC10BD002401400800024046
:1048200070B504460D4600202071401EE062294606
:10483000204603F0B5FF08B1032070BD94F82E1296
:1048400094F82F0241EA00204AF65521884201D00F
:104850000220F2E794F86900010694F8680041EA42
:10486000004194F8670041EA002094F8661008437C
:1048700020F07F400D49884201D10020DDE794F807
:104880008500010694F8840041EA004194F8830011
:1048900041EA002094F88210084320F07F40034949
:1048A000884201D10020C8E70120C6E746415400F4
:1048B000024600E0521C107810B110788842F9D1FD
:1048C0001078704770B503460D46586A021D680A95
:1048D0001E68B678B0FBF6F400BF02CA09B9002022
:1048E00070BD8C4200D202E0641A121DF5E700BFD1
:1048F00010682044F4E70246891E5069801E8842F1
:1049000001D8002070479378906A01FB0300F9E713
:104910002DE9F04780460C46A17EE07E41EA00206A
:1049200010B10020BDE8F087207800F03F00401E65
:1049300000EB800101EBC0064FF00109002524E0E7
:104940001A48405D205C1949495D2144497840EA94
:104950000127B9F1000F11D07F2E0BD2384602F09B
:104960007DF982463146761C38F8110002F076F95E
:10497000824501D00020D5E7B94605E04FF6FF702B
:10498000874201D00020CDE76D1C0D2DD8D32078B3
:1049900000F0400038B1B9F1000F04D038F816002B
:1049A00008B10020BEE70120BCE70000CCB8000839
:1049B0002DE9F04704468946B9F1000F06D1E768B2
:1049C00017B16069B84215D8012713E0494620465F
:1049D00002F02AFC0646022E02D20120BDE8F08732
:1049E000701C08B93046F9E76069B04201D9304619
:1049F000F4E74F463D4600BF6D1C6069A84204D8ED
:104A00000225BD4201D90020E8E72946204602F0F0
:104A10000BFC064606B909E0701C08B1012E01D155
:104A20003046DBE7BD42E7D10020D7E700BF6FF09B
:104A300070422946204604F04FFE8046B8F1000F30
:104A400008D1B9F1000F05D02A464946204604F0A6
:104A500043FE8046B8F1000F0BD1E5602069401C91
:104A600078B12069401E2061607940F001006071DA
:104A700007E0B8F1010F02D14FF0FF3000E0012054
:104A800005462846AAE700002DE9F34F83B081468A
:104A900004980068019002E00198401C0190019880
:104AA00000782F28F8D0019800785C28F4D0D9F845
:104AB0001CA000252F4600BF38467F1C01990C5CC6
:104AC000202C03DB2F2C01D05C2C00D132E07F2D79
:104AD00003D3062005B0BDE8F08FE4B2812C13DBD0
:104AE000E0B2FE2810DC38467F1C01990E5C06EB14
:104AF000042084B2402E01DB7E2E05DD802E01DBFA
:104B0000FE2E01DD0620E5E70121204602F068F8CF
:104B100004460CB90620DDE7802C06DA214671A098
:104B2000FFF7C6FE08B10620D4E728466D1C2AF818
:104B30001040C1E700BF0198C11904980160202C02
:104B400001DA042000E00020804608E0681E3AF800
:104B50001040202C02D02E2C00D002E06D1E002D23
:104B6000F4D100BF0DB90620B4E700202AF81500E3
:104B70000B222021D9F8180003F008FE002700E0DE
:104B80007F1C3AF817002028FAD03AF817002E2890
:104B9000F6D00FB148F0030800E06D1E25B1681E85
:104BA0003AF810002E28F8D10020064602904FF067
:104BB000080B00BF38467F1C3AF8104004B963E088
:104BC000202C03D02E2C04D1AF4202D048F0030891
:104BD000F0E70298584501D2AF4214D1BBF10B0F58
:104BE00002D148F003084FE0AF4201D048F003087B
:104BF000AF4200D948E02F46082002904FF00B0B3F
:104C0000B006060ED6E7802C09DB204602F026F817
:104C10000021009001F0E4FF044648F00208FF2C58
:104C200011DDABF101000299884204D848F0030875
:104C3000CDF808B0BEE72212D9F818300298411C0E
:104C400002911A5419E024B1214629A0FFF730FE41
:104C500018B15F2448F003080FE0412C04DB5A2C04
:104C600002DC46F0020608E0612C06DB7A2C04DC4C
:104C700046F00106A4F1200084B2D9F81830029859
:104C8000411C02911C5495E700BFD9F81800007828
:104C9000E52803D10520D9F818100870BBF1080FDA
:104CA00001D1B006060E06F00C000C2803D006F069
:104CB0000300032801D148F0020808F0020058B9A7
:104CC00006F00300012801D148F0100806F00C009E
:104CD000042801D148F00808D9F8180080F80B80A2
:104CE0000020F7E6222A3A3C3E3F7C7F000000008D
:104CF0002B2C3B3D5B5D000010B56FF00400FFF70F
:104D000081F90A4800680A49B0FBF1F009490870C6
:104D10000846007800EB4001C1EBC0104FF6FF7170
:104D200001EAC0000449088010BD000020000020F6
:104D300000127A00A8010020AA0100200146114AB1
:104D400012884A434FF0E0235A6100229A611A46C2
:104D5000126942F001021A6100BF4FF0E0221069AF
:104D600000F001021AB100F48032002AF5D04FF0B1
:104D7000E022126922F001024FF0E0231A610022C2
:104D80009A617047AA0100202DE9F04104460E46C1
:104D90000021204600F01AFA0546EDB9002700BFB1
:104DA0002169206803F0FCFC054605B113E0606949
:104DB0000078E52802D06069007820B9781C0746A1
:104DC000B04201D107E000270121204600F07FF822
:104DD0000546002DE4D000BF042D00D1072528464C
:104DE000BDE8F0812DE9F04704460021204600F09F
:104DF000EDF9074617B13846BDE8F0874FF0FF09D7
:104E0000CA464FF6FF70208400BF2169206803F076
:104E1000C7FC074607B157E065692E780EB904272D
:104E200052E0E87A00F03F08E52E05D008F00800CF
:104E300040B1B8F10F0F05D04FF0FF094FF6FF70EA
:104E400020843AE0B8F10F0F1CD1E06978B306F086
:104E5000400030B195F80DA026F04006B146E0883C
:104E600020844E450AD1687B504507D12946E06928
:104E7000FFF74EFD10B1A9F1010000E0FF2000F0A6
:104E8000FF091AE0B9F1000F05D1284604F050FEE1
:104E9000504500D118E0A069C07A00F0010038B98F
:104EA0000B222846A16903F051FC08B90CE004E08C
:104EB0004FF0FF094FF6FF7020840021204600F0DC
:104EC00006F80746002FA0D000BF384694E72DE92A
:104ED000F04104468846E088461CB0B208B120691B
:104EE00010B90420BDE8F08106F00F0000286BD156
:104EF0002069401C2061E06828B920680089B04220
:104F000062D80420EEE720688078401E00EA161080
:104F1000002859D1E168206802F086F90546012D84
:104F200001D80220DEE7681C08B90120DAE7206812
:104F30004069A84242D8B8F1000F01D10420D1E75E
:104F4000E1682068FFF734FD05460DB90720C9E781
:104F5000012D01D10220C5E7681C08B90120C1E775
:104F6000206804F059FE08B10120BBE7216801F177
:104F700030004FF40072002103F008FC294620683D
:104F8000FFF7B9FC2168C86200270EE00120216804
:104F90000871206804F040FE08B10120A2E72068F3
:104FA000C06A401C2168C8627F1C20688078B842B3
:104FB000ECD82068C06AC01B2168C862E560294639
:104FC0002068FFF798FC2061E6802068303006F00A
:104FD0000F0100EB41106061002083E72DE9F05FD5
:104FE00004468A464FF0FF09CB4604274FE021696B
:104FF000206803F0D5FB074607B14BE066693578BA
:105000000DB9042746E0F07A00F03F08E52D0AD0FC
:105010002E2D08D028F02000082801D1012000E022
:105020000020504502D04FF0FF0929E0B8F10F0FE2
:105030001AD105F0400030B196F80DB025F04005CA
:10504000A946E08820844D450AD1707B584507D198
:105050003146E06904F000FB10B1A9F1010000E065
:10506000FF2000F0FF090BE0B9F1000F04D130463A
:1050700004F05EFD584502D04FF6FF70208409E031
:1050800000212046FFF723FF074607B102E0206911
:105090000028ACD100BF0FB1002020613846BDE828
:1050A000F09F2DE9FE4F0446D4F81880D4F81C90E8
:1050B0000C224146684603F05CFB00BF9DF80B00E4
:1050C00000F0010020B3002088F80B00E061012609
:1050D0000CE033464A466946404602F03FF8204617
:1050E000FFF780FE054605B102E0761C642EF0D382
:1050F00000BF642E02D10720BDE8FE8F042D01D031
:105100002846F9E79DF80B0088F80B00C4F81C90BE
:105110009DF80B0000F0020060B1002600E0761C54
:1051200039F816000028FAD106F119000D21B0FB5C
:10513000F1F700E0012739462046FFF725FE054636
:1051400045BB781E071E25D0E088C11B204600F015
:105150003DF80546F5B9A06904F0EAFC824600BFB7
:105160002169206803F01CFB054605B111E0FAB285
:1051700053466169E06901F069FF01202168087107
:1051800000212046FFF7A3FE054615B9781E071E2D
:10519000E6D100BFC5B92169206803F001FB0546CF
:1051A00095B920220021606903F0F0FA0B22D4E9BE
:1051B000050103F0DEFAA069C07A00F01800616909
:1051C0000873012021680871284695E72DE9F04110
:1051D00004460E46E680A568012D03D0206840698C
:1051E000A84202D80220BDE8F0812DB920680078DD
:1051F000032801D12068456A45B920680089B0427A
:1052000001D80220EFE72068476A1EE02068807816
:105210004FEA001812E02946206802F005F805461A
:10522000681C08B90120DEE7022D03D3206840691D
:10523000A84201D80220D6E7A6EB08064645EAD2E6
:1052400029462068FFF757FB0746E5600FB90220A3
:10525000C9E707EB161020612068303006F00F0117
:1052600000EB411060610020BDE770B505463DB917
:10527000FDF7D4FD10B924F0010400E0012400BFC3
:1052800000BF204670BD00002DE9F04106460D46E6
:105290001446FEB9052D1AD2DFE805F003041015F7
:1052A000180015E00D48D0F850C062460023D0E940
:1052B00012713846FBF729F8206009E00748B0F87A
:1052C0005000208004E00120206001E000E000BFE9
:1052D00000BF00BF00BF0020BDE8F081D009002062
:1052E0002DE9F84F80460C4615461E46042700203F
:1052F000009016B90420BDE8F88FB8F1000F45D131
:1053000004F0030038B32348006D4FEA900B4FEAD6
:105310008B00FAF7A4FF824612E02A466D1C012397
:1053200051460020FFF7DCFF074607B10CE01948A3
:105330005146026D2046FBF701F91648006D044402
:10534000301EA6F10106E8D100BFB9465046FAF773
:10535000B5FF4846CFE70F48B0F8500082B20D487D
:10536000006D00FB05F133462046FDF737FF009046
:10537000009848B90027FDF7DBFF009000BFFDF75C
:105380003EFD0028FBD100E0012700BF00BF3846EA
:10539000B1E70000D0090020014611B920F001005A
:1053A00000BF00BF704700002DE9F84F81460C4652
:1053B00015461E4604270020009016B90420BDE8BB
:1053C000F88FB9F1000F45D104F0030038B323483A
:1053D000006D4FEA900B4FEA8B00FAF740FF8046D2
:1053E00012E01E482146026D4046FBF7A7F82A4608
:1053F0006D1C012341460020FFF7D6FF074607B189
:1054000006E01648006D0444301EA6F10106E8D1FE
:1054100000BFBA464046FAF751FF5046CFE70F4863
:10542000B0F8500082B20D48006D00FB05F1334624
:105430002046FDF7BDFF0090009848B90027FDF712
:1054400097FF009000BFFDF7DAFC0028FBD100E0D9
:10545000012700BF00BF3846B1E70000D009002097
:105460002DE9F04107460C4615461E460121084627
:10547000FDF75EF83846FBF777FE0D48046045609F
:1054800000200B4988600846C66000200861802023
:105490004861400088618000C86120200862C00126
:1054A0004862002088623846FBF71AFFBDE8F081A9
:1054B000900500202DE9FF47064601240027002023
:1054C00003900120029003A9304600F04FFEFB49F3
:1054D0000870E3E1FA490988F94A5289881800EB13
:1054E000D071C1F34F01F74A1180F5494988F44A58
:1054F0009289881800EBD071C1F34F01F24A1180F4
:10550000EF498988EE4AD289881800EBD071C1F33F
:105510004F01EE4A1180EA49C988E94A128A88187F
:1055200000EBD071C1F34F01E94A1180E4490989C8
:10553000E34A528A881800EBD071C1F34F01E54A63
:105540001180E248008840F69C11884206DDE2485E
:10555000007818B90120E04908700BE0DB480088AA
:1055600040F24C41884205DADC48007810B901204D
:10557000DA490870D9480078012818D1D348008842
:1055800040F2D171884212DDD048008840F63301E4
:1055900088420CDA0020D1490870601CC4B202278E
:1055A0009DF80C0084421BDD9DF80C4018E0CA48B1
:1055B0000078012814D1C548008840F2D171884292
:1055C0000EDDC248008840F63301884208DA002028
:1055D000C1490870601EC4B20127012C00DA012401
:1055E00002A823460422CDE900709DF80C10304635
:1055F00000F0C0FB0027BA48007820B10020B8496D
:10560000087003F075FAB7480078002870D00020C1
:10561000B5490870B3490870B4490870B4490870B6
:105620007820FAF71CFE8146601EC0EBC010B1491D
:105630000844B1A33246B1A100904846FAF7DCFE17
:10564000484600F0EDFA00F0100048B14846FFF778
:1056500031FF03A9304600F089FD9849087019E12F
:10566000611EC1EBC111A34A881800F041FA05463A
:10567000012D20D10C21484600F054FC07E0984849
:10568000007820B100209649087003F031FA96485E
:1056900000780028F3D03F237F220021084603F042
:1056A000A5F80020904908708E4908708F4908704D
:1056B0008F490870EDE0032D37D192480068924978
:1056C000884206D1632300221521484600F0A4FC3D
:1056D0000DE08C4800684FF42A71B0FBF1F01FFA1E
:1056E00080F8434600221521484600F095FC08E06A
:1056F000D4E07B48007820B100207949087003F09D
:10570000F7F9794800780028F3D03F237F22002161
:10571000084603F06BF8002073490870714908705F
:105720007249087072490870B3E0022D3AD13623ED
:1057300075220F21092003F059F801203423732228
:10574000112100900B2003F0ADF901200C236FA272
:10575000132100900D2003F0EAFD01200C2370A21C
:10576000282100900D2003F0E2FD07E05C4800785E
:1057700020B100205A49087003F0BAF95A4800785D
:105780000028F3D03F237F220021084603F02EF8A3
:10579000002055490870534908705449087054490D
:1057A000087076E0042D3AD1362375220F210920A6
:1057B00003F01CF8012034237322112100900B20E8
:1057C00003F070F901200C235AA2132100900D2040
:1057D00003F0ADFD01200C235BA2282100900D20D9
:1057E00003F0A5FD07E03E48007820B100203C49C9
:1057F000087003F07DF93C4800780028F3D03F237F
:105800007F220021084602F0F1FF0020364908708F
:1058100034490870354908703549087039E0362335
:1058200075220F21092002F0E1FF012034237322A9
:10583000112100900B2003F035F901200C2333A235
:10584000132100900D2003F072FD01200C2343A2D0
:10585000282100900D2003F06AFD07E02048007821
:1058600020B100201E49087003F042F91E4800785C
:105870000028F3D03F237F220021084602F0B6FF24
:10588000002019490870174908701849087018490C
:10589000087000BF4846FAF711FD00BF12480078B3
:1058A00000283FF417AE00200F4908700D4908701A
:1058B0000E4908700E490870BDE8FF876C00002093
:1058C000B40100200C0000200E0000201000002079
:1058D0001200002014000020070000200800002013
:1058E0001800002003000020020000200400002017
:1058F00005000020E40E00202F0000002573257312
:1059000025730000C40E0020A009010020202021E2
:105910002063617574696F6E2021202020000000D3
:10592000556E66696E697368656420506172742E85
:105930002E0000002020202120204552524F5220CE
:105940002021202020000000666F72626964646577
:105950006E2061636365737321000000556E73757B
:1059600070706F72742046696C652E2E2E000000D8
:105970002DE9F04FADF50B7D07460E4614469A46CD
:10598000DDF850B20C2C08D0102C06D0182C04D006
:105990001F200DF50B7DBDE8F08F0C2C04D0102CD2
:1059A00009D0182C15D10DE0012241A101A800F069
:1059B0009FFE05460EE0012242A101A800F098FEDC
:1059C000054607E0012244A101A800F091FE05462A
:1059D00000E000BF00BF002D67D12046E21704EBB6
:1059E0005272D2102146E31704EB5373DB10A4EB81
:1059F000C3030BB1012300E000231A44624302F009
:105A0000FF09A7F18100C7B27E2E03DCA6F140009A
:105A1000C6B202E0A6F14100C6B2C7EB471000EBE8
:105A2000871006EB400000FB09F8BBF1000F25D002
:105A30002E48006898B9414601A800F0D4FC0546FC
:105A40002A480A901420294908604FF0FF3101A824
:105A500000F0C9FC0546112D03D1284699E72348DB
:105A60000A90414601A800F0BEFC05466B464A4636
:105A7000514601A800F033FF054611E0414601A858
:105A800000F0B1FC054615B90398404501D01E2031
:105A90007FE76B464A46514601A800F020FF0546C5
:105AA00001A800F004FC002073E7284671E700001D
:105AB000303A47424B5F6C69622F47424B31322E7E
:105AC000666F6E00303A47424B5F6C69622F474207
:105AD0004B31362E666F6E00303A47424B5F6C6931
