:020000040800F2
:1000000088B8002045010008613D000895360008C9
:100010005D3D0008290D00088B620008000000000B
:10002000000000000000000000000000ED52000889
:100030001919000800000000993F0008155C00082D
:100040005F0100085F0100085F0100085F01000810
:100050005F0100085F0100085F0100085F01000800
:100060005F010008B9310008F13100085F010008A4
:100070005F0100085F0100085F0100085F010008E0
:100080005F0100085F0100085F0100085F010008D0
:10009000D96100085F0100085F0100080D32000807
:1000A0005F0100085F0100085F0100085F010008B0
:1000B0005F010008D95C00085F0100085F010008CB
:1000C0005F0100085F0100085F0100085F01000890
:1000D0005F010008895E00085F0100085F010008F9
:1000E000453100085F0100086F5F00085F010008EC
:1000F0005F0100085F0100085F0100085F01000860
:100100005F010008994300085F0100085F010008D3
:100110005F0100085F0100085F0100085F0100083F
:100120005F0100085F0100085F0100085F0100082F
:10013000DFF80CD000F0B6FB0048004781A10008B2
:1001400088B800200648804706480047FEE7FEE7DB
:10015000FEE7FEE7FEE7FEE7FEE7FEE7FEE7FEE777
:10016000195C0008310100082DE9F05F0546002008
:1001700092469B4688460646814640241BE0284618
:1001800041464746224600F0D6FA53465A46C01A20
:10019000914110D311461846224600F0BDFA2D1A9F
:1001A00067EB01084F4622460120002100F0B4FA17
:1001B00017EB00094E41201EA4F10104DFDC484684
:1001C00031462A464346BDE8F09F40EA01039B07BB
:1001D00003D009E008C9121F08C0042AFAD203E0BC
:1001E00011F8013B00F8013B521EF9D27047D2B220
:1001F00001E000F8012B491EFBD270470022F6E710
:1002000010B513460A4604461946FFF7F0FF20468C
:1002100010BD30B505462A460B4612F8010B13F8FF
:10022000014B08B1A042F8D01CB1002802D06D1CCF
:10023000F1E7284630BD10B5044604E00B7800F81D
:10024000013B03B1491C521EF8D2204610BD421C8E
:1002500010F8011B0029FBD1801A704780EA0102C7
:1002600010B502F00043400022D04A001FD0010E1A
:1002700001EB1261C0F35600C2F3560240F40000D5
:1002800042F40002A0FB022000047F39140400D0D5
:10029000401C50EA124001D44000491EC2B20C0674
:1002A00004EBD010401C4008802A02D003E000205C
:1002B00010BD20F00100002900DA0020184310BD15
:1002C00030B480EA010202F0004530F0004221F033
:1002D000004013D090B1C30DD40DC2F31601C0F38A
:1002E0001600E41A41F4000140F400027D3491420A
:1002F00001D3641C00E04900002C02DA30BC00206D
:1003000070474FF400000023914201D3891A034340
:1003100040084FEA4101F7D151B1914202D14FF06B
:10032000004105E002D24FF0010101E06FF0010150
:1003300003EBC450284430BC00F01FBA2DE9FE4F37
:10034000804681EA0300C00F0C46009021F0004176
:1003500023F00045B8EB0200A94105D240462146F2
:1003600090461C460B46024623F00040104347D0FF
:10037000270DC7F30A00C3F30A510290401A0190F7
:1003800040286BDAC3F3130040F4801B00989246B8
:1003900020B10023D2EB030A63EB0B0B0198594603
:1003A000C0F14002504600F0B7F906460D465046EF
:1003B0005946019A00F0CFF910EB08006141002482
:1003C00087EA115284EAE7731A4340D0009A62B375
:1003D000019A012A4FEA075215DC001B61EB02016A
:1003E0004FF0004202EA0752CDE90042001C41F5FD
:1003F000801132462B4600F006FA03B0BDE8F08FBC
:1004000040462146F9E7001B61EB0201001C41F563
:10041000801300185B412018A2F5001747EB030179
:1004200040EAD570B6196D4111E06D084FEA360605
:1004300045EAC0754FEA0752001B61EB0201001C40
:1004400041F5801149084FEA300000195141324608
:100450002B4603B0BDE8F04F00F0C6B9009801226A
:1004600040000023D0EB020263EBE07300982146CA
:100470004FEAE074B8EB000061EB0401E9E783F0B8
:1004800000435BE781F0004158E72DE9FE4F81EA28
:10049000030404F0004421F0004100944FF0000BED
:1004A00023F0004350EA01045ED052EA03045BD01B
:1004B000C3F30A54C1F30A552C44A4F2F334019453
:1004C000A0FB0254C1F3130141F48011C3F31303E1
:1004D00043F4801301FB024400FB034E840A970A95
:1004E00044EA815447EA8357A4FB076802958D0AC2
:1004F00005FB07854FEA932C04FB0C542705029D4E
:100500004FEA065847EA1637B5EB08056EEB070CBD
:10051000870E920E47EA811742EA8312A7FB020177
:10052000B6EB0B0164EB00042B0D43EA0C335E18B1
:1005300044EB1C50DA465146E7FB0201C5F31304B5
:100540004FEA0B3343EA14534FEA0432019C43EA67
:100550000603A4F10C040294009CCDE900B400F061
:1005600052F903B0BDE8F08F00200146F9E7C10F52
:1005700080EAE0700844CA079623002100F006B91B
:1005800096230022114600F001B90EB5C10F80EA92
:10059000E0700844CA07002140F233438DE80E00A2
:1005A0000A460B4600F02FF903B000BD20F00040D2
:1005B000C10DC0F3160040F400007F2901DA0020CD
:1005C0007047962903DCC1F19601C84070479639FF
:1005D0008840704770B5C1F30A5201F0004500240D
:1005E000C1F3130140F2FF3341F480119A4201DA62
:1005F000002070BD40F233439A42A2F2334203DC42
:10060000524200F098F800E090402C43F1D0404274
:1006100070BDC1F30A5210B5C1F3130140F2FF33AC
:1006200041F480119A4201DA002010BD40F23343B8
:100630009A42A2F2334203DC524200F07CF810BD31
:10064000904010BD00F0004230F000400AD0C10DD3
:1006500001F56071C0F3160042EA0151C20840077B
:1006600011437047002001467047000030B5041E5A
:1006700071F1000404DB4FF00044404264EB0101DF
:10068000141E73F1000405DB1C464FF00043524278
:1006900063EB04038B4208BF824230BD30B5041EB9
:1006A00071F1000404DB4FF00044404264EB0101AF
:1006B000141E73F1000405DB1C464FF00043524248
:1006C00063EB0403994208BF904230BD01F0004340
:1006D00030B421F0004150EA010206D00A0DA2F523
:1006E0006072C1F31301002A02DC30BC00207047A5
:1006F000440F44EAC104C100E01830BC00EBC25012
:1007000000F03BB8002801DBC0F10040002901DB0C
:10071000C1F1004181427047202A04DB203A00FAEF
:1007200002F1002070479140C2F1200320FA03F348
:10073000194390407047202A04DB203A21FA02F046
:100740000021704721FA02F3D040C2F1200291400B
:10075000084319467047202A06DBCB17203A41FA96
:1007600002F043EAE07306E041FA02F3D040C2F13E
:10077000200291400843194670470029A8BF7047DE
:10078000401C490008BF20F00100704710B4B0FAC7
:1007900080FC00FA0CF050EA010404BF10BC704762
:1007A00049B1CCF1200421FA04F411FA0CF118BF7C
:1007B000012121430843A3EB0C01CB1D4FEA00614B
:1007C0004FEA102042BF002010BC704700EBC3501E
:1007D00010440029A4BF10BC7047401C490008BF4A
:1007E00020F0010010BC704710B5141E73F1000416
:1007F00008DA401C41F1000192185B411A4301D113
:1008000020F0010010BD2DE9F04D92469B4611B13C
:10081000B1FA81F202E0B0FA80F220329046FFF79E
:100820007BFF04460F4640EA0A0041EA0B015346AB
:100830005A46084313D0114653EA010019D0C8F1B3
:1008400040025046FFF777FF05460E465046594690
:100850004246FFF761FF084305D0012004E020462F
:100860003946BDE8F08D0020054346EAE0762C438A
:1008700037430A986305E40AA0EB08000022FD0A4A
:1008800044EA47540A3002D500200146E9E7010551
:1008900010196941DDE9084500196941BDE8F04DCD
:1008A000A2E70000064C074D06E0E06840F00103B7
:1008B00094E8070098471034AC42F6D3FFF73CFCAD
:1008C00090F20008B0F2000870B58C1810F8015BC7
:1008D00015F0070301D110F8013B2A1106D110F8D9
:1008E000012B03E010F8016B01F8016B5B1EF9D1DD
:1008F0002B0705D40023521E0DD401F8013BFAE763
:1009000010F8013BCB1A921C03E013F8015B01F8CD
:10091000015B521EF9D5A142D8D3002070BD21B190
:10092000826842F00102826003E0826822F00102E4
:100930008260704721B1826842F48072826003E075
:10094000826822F4807282607047000010B504460D
:100950001248844208D10121401503F09FFB002179
:10096000601503F09BFB17E00D48844208D101217C
:10097000001503F093FB0021201503F08FFB0BE023
:100980000848844208D10121C80303F087FB0021F5
:100990004FF4004003F082FB10BD00000024014032
:1009A00000280140003C0140014600208A6802F016
:1009B00004020AB1012000E0002070470146002037
:1009C0008A6802F008020AB1012000E000207047A6
:1009D00030B502460020002350680F4C20400D79AE
:1009E0000C6844EA05242043506090680B4C20407A
:1009F000D1E902542C434D7944EA450420439060E8
:100A0000D06A20F470000C7C641EE4B2234340EAF8
:100A10000350D06230BD0000FFFEF0FFFDF7F1FF94
:100A2000F0B504460D4600200021092D11DDE068D7
:100A3000A5F10A0606EB4607072606FA07F18843E2
:100A4000A5F10A0606EB460603FA06F10843E06044
:100A50000CE0206905EB4507072606FA07F18843F5
:100A600005EB450603FA06F108432061072A0FDA71
:100A7000606B561E06EB86071F2606FA07F18843B1
:100A8000561E06EB860605FA06F10843606322E06F
:100A90000D2A0FDA206BD61F06EB86071F2606FAF3
:100AA00007F18843D61F06EB860605FA06F10843D0
:100AB000206310E0E06AA2F10D0606EB86071F2610
:100AC00006FA07F18843A2F10D0606EB860605FA41
:100AD00006F10843E062F0BD816841F008018160E1
:100AE000704721B1826842F4A002826003E082680C
:100AF00022F4A00282607047816841F004018160A5
:100B0000704700002DE9F04FADF50F7D80460D4692
:100B100016469946989C002700208E903CB90A22E0
:100B20005AA104A808F0FEFA604908701CE0012CE4
:100B300007D10A225EA104A808F0F4FA5B49087004
:100B400012E0102C07D10A2261A104A808F0EAFAE9
:100B50005649087008E0112C06D10A2264A104A8A5
:100B600008F0E0FA514908705048007800286FD129
:100B7000824612E0002003900290654B042203A9F4
:100B800004A808F046FD624B012202A904A808F05F
:100B900040FD0AF101000FFA80FA99988245E9DBDD
:100BA000002104A808F039F90120039045E04FF036
:100BB000000A4FF0010B27E0E85DBDF90C1059F871
:100BC000211001F80A000AF1010000F0FF0AE85DB7
:100BD00000EB800104A808F020F94D4B04228EA9F7
:100BE00004A808F016FD4A4B012203A904A808F046
:100BF00010FD781CC7B2BDF83802401C80B28E9040
:100C00000BF101000FFA80FBBDF90C00401E18F833
:100C100000005845D0DABDF83802BDF90C1026F8AE
:100C20001100BDF838024FF6FF7101EA40008E90C6
:100C3000BDF80C00401C00B20390BDF90C00102858
:100C4000B5DD0020308004A808F04BF81AE0FFE77B
:100C500040F2FF7000210C232EA2CDE900100846BF
:100C60000BF0FFF840F2FF7000210C220223CDE9C7
:100C7000002102900D480278142100200AF0F7FFAD
:100C80000AF056FD0DF50F7DBDE8F08F303A2F507C
:100C90004943545552452F6A70672F59646348750C
:100CA000666654626C2E6461740000006C00002063
:100CB000303A2F504943545552452F6A70672F558B
:100CC0005664634875666654626C2E6461740000F5
:100CD000303A2F504943545552452F6A70672F5967
:100CE00061634875666654626C2E6461740000002E
:100CF000303A2F504943545552452F6A70672F554B
:100D00005661634875666654626C2E6461740000B7
:100D10006400002063616E277420637265617465EE
:100D2000206461742E00000000BFFEE70146CAB2D5
:100D30000B1243EA0220704708B50020009022E120
:100D40009748008800F00F00964908700846007820
:100D500000287CD19448006894490880084600889F
:100D600000F03000924908809048008800F440501C
:100D70008E4908808C4909684BF6BF7201EA02006F
:100D800080F4005080F0200040F4004141F08001E8
:100D9000854A11608248008800F0100090BB104620
:100DA000006848F60F7108401146086002F074FCB4
:100DB0007D4909684BF6BF7201EA02007B49098848
:100DC00001F4805109B180F480507849098801F418
:100DD000005109B180F400507549098801F01001F3
:100DE00009B180F010007249098801F0200109B1B1
:100DF00080F0200081B241F4004141F080016A4A54
:100E0000116008BDFFE76848006880B20090BDF837
:100E1000000000F40060B0B363480068C0F30E0047
:100E200048F68F7108406049086004F0EBFB5E49AA
:100E300009684BF6BF7201EA02005C49098801F4B7
:100E4000805109B180F480505849098800E056E08B
:100E500001F4005109B180F400505549098801F0AE
:100E6000100109B180F010005149098801F02001FA
:100E700009B180F0200081B241F4004141F08001CD
:100E8000494A1160BDE7FFE7BDF8000000F40040EB
:100E9000002878D044480068C0F30E0048F68F71EF
:100EA00008404149086003F03BF83F4909684BF6A8
:100EB000BF7201EA02003D49098801F4805109B17D
:100EC00080F480503949098801F4005109B180F457
:100ED00000503749098801F0100109B180F0100075
:100EE0003349098801F0200109B180F0200081B266
:100EF00041F4004141F080012B4A116081E729480B
:100F000000782C4901EB8000D0F8000C80B20090F2
:100F1000BDF8000000F40040C0B12248007801EBA9
:100F20008000D0F8000CC0F30E0048F68F71084026
:100F30001C4909781F4A02EB8101C1F8000C1949CC
:100F40000978491E1C4A52F821008047BDF800006C
:100F500000F08000B8B113480078164901EB80001A
:100F6000D0F8000C48F60F7108400E490978114A74
:100F700002EB8101C1F8000C0A490978491E0F4AA9
:100F800052F82100804708484430006880B2044984
:100F9000088000F4004000287FF4D2AE00BF30E7A4
:100FA000C400002090000020005C0040A40000204D
:100FB000A600002000500040EC000020D0000020DF
:100FC0000B4A02EB8001D1F8001C01F4804171B1A1
:100FD00002EB8001D1F8001C48F68F7211404CF2F0
:100FE00080021143024B03EB8002C2F8001C7047E1
:100FF000005000400B4A02EB8001D1F8001C01F0C8
:10100000400171B102EB8001D1F8001C48F68F72EB
:10101000114048F2C0021143024B03EB8002C2F8B8
:10102000001C704700500040084A02EB8001D1F8D4
:10103000001C48F68F62114048F280021143034BB6
:1010400003EB8002C2F8001C704700000050004013
:1010500070B500254FF4803400E0641E24B1802078
:1010600003F07AF90028F8D014B90325284670BD9A
:1010700040F2FF5003F028F92846F8E72DE9F04147
:10108000064600274848456B01E04748456B05F098
:1010900045000028F9D005F0040030B103270420F2
:1010A00003F012F93846BDE8F08105F0010028B1DF
:1010B0000127012003F008F93846F4E703F046F968
:1010C000B04202D010273846EDE740F2FF5003F05F
:1010D000FBF8002003F054F904463448204008B9D6
:1010E0000020E0E704F0004008B11C20DBE704F03A
:1010F000804008B10920D6E704F0005008B10A206A
:10110000D1E704F0805008B10B20CCE704F0006078
:1011100008B10C20C7E704F0806008B10D20C2E7D9
:1011200004F0807008B10E20BDE704F4000008B19F
:101130000F20B8E704F4800008B11020B3E704F4EE
:10114000001008B11120AEE704F4801008B112209D
:10115000A9E704F4002008B11320A4E704F48020D8
:1011600008B114209FE704F4003008B115209AE775
:1011700004F4803008B1162095E704F4004008B16B
:10118000172090E704F4804008B118208BE704F49E
:10119000005008B1192086E704F0080008B11A20B1
:1011A00081E738467FE700000080014008E0FFFD4E
:1011B00070B500251048446B01E00F48446B04F003
:1011C00045000028F9D004F0040028B103250420CC
:1011D00003F07AF8284670BD04F0010028B101251B
:1011E000012003F071F82846F5E740F2FF5003F0C4
:1011F0006BF82846EFE700000080014070B500253D
:101200000B48446B01E00A48446B04F04500002899
:10121000F9D004F0040028B10325042003F054F8A9
:10122000284670BD40F2FF5003F04EF82846F8E71C
:10123000008001402DE9F04106460F464FF00008BE
:101240002248456B01E02148456B05F04500002828
:10125000F9D005F0040038B14FF00308042003F082
:1012600033F84046BDE8F08105F0010030B14FF0A1
:101270000108012003F028F84046F3E703F066F880
:10128000B04203D04FF010084046EBE740F2FF5069
:1012900003F01AF8002003F073F8044604F46040E9
:1012A00018B9200C38804046DCE704F4005008B13F
:1012B0001320D7E704F4804008B11020D2E704F4EB
:1012C000004008B10F20CDE74046CBE70080014049
:1012D00070B500264FF480350F48446B02E06D1E58
:1012E0000D48446B04F0450008B9002DF7D115B145
:1012F00004F0040028B10326042002F0E5FF304684
:1013000070BD04F0400028B10026402002F0DCFF50
:101310003046F5E73046F3E70080014000F08051A9
:1013200011B10349086001E00249486070470000BC
:10133000040402400000024021B1026842F00102B0
:10134000026004E002684FF6FE731A4002607047C4
:1013500001684FF6FE72114001600021016041609A
:101360008160C1604B49884208D14A4908394968BF
:1013700041F00F01474A083A51608AE0454914316B
:10138000884208D143490839496841F0F001414A8F
:10139000083A51607DE03F492831884208D13D49F3
:1013A0000839496841F470613A4A083A516070E07E
:1013B00038493C31884208D136490839496841F4F6
:1013C0007041344A083A516063E0324950318842F2
:1013D00008D130490839496841F470212D4A083A4A
:1013E000516056E02B496431884208D129490839B7
:1013F000496841F47001274A083A516049E025499B
:101400007831884208D123490839496841F0706130
:10141000204A083A51603CE01F49884206D1011F2A
:10142000096841F00F01021F116032E01A491431BE
:10143000884208D11849091F096841F0F001164A8D
:10144000121F116025E014492831884208D1124941
:10145000091F096841F470610F4A121F116018E0FA
:101460000D493C31884208D10B49091F096841F4F4
:101470007041094A121F11600BE007495031884240
:1014800007D10549091F096841F47021024A121F5A
:101490001160704708000240080402400146002025
:1014A000002201F0805313B1054B1A6801E0054B8F
:1014B0001A6802EA01030BB1012000E00020704726
:1014C000000402400000024010B50022026847F606
:1014D000F0739A430C6A8B6823430C6923434C696D
:1014E00023438C692343CC6923434C6A23438C6A8E
:1014F00023431A430260CB6843600B6883604B68E8
:10150000C36010BD2DE9F0472848006800F11005C0
:101510002E8826480068077AD6B9042F18D12448A7
:10152000007801280FD100212248006880B2801C79
:10153000214A42F8101030202049088000BF0020C6
:101540001B49087003E0072710201C49088027E08A
:10155000AC88A64201D8042000E002200746B4422D
:1015600000D93446A0B2A96888478046002002F01E
:1015700067F88146A2B24946404604F089FEA1B20E
:10158000002003F067FF2888001B2880688820441B
:10159000688030200949088000020949088000BF9E
:1015A000024909680F72BDE8F0870000940000202E
:1015B0008E000020505C004000600040A60000202B
:1015C000A40000202DE9F0412848006800F1100433
:1015D0002688A068C0B1BEB1A588B54200D93546FD
:1015E000A8B2A168884707462088401B20806088F1
:1015F00028446080002002F013F88046AAB24146D9
:10160000384602F0B5FC00BF208850B14FF440507E
:10161000174908800021084603F01CFF30201549B7
:1016200008802088A188884204DB03200F490968CC
:10163000087218E02088002804DD05200B4909689D
:10164000087210E0208870B90620084909680872FD
:1016500000210948006880B2801C084A42F8101036
:10166000302004490880BDE8F0810000940000208B
:10167000A4000020A6000020505C00400060004054
:101680002DE9F84F9B48006845780027BA46062D9B
:101690001BD198480068007800F07F00002813D123
:1016A000944909688878012803D193490968CF696A
:1016B0000AE0022803D1904909680F6A04E0032870
:1016C00002D18D4909684F6A94E0002D64D18948A0
:1016D0000068408800285FD186480068C0880228DA
:1016E0005AD1844800680079002855D181480068A3
:1016F000007800F07F0028B97E480068808808B92B
:101700007E4F77E07B480068007800F07F0001287A
:1017100010D1784909684879774909688A690021B0
:101720009047002866D173480068807A002861D00D
:10173000724F5FE06F480068007800F07F00022879
:1017400058D16C480068407900F00F06694800687D
:10175000407900F0700967480068407900F0800027
:1017600038B1674901EB8600D0F8000C00F0300872
:1017700006E0634901EB8600D0F8000C00F4405805
:1017800060480078B04235D9B9F1000F32D1B8F1D4
:10179000000F2FD0594F2DE0082D07D15548006874
:1017A000007800F07F0028BB574F23E00A2D21D19D
:1017B00050480068007800F07F0001281AD14D4899
:1017C0000068807AB0B14B480068408890B94948B9
:1017D0000068007970B947480068C088012809D1BD
:1017E000444909684879444909688A690021904751
:1017F00000B9464F57B13F480068A0F812A03D48D5
:10180000006887610020B84700240FE0394A126859
:101810005078394A1268116988470446032C05D16B
:101820000920344909680872BDE8F88F314800681A
:10183000008A4FF6FF71884204D109202D490968BA
:101840000872F1E7022C03D02A480068008A20B908
:101850000820284909680872E6E7264800680078E9
:1018600000F08000E0B323480068C0880090214861
:101870000068008A0099884204D91E4900980968C6
:10188000088223E01B480068008A1A490968C98851
:1018900088421BDA17480068008A1749096891F8DE
:1018A0002C10884203DA0020194908700EE0114814
:1018B0000068008A1049096891F82C1090FBF1F239
:1018C00001FB120010B90120114908700A48006894
:1018D00090F82C10074800688182FFF713FE07E09C
:1018E000FFE70320034909680872000309490880DB
:1018F00000BF99E79400002098000020A558000838
:10190000005000400C0100202958000879580008B8
:101910008E000020A4000020704700000FB5ADF637
:101920003C2D0020CDF8FC08CDF8F808CDF8F408DF
:10193000CDF8F008CDF8EC08FE4B02220DF5106151
:10194000DDF83C0A07F0E5FCBDF800090D900AF04F
:1019500060FEADF80009002040F2FF710C23F6A2F2
:10196000CDE9001001460AF07CFA09F0E1FEF14BE6
:1019700002220DF6F401DDF83C0A07F0CAFCA2E3EE
:10198000BDF8F4084DF6FF32811A90427ED00ADC91
:10199000A0F2FF1000287AD0B0F53F4F78D0B0F514
:1019A000434F76D129E2B1F5007F73D0B1F5A06F36
:1019B00003D0B1F5C06FF4D158E0DE4B02220DF533
:1019C0000F61DDF83C0A07F0A4FCBDF8F4080AF04A
:1019D00020FEADF80209BDF8F0080AF01AFEADF8D5
:1019E0000409D44B05220DF60611DDF83C0A07F078
:1019F00090FCD04B02220DF60C11DDF83C0A07F0EA
:101A000088FCCC4B01220DF60E11DDF83C0A07F0E4
:101A100080FCC84B02220DF51161DDF83C0A07F08D
:101A200078FCC44B02220DF61211DDF83C0A07F0D7
:101A300070FCC04B01220DF61411DDF83C0A07F0D2
:101A400068FCBC4B01220DF61511DDF83C0A07F0CD
:101A500060FC002040F2FF710C23BAA2CDE9001017
:101A60000D210AF0FEF909F063FE23E3B14B0222D7
:101A70000DF50F61DDF83C0A07F04BFCBDF8F008EE
:101A80000AF0C7FDDDF83C1A896804E018E0F8E2C6
:101A9000E8E0F7E2DEE20844801E01460D90DDF842
:101AA0003C0A07F0BAF9002040F2FF710C23A8A20B
:101AB000CDE900100D210AF0D4F909F039FEF9E260
:101AC0009C4B02220DF50F61DDF83C0A07F021FC6A
:101AD000BDF8F008B0F5044F4CD100200D9045E062
:101AE00000200C90934B01220CA9DDF83C0A07F072
:101AF00010FC9DF83000D0B9BDF8F4080AF089FD5B
:101B0000ADF81609BDF8F0080AF083FD0DF5106177
:101B100008839DF830100DF510608176854B4022CA
:101B20000DF61B11DDF83C0A07F0F3FB1BE09DF8F6
:101B30003000012817D1BDF8F4080AF06AFDADF8AD
:101B40005C09BDF8F0080AF064FDADF85E099DF887
:101B500030108DF86019774B40220DF66111DDF8D9
:101B60003C0A07F0D6FB0D98401C0D900D980228FA
:101B7000B6DB6AE0BDF8F008B0F5864F65D1DDF858
:101B80003C0A8068001F01460D90DDF83C0A07F012
:101B900044F900200D9055E000200C90654B022286
:101BA0000DF6F401DDF83C0A07F0B3FB614B0222AD
:101BB0000DF50F61DDF83C0A07F0ABFB5D4B012230
:101BC0000CA9DDF83C0A07F0A4FB9DF83000D0B961
:101BD000BDF8F4080AF01DFDADF81609BDF8F008CF
:101BE0000AF017FD0DF5106108839DF830100DF512
:101BF000106081764F4B40220DF61B11DDF83C0A38
:101C000007F087FB1BE09DF83000012817D1BDF8D5
:101C1000F4080AF0FEFCADF85C09BDF8F0080AF023
:101C2000F8FCADF85E099DF830108DF86019414B55
:101C300040220DF66111DDF83C0A07F06AFB0D98B1
:101C4000401C0D900D980228A6DB002040F2FF7189
:101C50000C2343A2CDE900101A210AF002F909F081
:101C600067FD27E2334B02220DF50F61DDF83C0AD8
:101C700007F04FFBBDF8F4080AF0CBFCADF8A20961
:101C8000BDF8F0080AF0C5FCADF8A409294B012203
:101C90000DF6A611DDF83C0A07F03BFB254B0222AE
:101CA0000DF6A811DDF83C0A07F033FBBDF8A809D2
:101CB0000D900AF0AEFCADF8A8091E4B02220DF6FD
:101CC000AA11DDF83C0A07F024FBBDF8AA090D9023
:101CD0000AF09FFCADF8AA09BDF8AA09CDF8F808EA
:101CE000BDF8A809CDF8FC08124B01220DF6AC1185
:101CF000DDF83C0A07F00DFB00200D906BE00020A2
:101D00000C900B900A900B4B01220CA9DDF83C0AB9
:101D100007F0FFFA074B01220BA9DDF83C0A07F098
:101D2000F8FA044B01220AA9DDF83C0A07F0F1FA9F
:101D30001CE0000068000020534F4920646F6E656E
:101D40002E0000004150503020646F6E652E000060
:101D50004150503120736B69707065642E00000033
:101D600044515420646F6E652E0000009DF83000D1
:101D700001280CD19DF830008DF8AD099DF82C009C
:101D80008DF8AE099DF828008DF8AF0920E09DF888
:101D9000300002280CD19DF830008DF8B0099DF874
:101DA0002C008DF8B1099DF828008DF8B2090FE0DC
:101DB0009DF8300003280BD19DF830008DF8B30951
:101DC0009DF82C008DF8B4099DF828008DF8B50910
:101DD0000D98401C0D909DF8AC190D9881428EDC39
:101DE000002040F2FF710C23FEA2CDE90010272154
:101DF0000AF037F809F09CFC5CE1FD4B02220DF57E
:101E00000F61DDF83C0A07F084FABDF8F0080AF02B
:101E100000FCCDF8F008BDF8F008E02809DADDF89C
:101E20003C0A8068001F01460D90DDF83C0A06F070
:101E3000F4FF00200D90FCE000200C90BDF8F008AD
:101E4000E02815DAEA4B02220DF6F401DDF83C0A2F
:101E500007F05FFAE64B02220DF50F61DDF83C0A50
:101E600007F057FABDF8F0080AF0D3FBCDF8F008F8
:101E7000DF4B01220CA9DDF83C0A07F04AFA9DF875
:101E8000300090BBBDF8F4080AF0C3FBADF8B80908
:101E90009DF830108DF8BC19D54B10220DF6BD11F0
:101EA000DDF83C0A07F035FA10210DF6BD100BF0F5
:101EB00041F90B900B9810B90DF64C2D00BD0B9805
:101EC000133081B2ADF8BA190B980A9009F0F6FAFE
:101ED000CDF8D009DDF8D009C54B0A9001460B9A20
:101EE000DDF83C0A07F015FA9FE0FFE79DF83000A7
:101EF000012830D1BDF8F4080AF08BFBADF8F009E9
:101F00009DF830108DF8F419B94B10220DF6F5112B
:101F1000DDF83C0A07F0FDF910210DF6F5100BF085
:101F200009F90B900B9800B9C6E70B98133081B2F2
:101F3000ADF8F2190B980A9009F0C0FACDF8080A2A
:101F4000DDF8080AAA4B0A9001460B9ADDF83C0A14
:101F500007F0DFF969E09DF83000102830D1BDF8B6
:101F6000F4080AF056FBADF8D4099DF830108DF84E
:101F7000D8199F4B10220DF6D911DDF83C0A07F055
:101F8000C8F910210DF6D9100BF0D4F80B900B986E
:101F900000B991E70B98133081B2ADF8D6190B98C0
:101FA0000A9009F08BFACDF8EC09DDF8EC09904BBA
:101FB0000A9001460B9ADDF83C0A07F0AAF934E0D2
:101FC0009DF83000112830D1BDF8F4080AF021FB4B
:101FD000ADF80C0A9DF830108DF8101A844B1022C1
:101FE0000DF61121DDF83C0A07F093F910210DF6EA
:101FF00011200BF09FF80B900B9800B95CE70B9841
:10200000133081B2ADF80E1A0B980A9009F056FA07
:10201000CDF8240ADDF8240A754B0A9001460B9A84
:10202000DDF83C0A07F075F900BF0D98401CC0B2FE
:102030000D900D980428FFF6FFAE002040F2FF71CE
:102040000C236CA2CDE90010342109F00AFF09F03D
:102050006FFB2FE0664B02220DF50F61DDF83C0AA5
:1020600007F057F9624B02220DF6EC01DDF83C0A4D
:1020700007F04FF9BDF8EC080AF0CBFACDF8EC0800
:1020800018E017E05A4B02220DF50F61DDF83C0A0B
:1020900007F03FF9BDF8F0080AF0BBFADDF83C1A8A
:1020A00089680844801E01460D90DDF83C0A06F060
:1020B000B4FE00BF00BF4E4B02220DF6F401DDF866
:1020C0003C0A07F026F9BDF8F4084DF6FF218842D6
:1020D0007FF456AC002040F2FF710C2348A2CDE9FA
:1020E0000010412109F0BDFE09F022FB24210DF66C
:1020F000C800FEF783F824210DF6A400FEF77EF851
:1021000024210DF50860FEF779F824210DF65C0016
:10211000FEF774F844210DF61800FEF76FF844211D
:102120000DF2D470FEF76AF844210DF5F260FEF767
:1021300065F844210DF24C70FEF760F800200D9018
:10214000BEE00DF6BD100D99405C68B10DF6BD10F6
:102150000D99405C0C9009F0B1F901460DF618029A
:102160000D98401C42F820100DF6D9100D99405CD6
:1021700068B10DF6D9100D99405C0C9009F09EF9EC
:1021800001460DF2D4720D98401C42F820100DF655
:10219000F5100D99405C68B10DF6F5100D99405C95
:1021A0000C9009F08BF901460DF5F2620D98401C78
:1021B00042F820100DF611200D99405C68B10DF623
:1021C00011200D99405C0C9009F078F901460DF250
:1021D0004C720D98401C42F820100DF618010D9815
:1021E000401C15E0534F463020646F6E652E000092
:1021F0006800002044485420646F6E652E00000083
:102200004275696C6420487566666D616E200000D9
:1022100051F8200070B10DF6BD100D99405C0DF61F
:1022200018010C900D98401C51F820000B900C994F
:10223000FDF7E4FF0DF2D4710D98401C51F8200019
:1022400070B10DF6D9100D99405C0DF2D4710C905F
:102250000D98401C51F820000B900C99FDF7CEFF13
:102260000DF5F2610D98401C51F8200070B10DF68B
:10227000F5100D99405C0DF5F2610C900D98401C25
:1022800051F820000B900C99FDF7B8FF0DF24C713E
:102290000D98401C51F8200070B10DF611200D99D9
:1022A000405C0DF24C710C900D98401C51F82000D0
:1022B0000B900C99FDF7A2FF0D98401CC0B20D9039
:1022C0000D981028FFF63DAFBDF8BA09133800B2DB
:1022D0000021CDE90010DDF8D0090DF618030DF648
:1022E000C80201460D900DF6BD10FEF70BFC4FF431
:1022F00080701021CDE90010DDF8EC090DF2D473E7
:102300000DF6A40201460D900DF6D910FEF7FAFB6A
:10231000BDF8F209133800B20121CDE90010DDF853
:10232000080A0DF5F2630DF5086201460D900DF6F1
:10233000F510FEF7E7FB4FF480701121CDE9001096
:10234000DDF8240A0DF24C730DF65C0201460D9087
:102350000DF61120FEF7D6FBDDF8D0090D9007F041
:10236000F3FCDDF8080A0D9007F0EEFCDDF8EC094F
:102370000D9007F0E9FCDDF8240A0D9007F0E4FC6D
:10238000002040F2FF710C23AFF29412CDE900104F
:102390004121542009F065FD09F0CAF9FE4B0222E3
:1023A0000DF50F61DDF83C0A06F0B3FFBDF8F40847
:1023B0000AF02FF9ADF8280ABDF8F0080AF029F95B
:1023C000ADF82A0AF44B01220DF62C21DDF83C0A67
:1023D00006F09FFFF04B02220DF62E21DDF83C0A9D
:1023E00006F097FFEC4B02220DF52361DDF83C0A65
:1023F00006F08FFFE84B02220DF63221DDF83C0A91
:1024000006F087FFE44B01220DF63421DDF83C0A8B
:1024100006F07FFFE04B01220DF63521DDF83C0A86
:1024200006F077FFDC4B01220DF63621DDF83C0A81
:1024300006F06FFF002040F2FF710C23D7A2CDE918
:1024400000104E2109F00DFD09F072F909F0D6F8DF
:102450000020CDF84807401ECDF844070020CDF8F5
:102460004007CDF83C07CDF838074FF400710DF563
:10247000A760FDF7C3FE4FF40071CEA8FDF7BEFEC6
:102480004FF400714EA8FDF7B9FE4FF480710EA80D
:10249000FDF7B4FE9DF8AE0911287DD100200D9006
:1024A0000C90BBE200200B90ADE20D98401CC0B236
:1024B0000D90BDF8EC08E8B1BDF8EC180D98884215
:1024C00018DD0020CDF84807401ECDF84407002055
:1024D000CDF84007CDF83C07CDF83807DDF83C0AC9
:1024E0008068801C01460A90DDF83C0A06F095FCE5
:1024F00001200D9001230DF6D9110DF6BD10DDF868
:102500003C2ACDE90713CDE905200DF2D4700DF674
:1025100018010DF6A4020DF6C803CDE90132CDE98C
:1025200003109438031D1A1D0EA900904EA80AF03E
:10253000F5F80DF61B120EA9CEA80AF0EBFBCEA9FA
:102540000DF5A76001F000F900200A9049E0002095
:10255000099040E00DF5A7610A9801EB80110998F8
:1025600001EBC00103C90022924BCDE90401FDF744
:10257000E5FECDE906010AF067FC8F4A0A9902EBF5
:102580004112099942F821008B490A9801EB401148
:10259000099851F8200000E047E2002807DA0021FE
:1025A000854A0A9802EB4012099842F820108249A5
:1025B0000A9801EB4011099851F82000FF2807DD27
:1025C000FF217D4A0A9802EB4012099842F8201038
:1025D0000998401C099009980828BBDB0A98401C00
:1025E0000A900A980828B2DB00230DF611210DF697
:1025F000F510DDF83C2ACDE90713CDE905200DF2F1
:102600004C700DF5F2610DF65C020DF50863CDE935
:102610000132CDE9031010380DF244731A1D0EA9D2
:1026200000904EA80AF07AF80DF661120EA9CEA815
:102630000AF070FBCEA90DF5A76001F085F8002027
:102640000A9047E0002009903EE00DF5A7610A9846
:1026500001EB8011099801EBC00103C90022554B21
:10266000CDE90401FDF76AFECDE906010AF0ECFBB5
:10267000524A0A9902EB4112099942F821004F4946
:102680000A9801EB4011099851F82000002807DA58
:1026900000214A4A0A9802EB4012099842F8201099
:1026A00046490A9801EB4011099851F82000FF288B
:1026B00007DDFF21414A0A9802EB4012099842F8CF
:1026C00020100998401C099009980828BDDB0A9839
:1026D000401C0A900A980828B4DB00230DF611214B
:1026E0000DF6F510DDF83C2ACDE90713CDE90520FC
:1026F0000DF24C700DF5F2610DF65C020DF50863FC
:10270000CDE90132CDE9031014380DF244731A1DDE
:102710000EA900904EA80AF001F80DF661120EA95C
:10272000CEA80AF0F7FACEA90DF5A76001F00CF8D3
:1027300000200A905EE00020099055E00DF5A761A9
:102740000A9801EB8011099801EBC00103C900222E
:10275000184BCDE90401FDF7F1FDCDE906010AF0C2
:1027600073FB174A0A9902EB4112099942F82100BA
:1027700013490A9801EB4011099851F820000028EC
:1027800007DA00210E4A0A9802EB4012099842F833
:1027900020100B490A9815E06800002073746172DC
:1027A000742064652D636F6D70726573696E672E3A
:1027B0000000000000006040809B0020809C002002
:1027C000809D002001EB4011099851F82000FF285E
:1027D00007DDFF21FE4A0A9802EB4012099842F8F1
:1027E00020100998401C099009980828A6DB0A982F
:1027F000401C0A900A9808289DDB00200A902CE0D3
:102800000A990C980144DDF8FC08814200DB27E0BE
:102810000020099019E009990B980144DDF8F808A7
:10282000814200DB14E0EB490A9801EB4011099862
:1028300011F82020DDE9091001EB0011DDF8400A54
:1028400042540998401CC0B2099009980828E2DB5C
:1028500000BF0A98401CC0B20A900A980828CFDB33
:1028600000BF00200A90C6E00A990C980144DDF8E8
:10287000FC08814200DBC2E000200990B2E0099927
:102880000B980144DDF8F808814200DBAEE0D24944
:102890000A9801EB4011099811F82020DDE9091090
:1028A00001EBC001DDF8440A4254C9490A9801EB22
:1028B0004011099811F82020DDE9091001EBC00151
:1028C000DDF8480A425400BF00BF00BFDDE909102F
:1028D00001EBC001DDF8440A405C80380590DDE979
:1028E000091001EBC001DDF8480A405C8038049013
:1028F000DDE9091001EB0011DDF8400A415C0498A4
:1029000001446722504301EB20200890DDE90910C3
:1029100001EB0011DDF8400A415C58220598504354
:10292000A1EB2021B72204985043A1EB202007906F
:10293000DDE9091001EB0011DDF8400A415C059862
:102940000144C622504301EB202006900898FF283E
:1029500001DDFF2000E0089808900898002801DABF
:10296000002000E0089808900798FF2801DDFF206C
:1029700000E0079807900798002801DA002000E09F
:10298000079807900698FF2801DDFF2000E00698D1
:1029900006900698002801DA002000E006980690CC
:1029A0000698C0B203900798C0B202900898C0B2CF
:1029B0000190DDE902120AF029FA0C9ADDF8541AA6
:1029C0000A440A991144854A02EB01230B9ADDF867
:1029D000501A0A440999114423F811000998401C1F
:1029E000C0B2099009980828FFF649AF00BF0A98BD
:1029F000401CC0B20A900A980828FFF635AF00BF05
:102A00000B9808300B90DDF8F8180B988842FFF609
:102A10004CAD08F08DFE0C9808300C90DDF8FC18D9
:102A20000C988842FFF63EAD25E39DF8AE092228BA
:102A30007ED100200D900C9015E300200B9009E34F
:102A400000200A9002E10D98401C80B20D90BDF864
:102A5000EC08E8B1BDF8EC180D98884218DD0020AC
:102A6000CDF84807401ECDF844070020CDF84007B8
:102A7000CDF83C07CDF83807DDF83C0A8068801CAB
:102A800001460990DDF83C0A06F0C7F901200D90D7
:102A900001230DF6D9110DF6BD10DDF83C2ACDE964
:102AA0000713CDE905200DF2D4700DF618010DF6CF
:102AB000A4020DF6C803CDE90132CDE90310943824
:102AC000031D1A1D0EA900904EA809F027FE0DF651
:102AD0001B120EA9CEA80AF01DF9CEA90DF5A7600C
:102AE00000F032FE0020099049E00020089040E00C
:102AF0000DF5A761099801EB8011089801EBC00161
:102B000003C90022364BCDE90401FDF717FCCDE9DE
:102B100006010AF099F92F4A099902EB4112089926
:102B200042F821002B49099801EB4011089800E078
:102B3000A0E251F82000002807DA0021254A099870
:102B400002EB4012089842F820102249099801EB44
:102B50004011089851F82000FF2807DDFF211D4A89
:102B6000099802EB4012089842F820100898401C7F
:102B7000089008980828BBDB0998401C0990099820
:102B80000828B2DB0020099059E00A98089000EB71
:102B9000D0704010099A0C99114401EBC001DDF886
:102BA000FC08814200DB4DE0002008903FE00A98DD
:102BB000079000EBD07041100798A0EB4100089AF5
:102BC0000B99114401EBC001DDF8F808814209E0DE
:102BD000809D0020809B0020809C002036030020E8
:102BE0000000604000DB25E0F749099801EB401147
:102BF000089811F820200A98069000EBD070411038
:102C0000099800EBC101089800EB01110A980790A0
:102C100000EBD07043100798A0EB430001EBC0011C
:102C2000DDF8400A42540898401CC0B20890089849
:102C30000828BCDB00BF0998401CC0B20990099865
:102C40000828A2DB00BF0A98401C0A900A980428B2
:102C5000FFF6F9AE00230DF611210DF6F510DDF8A3
:102C60003C2ACDE90713CDE905200DF24C700DF596
:102C7000F2610DF65C020DF50863CDE90132CDE994
:102C8000031010380DF244731A1D0EA900904EA8BF
:102C900009F044FD0DF661120EA9CEA80AF03AF82B
:102CA000CEA90DF5A76000F04FFD00200A9048E086
:102CB000002009903FE00DF5A7610A9801EB801113
:102CC000099801EBC00103C90022C04BCDE9040102
:102CD000FDF734FBCDE906010AF0B6F80146BC4A1F
:102CE0000A9802EB4012099842F82010B8490A9855
:102CF00001EB4011099851F82000002807DA002163
:102D0000B34A0A9802EB4012099842F82010B049E1
:102D10000A9801EB4011099851F82000FF2807DDBF
:102D2000FF21AB4A0A9802EB4012099842F82010A2
:102D30000998401C099009980828BCDB0A98401C97
:102D40000A900A980828B3DB00230DF611210DF62E
:102D5000F510DDF83C2ACDE90713CDE905200DF289
:102D60004C700DF5F2610DF65C020DF50863CDE9CE
:102D70000132CDE9031014380DF244731A1D0EA967
:102D800000904EA809F0CAFC0DF661120EA9CEA85B
:102D900009F0C0FFCEA90DF5A76000F0D5FC00201A
:102DA0000A9047E0002009903EE00DF5A7610A98DF
:102DB00001EB8011099801EBC00103C90022834B8C
:102DC000CDE90401FDF7BAFACDE906010AF03CF8B5
:102DD000804A0A9902EB4112099942F821007D4983
:102DE0000A9801EB4011099851F82000002807DAF1
:102DF0000021784A0A9802EB4012099842F8201004
:102E000074490A9801EB4011099851F82000FF28F5
:102E100007DDFF216F4A0A9802EB4012099842F839
:102E200020100998401C099009980828BDDB0A98D1
:102E3000401C0A900A980828B4DB00200A90FFE0A2
:102E40000A990C980144DDF8FC08814200DBFBE0A4
:102E500000200990EBE009990B980144DDF8F8088F
:102E6000814200DBE7E00A98029000EBD07040104E
:102E7000574901EB40110998039000EBD0704010C6
:102E800011F820100998019000EBD07042100A98B8
:102E9000009000EBD070401002EBC002DDF8440A55
:102EA00081540A98029000EBD0704010494901EB20
:102EB00040110998039000EBD070401011F82010D9
:102EC0000998019000EBD07042100A98009000EB36
:102ED000D070401002EBC002DDF8480A815400BFF8
:102EE00000BF00BF0998039000EBD07041100A9812
:102EF000029000EBD070401001EBC001DDF8440AF5
:102F0000405C803805900998039000EBD070411028
:102F10000A98029000EBD070401001EBC001DDF880
:102F2000480A405C80380490DDE9091001EB00118B
:102F3000DDF8400A415C049801446722504301EBEC
:102F400020200890DDE9091001EB0011DDF8400AAE
:102F5000415C582205985043A1EB2021B7220498E8
:102F60005043A1EB20200790DDE9091001EB00118F
:102F7000DDF8400A415C05980144C622504301EB4C
:102F8000202006900898FF2801DDFF2000E0089827
:102F900008900898002801DA002000E008980890BE
:102FA0000798FF2801DDFF2000E0079807900798A9
:102FB000002801DA002000E0079807900698FF2813
:102FC0000ADDFF2009E00000809B00200000604037
:102FD000809C0020809D002006980690069800287E
:102FE00001DA002000E0069806900698C0B203902F
:102FF0000798C0B202900898C0B20190DDE90212B1
:1030000009F004FF0C9ADDF8541A0A440A99114495
:10301000474A02EB01230B9ADDF8501A0A4409993A
:10302000114423F811000998401CC0B20990099876
:103030001028FFF610AF00BF0A98401CC0B20A90DB
:103040000A981028FFF6FCAE00BF08F071FB0B9841
:1030500010300B90DDF8F8180B988842FFF6F0ACB2
:103060000C9810300C90DDF8FC180C988842FFF694
:10307000E4AC00E000BF2F4B02220DF6F401DDF8B6
:103080003C0A06F046F9BDF8F40809F0C2FAADF8BA
:10309000380A00200D9045E00DF618010D9851F802
:1030A000200028B10D9851F820000C9006F04CFE3D
:1030B0000DF2D4710D9851F8200028B10D9851F8F7
:1030C00020000C9006F040FE0DF5F2610D9851F8CD
:1030D000200028B10D9851F820000C9006F034FE25
:1030E0000DF24C710D9851F8200028B10D9851F84F
:1030F00020000C9006F028FE00210DF618020D9815
:1031000042F82010443A0D9842F82010443A0D98A5
:1031100042F82010443A0D9842F820100D98401CB7
:10312000C0B20D900D981128B6DB00BFFEF7C4BEEB
:103130003603002068000020012001490870704714
:10314000A800002010B54FF4006000F083F898B19B
:10315000082003F057FC4FF40061144800F053FAC4
:1031600028B913480078C0F10100114908704FF4E4
:10317000006000F069F817E04FF4806000F06AF832
:1031800090B1082003F03EFC4FF48061074800F046
:103190003AFA28B907480078C0F1010005490870DB
:1031A0004FF4806000F050F810BD0000000C0140AA
:1031B000030000200500002010B5082000F04AF8A8
:1031C00068B1082003F01EFC0821074800F01BFA34
:1031D00028B906480078C0F10100044908700820A9
:1031E00000F032F810BD0000001001400400002083
:1031F00010B5102000F02EF810B10120024908701F
:10320000102000F021F810BD5800002010B54FF438
:10321000807000F01FF870B1082003F0F3FB4FF44A
:103220008071074800F0EFF928B906480078C0F12E
:103230000100044908704FF4807000F005F810BDDB
:10324000000C0140020000200149086070470000A6
:1032500014040140014600200022074B1B6803EACA
:103260000102054B14331B680B4013B10AB1012056
:1032700000E00020704700000004014000212349C5
:103280008279002A3AD00A46126803689A430B46AC
:103290001A600A1D126803689A430B1D1A600279AE
:1032A00011440A6803681A430A60184A083212680F
:1032B00003689A43154B08331A601A1D1268036895
:1032C0009A43124B0C331A604279102A0ED11A1FFE
:1032D000126803681A430D4B08331A601A1D1268EE
:1032E00003681A43094B0C331A600DE00749427911
:1032F00011440A6803681A430A6005E00279114420
:103300000A6803689A430A6070470000000401409D
:103310000320014908607047A40100202DE9FC4109
:1033200007460D460026002400200090019008204A
:103330005B49086010204860402088600020C86019
:103340004FF480600861084601F09CF81020FDF7FA
:1033500095FE044614B12046BDE8FC815148008822
:1033600000044F49086037204860402088600020F2
:10337000C8604FF480600861084601F083F8372088
:10338000FDF77CFE04460CB12046E5E74FF0FF3028
:103390004549086008204860302088600220C860E5
:1033A0000020086101204861084600F0A5FF0020C8
:1033B0003B49086033204860402088600020C86096
:1033C0004FF480600861084601F05CF83320FDF797
:1033D00055FE04460CB12046BEE709E04FF400104C
:1033E00000F0BAFF20B101F013F84DF82600761C6A
:1033F0002E48406B40F22A6108400028EED0082099
:1034000000F0AAFF28B1082000F05EFF0424204647
:10341000A2E7022000F0A0FF28B1022000F054FF34
:103420000224204698E7202000F096FF28B12020B3
:1034300000F04AFF062420468EE74FF4007000F0AB
:103440008BFF30B14FF4007000F03EFF07242046A0
:1034500082E740F2FF5000F037FF00980006009925
:1034600001F47F4140EA0120009901F47F0140EA24
:103470001120009940EA11606860019800060199E6
:1034800001F47F4140EA0120019901F47F0140EA03
:103490001120019940EA1160286020465CE7000095
:1034A000A883002040000020BC8300200080014051
:1034B00030B500228B071C0F0F2303FA04F20B4BCD
:1034C0008C1053F824309343084C8D1044F8253069
:1034D00023468C1053F824308C07240F00FA04F490
:1034E0002343024C8D1044F8253030BD08000140C4
:1034F0002DE9F0410246002500260020002300248B
:10350000002791F803C00CF00F0591F803C00CF0F0
:10351000100CBCF1000F03D091F802C04CEA050575
:1035200091F800C0BCF1000F31D0146800202BE0EE
:103530004FF0010C0CFA00F3B1F800C00CEA0306DE
:103540009E4220D183004FF00F0C0CFA03F7BC43CE
:1035500005FA03FC4CEA040491F803C0BCF1280FFF
:1035600006D14FF0010C0CFA00FCC2F814C00AE0BE
:1035700091F803C0BCF1480F05D14FF0010C0CFAD3
:1035800000FCC2F810C0401C0828D1D31460B1F868
:1035900000C0BCF1FF0F34DD546800202EE000F1C4
:1035A000080C4FF0010808FA0CF3B1F800C00CEA5F
:1035B00003069E4221D183004FF00F0C0CFA03F753
:1035C000BC4305FA03FC4CEA040491F803C0BCF1C7
:1035D000280F05D100F1080C08FA0CF8C2F8148085
:1035E00091F803C0BCF1480F07D100F1080C4FF06F
:1035F000010808FA0CF8C2F81080401C0828CED345
:103600005460BDE8F0810246002093680B400BB186
:10361000012000E000207047416170470161704760
:1036200001460548006880B200EBC100001D034A56
:1036300032F8100080B27047505C004000600040DB
:1036400001460548006880B200EBC100034A32F829
:10365000100080B270470000505C004000600040E5
:1036600070B50A480468001D0568001D06683444EA
:1036700054B108220649204600F046F804220449C5
:103680001031284600F040F870BD0000E8F7FF1F39
:10369000AB00002000BFFEE710B518480068047AB0
:1036A000022C01D0042C05D1FDF72CFF1348006833
:1036B000047A1CE0062C19D11048006840780528CF
:1036C0000ED10E480068007800F07F0040B90B4929
:1036D0000968C87801F014FE09490968086A80473A
:1036E0000849096888688047082400E008240349DD
:1036F00009680C7200F052FC10BD0000940000201C
:10370000A00000209800002030B50B46002100BF2B
:1037100016E00A24B4EB107F05D9302404EB1074B2
:1037200003F8114005E0412404EB10740A3C03F84F
:103730001140000100254C00641C1D554C1CE1B2D9
:103740009142E6DB30BD00002DE9F04FADF5037D81
:1037500006468A464FF4007102A8FCF74FFD00248C
:103760003CE0002536E0002006EB841202EBC502A7
:1037700010605060814628E00AEB891000EBC5001C
:10378000D0E90073354800EB841000EBC9003A46DD
:10379000D0E900B15846FCF778FECDE9000102A857
:1037A00000EB841000EBC501D1E900733A46DDE976
:1037B0000001FCF7C3FD02AA02EB841202EBC50272
:1037C00003C209F1010000F0FF09B9F1080FD3DBD2
:1037D000681CC5B2082DC6DB601CC4B2082CC0DB57
:1037E000002434E000252EE04FF0000926E01C48BC
:1037F00000EB891000EBC50102A800EB8410D1E9B1
:10380000007300EBC901D1E900B13A465846FCF714
:103810003CFECDE9000106EB841000EBC500D0E9C9
:1038200000733A460098FCF789FD06EB841202EB20
:10383000C50203C209F1010000F0FF09B9F1080F48
:10384000D5DB681CC5B2082DCEDB601CC4B2082CC9
:10385000C8DB0DF5037DBDE8F08F000048EF0008E0
:1038600048ED000870B504460025062C18D118480C
:103870000068007800F07F00012811D1144800682A
:10388000407968B9124800688078222801D1114D2A
:1038900010E00F480068807821280BD10E4D09E018
:1038A0000B480068007800F07F00212802D1032C2B
:1038B00000D10A4D0DB9022070BD05480068856130
:1038C00000210348006841820020A8470020F3E758
:1038D0009400002039390008093900081D39000812
:1038E00010B504460249204601F0B4FF10BD0000A7
:1038F0006C01002010B504460249204601F0AAFFE1
:1039000010BD00006401002010B5044602492046A5
:1039100001F0A0FF10BD00007C010020014629B984
:103920000120034A12681082002070470148FCE71A
:10393000940000200801002010B5044602492046EA
:1039400001F088FF10BD00007401002070B505462D
:1039500006480068C478042C01DD002070BD0448CE
:1039600000EBC401284601F075FFF7E79400002042
:10397000840100200246002901DD02207047002A50
:1039800001DD0220FAE70020F8E7000000B502465A
:1039900006480068007800F07F00212804D10B2A37
:1039A00002D100F081F800BD0220FCE79400002065
:1039B00010B5002023490968887222490968C87235
:1039C0002148C0791F4909684872002001F090FC25
:1039D0004FF40071002001F085FD1021002001F05E
:1039E00047FD1821002001F0B3FC5821002001F010
:1039F00021FD0020FDF718FB144890F82C10002042
:103A000001F0B8FC002001F0FBFC4FF4C061012084
:103A100001F068FD4FF48071012001F00BFD0421DD
:103A2000012001F017FD0021012001F0C9FC202137
:103A3000012001F01DFD002001F062FC012004497D
:103A4000086010BD94000020DAF100081001002089
:103A5000A4010020F8B504460D4616461F46002076
:103A600000908DF800408DF801508DF802608DF8BF
:103A7000037004226946812002F0F0FB012001F06E
:103A800017FDF8BD0348817A11B10521024A116082
:103A900070470000809E0020A401002004200149FE
:103AA00008607047A401002003480068C1780348FB
:103AB00001600020704700009400002008010020F1
:103AC0007047704710B5FFF7CBFD00200549096826
:103AD000887200F087FA02F0AFFB0020024908600C
:103AE00010BD000094000020A40100200548817A48
:103AF00019B10521044A116002E00121024A116056
:103B000070470000809E0020A40100202DE9F14FA5
:103B100082B0002001900298FCF794FD0446002238
:103B2000794BFCF7A3FD02D800200190E9E0029850
:103B3000FCF788FD0446754A754BFCF797FD12D8D3
:103B40000298FCF77FFD804600226F4BFCF797FC44
:103B5000064600226F4BFCF798FC0446FCF759FD23
:103B6000C0B20190CDE00298FCF76CFD04466A4AB1
:103B70006A4BFCF77BFD17D80298FCF763FD804683
:103B8000624A634BFCF77BFC82460022644BFCF7E5
:103B90007CFC06460022634BFCF7D0FB0446FCF796
:103BA00038FDC0B20190ACE00298FCF74BFD044632
:103BB0004FF066325C4BFCF759FD17D80298FCF7C2
:103BC00041FD8246544A554BFCF759FC8046002281
:103BD000564BFCF75AFC06460022554BFCF7AEFB51
:103BE0000446FCF716FDC0B201908AE00298FCF78B
:103BF00029FD04464FF033324E4BFCF737FD18D801
:103C00000298FCF71FFD82464FF06632464BFCF7E8
:103C100036FC80460022454BFCF737FC0646002266
:103C2000454BFCF78BFB0446FCF7F3FCC0B201905C
:103C300067E00298FCF706FD044600223F4BFCF7C4
:103C400015FD18D80298FCF7FDFC82464FF0333280
:103C5000384BFCF714FC80460022344BFCF715FC73
:103C600006460022364BFCF769FB0446FCF7D1FC04
:103C7000C0B2019045E00298FCF7E4FC04464FF026
:103C80006632304BFCF7F2FC17D80298FCF7DAFCEE
:103C900080460022294BFCF7F2FB064600222A4B05
:103CA000FCF7F3FB04460022284BFCF747FB824657
:103CB000FCF7AFFCC0B2019023E00298FCF7C2FC15
:103CC0000446124A224BFCF7D1FC18D80298FCF7A4
:103CD000B9FC80464FF066321A4BFCF7D0FB064623
:103CE00000221C4BFCF7D1FB044600221A4BFCF7C8
:103CF00025FB8246FCF78DFCC0B2019001E0DE207E
:103D000001900198BDE8FE8F00000C40CDCCCCCCDA
:103D1000CCCC0C40000049409A99999999990D4052
:103D2000000059400000144066660E4000406F409D
:103D300000002E4033330F4000004440000010408C
:103D40000040504066661040008051400080564060
:103D5000CCCC104000003E400040584000BFFEE781
:103D60007047704770B5002100230F22C47804B358
:103D7000154C246804F4E064C4F5E064210AC1F140
:103D80000403CA40447804FA03F1847814402143C0
:103D900009010E4C0678A155047804F01F05012492
:103DA000AC4005786D11AD0005F1E025C5F8004186
:103DB00009E0047804F01F050124AC40044D0678A6
:103DC000761145F8264070BD0CED00E000E400E0FF
:103DD00080E100E002490143024A1160704700009F
:103DE0000000FA050CED00E070B5022647480068B7
:103DF000447846480068007800F07F00002844D1ED
:103E0000092C03D101F0CEFD06465FE0052C14D14C
:103E10003E480068C0787F280BDC3C48006880780A
:103E200038B93A480068808818B938480068807AFC
:103E300008B1082565E0002648E0032C0ED1334880
:103E40000068C078012807D130480068808818B918
:103E500001F0CCFD064639E0022637E0012C35D1D1
:103E60002A480068C07801280DD128480068808859
:103E700048B926480068407A00F0200018B101F0E7
:103E80001DFC064622E0022620E02048006800785B
:103E900000F07F00012805D10B2C17D101F022FE84
:103EA000064613E019480068007800F07F000228F9
:103EB0000BD1012C03D101F001FC064606E0032CD6
:103EC00004D101F0A7FD064600E002264EB1E0B2A3
:103ED0000F4A1268516988470646032E01D1092509
:103EE0000FE00EB108250CE0062500210948006806
:103EF00080B2801C084A42F8101030200749088020
:103F000000BF024909680D7270BD000094000020D6
:103F100098000020505C004000600040A600002097
:103F200010B511480068047A022C01D0042C01D18C
:103F3000082412E0032C01D0052C05D1FDF742FB2B
:103F400009480068047A08E0072C05D10749096888
:103F5000C8688047082400E00824034909680C72F7
:103F600000F01CF810BD0000940000209800002014
:103F7000F0B5561C7510074E06EB41042B4605E0C4
:103F800034F8047B20F8017B401C5B1E002BF7D12A
:103F9000F0BD0000006000407047000010B50D4803
:103FA00090F82C10002001F0E5F90B480068007A29
:103FB000082805D1400209490880102008490880D6
:103FC00005480068007A092801D1012010BD0020B1
:103FD000FCE700001001002094000020A400002055
:103FE000A600002010B5012001F0C7FF01240B48F6
:103FF000046000200A4908800846008807490860D4
:104000000020091D08604FF4E0500549088008466B
:10401000008802490860002010BD0000405C00409C
:104020009E00002001460020034A506820F44040D2
:1040300008435060704700000010024029B1064A52
:1040400052690243044B5A6104E0034A52698243B5
:10405000014B5A61704700000010024029B1064A26
:10406000D2690243044BDA6104E0034AD269824315
:10407000014BDA61704700000010024029B1064A86
:1040800092690243044B9A6104E0034A92698243B5
:10409000014B9A61704700000010024029B1064AA6
:1040A000D2680243044BDA6004E0034AD2688243D8
:1040B000014BDA60704700000010024001490860BF
:1040C00070470000D800424270B50546072D01D068
:1040D0002E4805702D48007808284ED2DFE800F001
:1040E00004111A202B384E4F2948006828B900F0D7
:1040F00053F806202549087002E00520234908707E
:1041000041E000F049F804202049087001202049CE
:10411000086038E002201D4948700320087032E032
:104120001A484078401E194948700846407808B936
:104130000420087027E01748006884B244F0100497
:10414000144804600520114908700A2048701AE0DC
:104150000E484078401E0D4948700846407858B9CE
:104160000C48006884B224F010040A480460062059
:10417000087000200649086005E000BF00BF062067
:104180000249087000BF00BF70BD0000A9010020F7
:10419000AC010020405C004010B50748006884B2C4
:1041A00024F0040404480460FFF7A0FC4FF43F40EF
:1041B0000149086010BD0000405C00407CB5054628
:1041C000002400200090019000F0DAF800F0007068
:1041D00010B10E2420467CBD3949098888B2694651
:1041E000FFF79CF804460CB12046F4E7012D36D1C8
:1041F000019800F4802000282ED031480088000467
:104200003049086037204860402088600020C8603E
:10421000A8020861084600F035F93720FCF72EFFA8
:1042200004460CB12046D6E7022026490860062045
:104230004860402088600020C8604FF480600861BA
:10424000084600F01FF90620FCF718FF04460CB1E1
:104250002046C0E72046BEE725242046BBE7184895
:1042600000880004174908603720486040208860B3
:104270000020C8604FF480600861084600F002F931
:104280003720FCF7FBFE04460CB12046A3E70020D4
:104290000C49086006204860402088600020C86003
:1042A0004FF480600861084600F0ECF80620FCF747
:1042B000E5FE04460CB120468DE720468BE7000062
:1042C00040000020A8830020014988637047000057
:1042D0000080014001498863704700000080014070
:1042E0000149086070470000A000304201490860A1
:1042F000704700008C05304200210A4B02685A6268
:1043000042689A621A46D16A21F0F701D0E9022385
:104310001A4303691A4343691A431143014AD1629C
:104320007047000000800140002006490860486096
:104330008860C86048628862C86203488863002059
:10434000C863704700800140FF07C0000148006952
:10435000C0B270470080014001460020034A526B02
:104360000A400AB1012000E00020704700800140AF
:104370000248006800F00300704700000080014020
:1043800008B50146002000900248084400900098BB
:10439000006808BD1480014010B500F079FC10BD24
:1043A00029B1064AD26B0243044BDA6304E0034AA4
:1043B000D26B8243014BDA637047000000800140FA
:1043C00000210A4A516847F6FF629143027D8368E3
:1043D0001A4343681A43C3681A4303681A430369BC
:1043E0001A431143014A51607047000000800140A8
:1043F00008B531208DF8000000208DF80100012063
:104400008DF802008DF803006846FFF7ABFC08BD8D
:1044100001480068704700008080014008B5012114
:104420003420FFF72BFE4FF4F850ADF800000320C6
:104430008DF8020018208DF8030069460E48FFF73A
:1044400057F80420ADF8000069460C48FFF750F813
:104450004FF48070ADF8000048208DF803006946E5
:104460000748FFF745F801218802FFF7E7FD012122
:104470000220FFF7E3FD08BD0010014000140140D9
:10448000000801400021094B02689A601A46D16871
:104490006FF30A01D0E901231A43C3681A43036981
:1044A0001A431143014AD160704700000080014067
:1044B0000549096821F00301034A116011460968A2
:1044C00001431160704700000080014030B58BB09F
:1044D00005460C461348FCF721FF00211248FCF763
:1044E0002BFF12480090019500200290A008039035
:1044F00000200490802005908000069080000790A6
:10450000002008904FF44050099000200A9069461E
:104510000548FCF7D9FF01210348FCF70DFF0BB05C
:1045200030BD000000F000104404024080800140D3
:1045300030B58BB005460C461348FCF7EFFE002162
:104540001248FCF7F9FE12480090019510200290E5
:10455000A008039000200490802005908000069021
:1045600080000790002008904FF4405009900020F0
:104570000A9069460548FCF7A7FF01210348FCF7AC
:10458000DBFE0BB030BD000000F000104404024020
:104590008080014070B5044600252148006803284A
:1045A00002D12725284670BD1D48006838B11C4837
:1045B0000068012803D01A48006802282ED1B4F5FB
:1045C000805F02D127252846EDE7B4F5006F14D1AE
:1045D0000120FFF7F3FD054605BB012011490875D1
:1045E00000200860486088604FF40060C8600020C8
:1045F00008610846FFF7E4FE10E00020FFF7DEFD4B
:1046000005465DB90120074908750020086048602B
:104610008860C86008610846FFF7D2FE2846C2E7F6
:104620003C000020908300202DE9F04103460C4619
:104630000021AD48007883F85600AC480088A3F804
:1046400054001068010E88091870C1F38300587077
:1046500001F0030098701068C0F30741D97010880A
:10466000C0F307211971117859715068010E0801C2
:10467000D8805068C0F30741D88840EA1110D8802C
:1046800001F00F0018729088C0F30721C809587212
:10469000C1F380109872C1F34010D872C1F30010BA
:1046A0001873002058739048006818B18E4800684D
:1046B00001284BD18807000D18611179186940EA6B
:1046C000810018619068010E186940EA9110186124
:1046D000C1F3C200187501F0070058759068C0F367
:1046E000074148099875C1F38200D8758807400FC3
:1046F00018761089C0F30721187E40EAD110187689
:104700001869401C0025C3E91205187ED3E912750B
:10471000801C012606FA00F0C617A7FB00C805FB9F
:10472000008007FB0600C3E912C01D7A0120A840E3
:1047300018650026D3E91257186DA5FB00C807FBC2
:10474000008005FB0600C3E912C02AE06648006845
:10475000022826D111798806800A18619068010E16
:10476000186940EA012018619068C0F30741186990
:10477000084318611089C0F307211869401C4FF4E1
:104780000075A0FB05054FF480664FF0000CA0FB00
:10479000067805FB068500FB0C50C3E9127070100B
:1047A0001865C1F3801003F8190F8806400E587081
:1047B000117A587840EAD110587001F07F00987053
:1047C000D068010EC809D870C1F341101871C1F347
:1047D000820058718807000F9871D068C0F30741B4
:1047E000987940EA91109871C1F34010D871002077
:1047F000187201F0010058729089C0F30721C809AE
:104800009872C1F38010D872C1F340101873C1F3CD
:1048100000105873C1F38100987301F00300D8733E
:10482000117B48081874012058742068010ED9744F
:10483000193B2068C0F307410D02DD852088C0F3D5
:104840000721D88D0843D88521780D061D6360683F
:10485000010E186B40EA01451D636068C0F3074113
:10486000186B40EA01251D63A088C0F30721186B6F
:104870000843186321793420C154A068010E352003
:10488000C154A068C0F307410D069D632089C0F3A1
:104890000721986B40EA01459D63217A986B40EAB5
:1048A00001259D63E068010E986B08439863E068FA
:1048B000C0F307413C20C05C40EA11153C20C554C0
:1048C0000807050DDD87A089C0F30721D88F0843AD
:1048D000D887217B4D084020C55401254120C5546F
:1048E0000020BDE8F08100003C00002040000020D6
:1048F00008B500200090684600F084FA08B1FF2057
:1049000008BD0098C0F34320FAE710B50424FFF770
:10491000EFFF0446042C01D1002010BDFF2C01D173
:104920000220FAE70120F8E710B5102006F0C6FDD6
:1049300025490860102006F0C1FD244908600024C4
:10494000FFF756FDFFF76AFDFFF7EEFC00F0D8F821
:1049500004460CB1204610BD1C4801681A48006886
:1049600000F03AF804460CB12046F4E7012018495B
:1049700008750020086048608860C86008610846C3
:10498000FFF71EFD3CB9114802680F480168114845
:10499000FFF74AFE044634B90E49B1F85410080432
:1049A00000F016FA044624B94FF40060FFF7F2FD58
:1049B00004460548006805F0C7F90448006805F09A
:1049C000C3F92046C7E7000048000020440000204B
:1049D0009083002038830020F8B504460D46002659
:1049E00001200090FFF7C4FC10B925263046F8BD21
:1049F00040480068042824D000203F490860022075
:104A00004860C02088600020C8604FF48060086162
:104A10000846FFF737FDFCF7CBFB06460EB13046E4
:104A2000E5E70020FFF7ACFC20600420FFF7A8FCBE
:104A300060600820FFF7A4FCA0600C20FFF7A0FC3A
:104A4000E0602C48006858B12A480068012807D067
:104A500028480068062803D026480068022816D196
:104A6000002025490860032048604020886000201D
:104A7000C8604FF4806008610846FFF703FD69468F
:104A80000320FCF7D7FB06460EB13046AFE71948C6
:104A9000006804282AD0BDF8000018490860BDF855
:104AA000000000041449086009204860C0208860A4
:104AB0000020C8604FF4806008610846FFF7E2FC00
:104AC000FCF776FB06460EB1304690E70020FFF774
:104AD00057FC28600420FFF753FC68600820FFF7AC
:104AE0004FFCA8600C20FFF74BFCE8600026304626
:104AF0007DE700003C000020A8830020400000204B
:104B00002DE9F0410024002600250027A046B22010
:104B10005B4908750020086048608860C8600861CB
:104B20000846FFF74DFC0320FFF7C2FC0120FFF70A
:104B3000D7FB00205349086048608860C8604FF484
:104B4000806008610846FFF79DFCFCF781FA044687
:104B500014B12046BDE8F0814FF4D5704949086092
:104B600008204860402088600020C8604FF48060C2
:104B700008610846FFF786FCFCF7AAFB04462CB93F
:104B80000120414908604FF0804812E000203D4973
:104B9000086037204860402088600020C8604FF4DB
:104BA000806008610846FFF76DFC3720FCF766FA65
:104BB0000446002033490860372048604020886060
:104BC0000020C8604FF4806008610846FFF75AFC77
:104BD0003720FCF753FA0446002C4ED136E0002073
:104BE0002849086037204860402088600020C8605D
:104BF0004FF4806008610846FFF744FC3720FCF75B
:104C00003DFA04460CB12046A4E7204848EA0000DB
:104C10001C49086029204860402088600020C86046
:104C20004FF4806008610846FFF72CFCFCF7E6FAB9
:104C300004460CB120468DE70020FFF7A1FB064695
:104C4000012080EAD67080F001076D1C1FB94FF675
:104C5000FF708542C3D34FF6FF70854202D31B24F9
:104C6000204677E706F08040061E03D00220064962
:104C7000086002E001200449086020466AE700005D
:104C800090830020A88300203C00002000001080BA
:104C900010B51148006801280BD100200F49886029
:104CA00040F24C40C8600C20FCF7E8F90C49087051
:104CB00002E000200A4908704FF48070FFF70AFBF9
:104CC00000214FF48070FFF76BFB0120054908605D
:104CD0000348007810BD00004C0000200080014017
:104CE00050000020540000202DE9F04180460D4680
:104CF00014461E46002700202E4908702E490860E1
:104D000001202E49086000202D49C8622D48006806
:104D1000022801D104026D0A2B48046010202A49A0
:104D20004860402088600020C8604FF480600861BF
:104D30000846FFF7A7FB1020FCF7A0F9074617B1BC
:104D40003846BDE8F0814FF0FF302049086006FB8F
:104D500004F04860902088600220C860002008614C
:104D6000012048610846FFF7C7FA1748056012207E
:104D700015494860402088600020C8604FF480607A
:104D800008610846FFF77EFB1220FCF777F907461B
:104D90000FB13846D5E7012140F22A30FFF700FB7A
:104DA0000120FFF7A3FA06FB04F14046FFF78EFB54
:104DB0003846C6E750000020540000204C00002078
:104DC000008001403C000020A8830020BC8300201C
:104DD00070B5044600250A48046007200849486069
:104DE000402088600020C8604FF480600861084659
:104DF000FFF748FB0720FCF741F90546284670BD40
:104E0000A883002070B5044600250A4800880004E5
:104E10000949886040F24D40C8600D20FCF72EF92A
:104E200005460DB1284670BD0348406920602846FC
:104E3000F9E70000400000200080014010B5002488
:104E400000BF0B48FCF72AFB30B90A48006818B9C4
:104E5000094800780028F4D00748007810B10648C7
:104E6000007810BD40F2FF50FFF72EFA2046F8E719
:104E700000200010540000205000002010B5002435
:104E800000BF0B48FCF70AFB30B90A48006818B9A4
:104E9000094800780028F4D00748007810B1064887
:104EA000007810BD40F2FF50FFF70EFA2046F8E7F9
:104EB0000020001054000020500000202DE9F04197
:104EC00007460D461446002600202C4908702C4940
:104ED00008602C4908602C49C8622C4800680228E8
:104EE00001D104026D0A2A48046010202849486054
:104EF000402088600020C8604FF480600861084648
:104F0000FFF7C0FA1020FCF7B9F8064616B1304694
:104F1000BDE8F0811E48056018201D49486040200A
:104F200088600020C8604FF4806008610846FFF781
:104F3000A9FA1820FCF7A2F806460EB13046E7E7BA
:104F40004FF0FF30134908600846446090208860A5
:104F50000020C8600861012048610846FFF7CCF9CD
:104F6000012140F21A30FFF71BFA21463846FFF7BD
:104F7000DFFA0120FFF7BAF93046C9E750000020F8
:104F8000540000204C000020008001403C00002024
:104F9000A8830020BC8300202DE9F04180460F4605
:104FA00015461E4600240020454908704549086002
:104FB00001204549086000204449C862444800680F
:104FC000022801D105027F0A4248056010204149AC
:104FD0004860402088600020C8604FF4806008610D
:104FE0000846FFF74FFA1020FCF748F8044614B1C2
:104FF0002046BDE8F0813848008800043549086043
:1050000037204860402088600020C8604FF48060EE
:1050100008610846FFF736FA3720FCF72FF80446F8
:105020000CB12046E5E72B48066017202949486067
:10503000402088600020C8604FF480600861084606
:10504000FFF720FA1720FCF719F804460CB12046A8
:10505000CFE72048076019201E494860402088603B
:105060000020C8604FF4806008610846FFF70AFA24
:105070001920FCF703F804460CB12046B9E74FF0BD
:10508000FF301649086006FB05F0486090208860F4
:105090000020C8600861012048610846FFF72CF92C
:1050A000012140F21A30FFF77BF90120FFF71EF9CA
:1050B00006FB05F14046FFF73BFA204699E7000062
:1050C00050000020540000204C00002000800140CF
:1050D0003C000020A883002040000020BC8300206A
:1050E00008B501210420FEF7C9FF01210803FEF7DE
:1050F000C5FFE020ADF8000018208DF80300032064
:105100008DF8020069461148FEF7F2F9E0210F48D8
:10511000FEF782FA00200E4908804FF48270488022
:1051200000208880C88008814FF4007048810820E2
:1051300088810020C88105200882064800F0B8F860
:105140000121044800F09AF808BD00000008014061
:10515000240300200030014070B50546002405E01E
:10516000601C84B2C82C01DD002070BD02210E48F5
:1051700000F090F80028F3D029460B4800F096F88C
:10518000002405E0601C84B2C82C01DD0020ECE79F
:105190000121054800F07EF80028F3D0024800F015
:1051A00082F8C0B2E1E700000030014008B50121FB
:1051B0000820FEF763FF01218803FEF74FFF4FF43D
:1051C0006040ADF8000018208DF8030003208DF832
:1051D000020069461148FEF78BF94FF460410F4811
:1051E000FEF71AFA00200E4908804FF482704880BA
:1051F00000208880C88008814FF400704881082012
:1052000088810020C88105200882064800F050F8F7
:105210000121044800F032F808BD0000000C0140F4
:10522000240300200038004070B50546002405E046
:10523000601CC4B2962C01DD002070BD02210E4816
:1052400000F028F80028F3D029460B4800F02EF88B
:10525000002405E0601CC4B2962C01DD0020ECE7C0
:105260000121054800F016F80028F3D0024800F0AC
:105270001AF8C0B2E1E700000038004021B102880E
:1052800042F04002028004E002884FF6BF731A40E9
:10529000028070470246002013890B400BB10120A9
:1052A00000E000207047014688897047818170477F
:1052B00010B50022028802F441520B884C88234327
:1052C0008C882343CC8823430C8923434C89234374
:1052D0008C892343CC8923431A430280838B4FF26A
:1052E000FF74234083830B8A038210BD7047000044
:1052F0004FF6F8710140014A11607047505C004060
:1053000030B501460F4B1A78002014E003060E4C0E
:1053100004EB9353D3F8003C48F68F74234048F2D3
:1053200080042343C4B223430406074D05EB945481
:10533000C4F8003C401C9042E8D341F08003034C89
:10534000236030BD0C010020005000404C5C004048
:1053500010B54A105300054A126892B202EBC0021F
:10536000121D034C44F8123010BD0000505C004088
:105370000060004010B502460F48006880B200EBA4
:10538000C200801D0D4C04EB40033E290BDD48118B
:1053900001F01F040CB9441EA0B24FF4004444EACB
:1053A00080241C6007E0481001F001040CB1441C8B
:1053B000A0B284021C6010BD505C00400060004040
:1053C00030B50E4C04EB8003D3F8003C4BF68F74E1
:1053D00003EA040201F480530BB182F4805201F419
:1053E00000530BB182F4005242F4004343F08003B7
:1053F000024D05EB8004C4F8003C30BD0050004075
:1054000010B50B4B03EB8002D2F8002C4BF68F73D8
:1054100002EA030181F4805181F4005141F4004219
:1054200042F08002024C04EB8003C3F8002C10BD54
:105430000050004010B54A105200044B1B689BB24C
:1054400003EBC003024C44F8132010BD505C004035
:1054500000600040044A126892B202EBC002921C43
:10546000024B43F812107047505C0040006000404F
:1054700030B50E4C04EB8003D3F8003C48F6BF7403
:1054800003EA040201F010030BB182F0100201F0F4
:1054900020030BB182F0200242F4004343F080036A
:1054A000024D05EB8004C4F8003C30BD00500040C4
:1054B00010B50B4B03EB8002D2F8002C48F6BF73FB
:1054C00002EA030181F0100181F0200141F4004261
:1054D00042F08002024C04EB8003C3F8002C10BDA4
:1054E0000050004010B5074B03EB8002D2F8002CAF
:1054F00048F68F131A400A43024C04EB8003C3F8AA
:10550000002C10BD0050004010B500F001F810BD97
:105510000CB50020019000903348006840F48030C2
:105520003149086000BF3048006800F40030009046
:105530000198401C0190009818B90198B0F5A06F2F
:10554000F1D12948006800F4003010B1012000902A
:1055500001E0002000900098012843D12348006812
:1055600040F01000214908600846006820F0030060
:1055700008600846006840F0020008601A48406869
:10558000194948600846406848600846406840F449
:10559000806048600846406820F47C1048600846F7
:1055A000406840F4E81048600846006840F08070A9
:1055B000086000BF0C48006800F000700028F9D0B7
:1055C0000948406820F003000749486008464068E1
:1055D00040F00200486000BF0348406800F00C0043
:1055E0000828F9D10CBD0000001002400020024044
:1055F00010B50020FEF762FD0121C805FEF72EFD63
:1056000010BD000038B501242948006880B2001D93
:10561000284931F8100080B201EB40000090264884
:105620000068007A092832D0009800782249096879
:1056300008700098401C0090009800781E49096886
:1056400048700098401C0090009800EB44000090C7
:10565000009931F8020B0091FBF768FB16490968C5
:105660004880009800EB44000090009931F8020B4C
:105670000091FBF75BFB104909688880009800EBFC
:1056800044000090009800880B490968C8800120F8
:1056900009490968087208480068C08810B9FEF70F
:1056A000A3FB01E0FBF7ECFFFEF778FC38BD000040
:1056B000505C004000600040940000202DE9F0475D
:1056C00054480068007800F07F08B8F1000F0AD154
:1056D00050480068407A00F0DF004E49096848727F
:1056E0000020BDE8F087B8F1020F7CD1494800687E
:1056F000408818B947480068007908B10220F0E7EF
:10570000DFF8149143480068477927F080052C465C
:1057100040480068407900F0800038B13F4901EB13
:105720008400D0F8000C00F0300606E03B4901EBA5
:105730008400D0F8000C00F4405699F80000A8420C
:1057400004D91EB133480068807A08B90220C8E73E
:1057500007F0800080B1314901EB8400D0F8000CE3
:1057600000F0300010284BD1E0B2FBF743FCE0B270
:105770003021FFF77DFE43E0284901EB8400D0F89B
:10578000000C00F44050B0F5805F39D1E4B9244AF0
:1057900092F82C10E0B2FFF7EDFD204A02EB8401F5
:1057A000D1F8001C4BF68F7201EA020080F48050A1
:1057B00080F4005040F4004141F08001174B03EBAE
:1057C0008402C2F8001C1BE0E0B2FBF7F9FB134AAD
:1057D00002EB8401D1F8001C4BF68F7201EA020043
:1057E00080F4805000E011E080F4005040F400416B
:1057F00041F08001094B03EB8402C2F8001C00BF9A
:10580000084909684869804700206AE700BF02200C
:1058100067E70000940000200C01002000500040C9
:1058200010010020A000002010B504462CB9012072
:10583000064909680882002010BD05490968086802
:105840008047024800680A30F6E700009400002014
:10585000A000002010B5024606480068438A32B90D
:105860008888C01A034C24682082002010BD086874
:105870001844FBE79400002010B504462CB9012021
:10588000064909680882002010BD05490968886832
:105890008047024800680C30F6E7000094000020C2
:1058A000A000002010B504462CB90220394909682F
:1058B0000882002010BD0020374908803548006864
:1058C000007800F07F0018BB32490968487A00F080
:1058D000200131B13049097841F002012E4A11709E
:1058E00005E02D49097801F0FD012B4A117000F007
:1058F000400131B12849097841F00101264A11706F
:1059000005E02549097801F0FE01234A11703AE0CB
:1059100020480068007800F07F00012801D11E486F
:10592000C8E71C480068007800F07F00022828D1F2
:10593000184A1268517901F00F0001F080027AB123
:10594000164B03EB8002D2F8002C02F03002102A32
:1059500016D1114A127842F001020F4B1A700FE073
:105960000E4B03EB8002D2F8002C02F44052B2F549
:10597000805F05D1084A127842F00102064B1A7086
:1059800001E0002096E70649096808698047024857
:1059900090E70000940000208C00002000500040A0
:1059A000A000002010B50E480068C0780D49497865
:1059B000884213DC0A480068807878B90848006893
:1059C000808858B906480068C07805490968887217
:1059D0000549096848688047002010BD0220FCE79F
:1059E000940000200C010020A000002010B5074802
:1059F0000068407A40F02000044909684872044970
:105A00000968C8698047002010BD0000940000208C
:105A1000A00000202DE9F0412E480068467926F0CC
:105A200080073C462B480068407900F0800038B180
:105A3000294901EB8400D0F8000C00F0300506E0A5
:105A4000254901EB8400D0F8000C00F440552348B0
:105A50000078A04208D91F480068408820B91DB1CD
:105A60001C480068807A10B90220BDE8F08106F079
:105A70008000A0B1184A02EB8401D1F8001C48F65E
:105A8000BF7201EA020080F0100040F4004141F0D2
:105A90008001114B03EB8402C2F8001C14E00E4A93
:105AA00002EB8401D1F8001C4BF68F7201EA020070
:105AB00080F4805040F4004141F08001064B03EB3C
:105AC0008402C2F8001C00BF054909688869804744
:105AD0000020CAE794000020005000400C01002084
