:020000040800F2
:10000000000D00200D0200082D120008C90A00088A
:1000100019110008F3060008BF23000800000000C3
:10002000000000000000000000000000711800083F
:100030000D08000800000000ED150008291B00084D
:1000400027020008270200082702000827020008EC
:1000500027020008270200082702000811080008EC
:100060005508000827020008750800082702000844
:1000700027020008270200082702000827020008BC
:1000800027020008270200082702000827020008AC
:10009000270200082702000827020008270200089C
:1000A000270200082702000827020008270200088C
:1000B00027020008ED1B000827020008270200089D
:1000C000270200082702000827020008270200086C
:1000D000270200089D2100082702000827020008C7
:1000E000270200082702000827020008270200084C
:1000F000270200082702000827020008270200083C
:10010000270200082702000827020008270200082B
:10011000270200082702000827020008270200081B
:10012000270200082702000827020008270200080B
:1001300000F002F800F05AF80AA090E8000C82449F
:100140008344AAF10107DA4501D100F04FF8AFF27C
:10015000090EBAE80F0013F0010F18BFFB1A43F0A5
:10016000010318470C7A00002C7A00000A444FF073
:10017000000C10F8013B13F0070408BF10F8014B06
:100180001D1108BF10F8015B641E05D010F8016B4B
:10019000641E01F8016BF9D113F0080F1EBF10F8AF
:1001A000014BAD1C0C1B09D16D1E58BF01F801CBD2
:1001B000FAD505E014F8016B01F8016B6D1EF9D555
:1001C0009142D6D37047000000230024002500266A
:1001D000103A28BF78C1FBD8520728BF30C148BFAA
:1001E0000B6070471FB51FBD10B510BD00F05EF964
:1001F0001146FFF7F7FF03F089FF00F07CF903B425
:10020000FFF7F2FF03BC02F08FF9000009488047B6
:1002100009480047FEE7FEE7FEE7FEE7FEE7FEE7E8
:10022000FEE7FEE7FEE7FEE704480549054A064B00
:10023000704700002D1B000831010008000300205A
:10024000000D00200005002000050020704710B5BB
:100250004C1084EA530404D54042C1F1000138BF78
:10026000491E1B4204D55242C3F1000338BF5B1E36
:1002700000F06BF814F0804F04D04042C1F100014F
:1002800038BF491E14F0004F04D05242C3F100039E
:1002900038BF5B1E10BD40EA010310B59B070FD1AC
:1002A000042A0DD310C808C9121F9C42F8D020BAE6
:1002B00019BA884201D9012010BD4FF0FF3010BD9E
:1002C0001AB1D30703D0521C07E0002010BD10F86C
:1002D000013B11F8014B1B1B07D110F8013B11F832
:1002E000014B1B1B01D1921EF1D1184610BD02F02B
:1002F000FF0343EA032242EA024200F002B84FF051
:1003000000020429C0F0128010F0030C00F0A1805C
:10031000CCF1040CBCF1020F18BF00F8012BA8BFF0
:1003200020F8022BA1EB0C0100F093B85FEAC17C2E
:1003300024BF00F8012B00F8012B48BF00F8012B67
:100340007047704770477047704753EA020C00F0DF
:1003500069802DE9F04B4FF00006002B1FBFB3FA68
:1003600083F503FA05F424FA05F65E4012BF16433E
:10037000B2FA82F502FA05F4C5F120051EBF22FA91
:1003800005FC44EA0C04203556EA044C4FEA1444B8
:1003900018BF641C4FF000084FF00009904271EB49
:1003A000030C39D3002919BFB1FA81F701FA07F616
:1003B000B0FA80F700FA07F6C7F120071EBF20FA4F
:1003C00007FC46EA0C062037B6FBF4FCA7EB050752
:1003D000103F07F01F0BCBF120060CFA0BFB2CFA99
:1003E00006F644BFB3460026202FA4BF5E464FF05A
:1003F000000B5BEA060C08BF4FF0010B19EB0B0971
:10040000ABFB027C48EB0608C01B06FB02CC0BFBD7
:1004100003CC71EB0C01C1E70B460246414648464E
:10042000BDE8F08B13B54FF000004FF00001AFF3C3
:100430000080BDE81C40704710B500F02FF8006840
:1004400010BD10B5044600F029F8046010BD4FF04F
:10045000000200B5134694469646203922BFA0E814
:100460000C50A0E80C50B1F12001BFF4F7AF090720
:1004700028BFA0E80C5048BF0CC05DF804EB890011
:1004800028BF40F8042B08BF704748BF20F8022B54
:1004900011F0804F18BF00F8012B704700487047DB
:1004A0009C020020004870479C0200207546FFF720
:1004B000F9FFAE4605006946534620F00700854621
:1004C00018B020B5FFF7B0FEBDE820404FF00006A1
:1004D0004FF000074FF000084FF0000B21F007012C
:1004E000AC46ACE8C009ACE8C009ACE8C009ACE86F
:1004F000C0098D46704710B50446AFF30080204612
:10050000BDE81040FFF77BBE21B1826842F00102D6
:10051000826003E0826822F001028260704700007E
:1005200010B504461248844208D10121401501F05B
:100530008BF80021601501F087F817E00D48844220
:1005400008D10121001501F07FF80021201501F0EC
:100550007BF80BE00848844208D10121C80301F070
:1005600073F800214FF4004001F06EF810BD000058
:100570000024014000280140003C014001460020C9
:100580008A6802F004020AB1012000E000207047EE
:100590000146C86C80B270470246002013680B40C9
:1005A0000BB1012000E000207047014600208A685E
:1005B00002F008020AB1012000E0002070470000AC
:1005C00030B502460020002350680F4C20400D79C2
:1005D0000C6844EA05242043506090680B4C20408E
:1005E000D1E902542C434D7944EA450420439060FC
:1005F000D06A20F470000C7C641EE4B2234340EA0D
:100600000350D06230BD0000FFFEF0FFFDF7F1FFA8
:10061000F0B504460D4600200021092D11DDE068EB
:10062000A5F10A0606EB4607072606FA07F18843F6
:10063000A5F10A0606EB460603FA06F10843E06058
:100640000CE0206905EB4507072606FA07F1884309
:1006500005EB450603FA06F108432061072A0FDA85
:10066000606B561E06EB86071F2606FA07F18843C5
:10067000561E06EB860605FA06F10843606322E083
:100680000D2A0FDA206BD61F06EB86071F2606FA07
:1006900007F18843D61F06EB860605FA06F10843E4
:1006A000206310E0E06AA2F10D0606EB86071F2624
:1006B00006FA07F18843A2F10D0606EB860605FA55
:1006C00006F10843E062F0BD816841F008018160F5
:1006D000704721B1826842F4A002826003E0826820
:1006E00022F4A00282607047816841F004018160B9
:1006F000704700BFFEE7000010B5274800881421AE
:1007000090FBF1F02549087025492648006806F05D
:10071000A3F9044606F004F9000A2049487020496C
:100720002048006806F098F9044606F0F9F81B49DD
:1007300088701B491C48006806F08EF9044606F0D4
:10074000EFF8000A1549C87015491748006806F007
:1007500083F9044606F0E4F810490871104913487B
:10076000006806F079F9044606F0DAF8000A0B4949
:1007700048710B490D48006806F06EF9044606F012
:10078000CFF8064988710A4800880012C8710848E5
:100790000078087210BD0000AA000020400100206F
:1007A0000000204110010020140100201801002049
:1007B00002000020104880780F49497800EB0120A2
:1007C0000E4908800C4880790B49497900EB0120DB
:1007D00000B20B4908800848007A0749C97900EB44
:1007E000012000B2074908800348C07A00F00F00DA
:1007F00005490870704700004A010020AA00002047
:10080000AC000020AE000020B200002070470000C5
:1008100010B5022000F042F898B1072002F086FAE5
:1008200002210A4800F043F920B909480078401C29
:100830000749087006480078022802D100200449C0
:100840000870022000F024F810BD000000080140EC
:100850000100002010B5042000F020F820B1012094
:100860000349087003F058FB042000F011F810BD94
:100870001C01002010B5102000F010F810B101206C
:1008800002490870102000F003F810BD1C00002081
:10089000014908607047000014040140014600202F
:1008A0000022074B1B6803EA0102054B14331B6847
:1008B0000B4013B10AB1012000E000207047000096
:1008C00000040140002123498279002A3AD00A46D7
:1008D000126803689A430B461A600A1D126803687F
:1008E0009A430B1D1A60027911440A6803681A437F
:1008F0000A60184A0832126803689A43154B083395
:100900001A601A1D126803689A43124B0C331A605E
:100910004279102A0ED11A1F126803681A430D4B30
:1009200008331A601A1D126803681A43094B0C3306
:100930001A600DE00749427911440A6803681A43B6
:100940000A6005E0027911440A6803689A430A6064
:10095000704700000004014030B500228B071C0FD7
:100960000F2303FA04F20B4B8C1053F824309343FB
:10097000084C8D1044F8253023468C1053F8243051
:100980008C07240F00FA04F42343024C8D1044F822
:10099000253030BD080001402DE9F0410246002518
:1009A0000026002000230024002791F803C00CF04B
:1009B0000F0591F803C00CF0100CBCF1000F03D030
:1009C00091F802C04CEA050591F800C0BCF1000F97
:1009D00031D0146800202BE04FF0010C0CFA00F32A
:1009E000B1F800C00CEA03069E4220D183004FF00C
:1009F0000F0C0CFA03F7BC4305FA03FC4CEA0404A1
:100A000091F803C0BCF1280F06D14FF0010C0CFA8D
:100A100000FCC2F814C00AE091F803C0BCF1480F12
:100A200005D14FF0010C0CFA00FCC2F810C0401CBC
:100A30000828D1D31460B1F800C0BCF1FF0F34DD39
:100A4000546800202EE000F1080C4FF0010808FA6D
:100A50000CF3B1F800C00CEA03069E4221D18300DA
:100A60004FF00F0C0CFA03F7BC4305FA03FC4CEAF9
:100A7000040491F803C0BCF1280F05D100F1080C63
:100A800008FA0CF8C2F8148091F803C0BCF1480FC2
:100A900007D100F1080C4FF0010808FA0CF8C2F871
:100AA0001080401C0828CED35460BDE8F081024677
:100AB000002093680B400BB1012000E0002070473C
:100AC000416170470161704700BFFEE72DE9F041C9
:100AD0000546884616461F4600F05CF9002101EBEA
:100AE0004501C8B200F018F900F0A6F910B10120D4
:100AF000BDE8F081404600F00FF900F09DF908B123
:100B00000120F5E700F046F9012101EB4501C8B2EB
:100B100000F002F900F090F908B10120E8E70024A4
:100B20000DE0701EA04204DD012000F0B3F838553E
:100B300003E0002000F0AEF83855601CC4B2B442A7
:100B4000EFDB00F051F90020D2E72DE9F041054636
:100B50000E461746984600F01DF9002101EB4501AD
:100B6000C8B200F0D9F800F067F910B10120BDE873
:100B7000F081304600F0D0F800F05EF908B10120B5
:100B8000F5E700240AE018F8040000F0C5F800F0CA
:100B900053F908B10120EAE7601CC4B2BC42F2DBA1
:100BA00000F022F90020E2E710B5002010490860AB
:100BB0001048006820F470600E490860084600681C
:100BC00040F4A060086000200B49C1F888010220B1
:100BD00002F0D2F8012006490860032002F0CCF8A8
:100BE00000200549C1F88401012002F0C5F810BDBC
:100BF00084012242001001400000224208B5012178
:100C0000102000F011FD0620ADF8000014208DF832
:100C1000030003208DF8020069460748FFF7BCFE79
:100C200001200649086002F0A7F801200449C1F834
:100C3000880102F0A1F808BD0010014084012242A1
:100C40000000224210B500200F4908600F480068DC
:100C500020F470600D4908600846006840F4A06008
:100C6000086001200A49C1F88801022002F084F8D6
:100C7000012005490860032002F07EF800200449A5
:100C8000C1F8840110BD000084012242001001401F
:100C90000000224270B5054600241C48006820F47C
:100CA00070601A4908600846006840F48060086077
:100CB000002620E0002016490860032002F05CF8BE
:100CC00001201449C1F88401022002F055F86006A1
:100CD000040E0E488068C0F3800008B1601CC4B2E6
:100CE000012002F049F8002009490860012002F0C3
:100CF00043F8701CC6B2082EDCDB15B1FFF754FFB9
:100D000001E0FFF79FFF204670BD0000001001408A
:100D1000840122420000224270B504461A4800684D
:100D200020F47060184908600846006840F4A0602C
:100D30000860002015490860012002F01DF8002518
:100D40001FE004F0800020B101201049091D086057
:100D500003E000200D49091D0860022002F00CF894
:100D600001200A490860032002F006F80020084923
:100D7000C1F88401022001F0FFFF6006040E681C28
:100D8000C5B2082DDDDB70BD001001408401224298
:100D90000000224210B51148006820F470600F492D
:100DA00008600846006840F4A060086001200C4913
:100DB00008600C49C1F88401032001F0DDFF002028
:100DC00007490860042001F0D7FF00200549C1F859
:100DD0008401012001F0D0FF10BD0000001001408F
:100DE000880122420000224210B51048006820F419
:100DF00070600E4908600846006840F4A060086012
:100E000000200B4908600B49C1F88801042001F05B
:100E1000B3FF012006490860042001F0ADFF012066
:100E20000449C1F8880101F0A7FF10BD001001407E
:100E3000840122420000224210B5002414480068B8
:100E400020F47060124908600846006840F4806031
:100E5000086001200F49086001F08EFF01200E4953
:100E6000C1F8840101F088FF07E0601CC4B2FA2CCD
:100E700003DDFFF7B9FF012010BD05488068C0F30E
:100E800080000028F1D10349091F086000BFF3E783
:100E90000010014088012242000022422DE9F04763
:100EA0006F4AD1686F4AD06805F0D4FE6E49086079
:100EB0006B4A11696B4A106905F0CCFE6B490860FA
:100EC0006948006805F09CFB04460022684B05F069
:100ED00085F909D96448006805F092FB04460022B0
:100EE000644B05F041F803D80020634908700AE01C
:100EF0000120614908705C4801686048006805F09D
:100F0000ABFB5E4908605E495C48006805F070FE16
:100F100002D25B48594908605A495848006805F0B0
:100F200067FD02D2574855490860574801684E4846
:100F3000006805F08FFE064654480168304605F00B
:100F40008BFD04464C48007805F03EFD8146504834
:100F50000168484605F080FD074648480168384664
:100F600005F07AFD0646404801684A48006805F0E9
:100F700073FD8046314605F06FFB0546214605F0BE
:100F80006BFB454908603948006805F039FB0446A9
:100F90000022374B05F022F909D93448006805F0E2
:100FA0002FFB04460022334B04F0DEFF03D8002061
:100FB0003A4908700AE00120384908702B48016856
:100FC0003748006805F048FB354908602C4934482B
:100FD000006805F00DFE02D2294831490860294910
:100FE0002F48006805F004FD02D226482C4908600D
:100FF0002C4801681D48006805F02CFE06462A486A
:101000000168304605F028FD04462448007805F0C4
:10101000DBFC814625480168484605F01DFD074672
:101020001F480168384605F017FD06460F4801685D
:101030001F48006805F010FD8046314605F00CFBA6
:101040000546214605F008FB13494860064800683C
:101050000D4908600548006812490860BDE8F0873E
:101060008401002070010020800000208800002002
:1010700000805B4000805BC0900000202C000020BE
:101080000000C8430000C8C3840000207000002096
:101090006C000020680000209801002091000020D2
:1010A000300000208C0000207C0000207800002010
:1010B000740000201FB50121042000F0B5FA0420BF
:1010C000ADF8040028208DF8070001A91148FFF7AA
:1010D00063FC02210020FFF73FFC04200290002067
:1010E0008DF80C0008208DF80D0001208DF80E0001
:1010F00002A8FFF7E7FB08208DF8000001208DF81B
:1011000001008DF802008DF80300684600F0C2F877
:101110001FBD00000008014000BFFEE7384800780E
:1011200008BB00203749C860086137480088B0F51F
:10113000167F05DB344800883238334908800EE0DA
:10114000002032490860324908603249086048602E
:10115000886031490860314908602B4908800120C6
:101160002F49086002E000202D4908602D480078D2
:1011700005282FD12448008800EB4000142190FB63
:10118000F1F0B0F5477F04DB41F2B4401E4908801E
:1011900003E01D4800881C4908801B480088B0F502
:1011A0002F7F0DDC00201949086019490860194992
:1011B00008604860886018490860184908601EE0A7
:1011C0001148008840F6FC01884218DC00201149D3
:1011D000886014E0144880680A4988600020C8606C
:1011E00008610A4908600A4908600A4908604860BD
:1011F0008860094908600949086003490880704708
:101200000000002070010020AA0000202C00002017
:101210003000002098010020340000203800002019
:1012200080812142B200002084010020704700002C
:101230001FB50121102000F0F7F91020ADF80400CF
:1012400048208DF8070001A91148FFF7A5FB0421EC
:101250000220FFF781FB1020029000208DF80C0087
:101260000C208DF80D0001208DF80E0002A8FFF76C
:1012700029FB0A208DF8000001208DF801008DF86F
:1012800002008DF80300684600F004F81FBD00005E
:101290000010014070B5002100230F22C47804B370
:1012A000154C246804F4E064C4F5E064210AC1F13B
:1012B0000403CA40447804FA03F1847814402143BB
:1012C00009010E4C0678A155047804F01F0501248D
:1012D000AC4005786D11AD0005F1E025C5F8004181
:1012E00009E0047804F01F050124AC40044D0678A1
:1012F000761145F8264070BD0CED00E000E400E0FA
:1013000080E100E002490143024A11607047000099
:101310000000FA050CED00E02DE9F0476F4A116876
:101320006F4A106805F096FC6E4908606B4A516878
:101330006B4A506805F08EFC6B490860694800688C
:1013400005F05EF904460022684B04F047FF09D916
:101350006448006805F054F904460022644B04F028
:1013600003FE03D80020634908700AE001206149A8
:1013700008705C4801686048006805F06DF95E49D6
:1013800008605E495C48006805F032FC02D25B48A8
:10139000594908605A495848006805F029FB02D2AB
:1013A0005748554908605048006805F029F9044637
:1013B00000224E4B04F012FF09D94B48006805F09B
:1013C0001FF9044600224A4B04F0CEFD03D800204A
:1013D0004C4908700AE001204A49087042480168F7
:1013E0004948006805F038F94749086043494648CC
:1013F000006805F0FDFB02D24048434908604049BF
:101400004148006805F0F4FA02D23D483E490860C0
:101410003E4801683348006805F01CFC06463C481D
:101420000168304605F018FB04463248007805F0A4
:10143000CBFA814637480168484605F00DFB074660
:101440002D480168384605F007FB06462548016827
:101450003148006805F000FB8046314605F0FCF895
:101460000546214605F0F8F81D49C8602B4801687B
:101470001D48006805F0EEFB064629480168304625
:1014800005F0EAFA04461F48007805F09DFA814607
:1014900024480168484605F0DFFA07461A48016803
:1014A000384605F0D9FA06460F4801681E4800681C
:1014B00005F0D2FA8046314605F0CEF805462146C1
:1014C00005F0CAF806490861064800680F49086037
:1014D0000548006811490860BDE8F08784010020D4
:1014E000700100205400002058000020000030400F
:1014F000000030C064000020340000200000C8421A
:101500000000C8C265000020380000205C000020F8
:101510004C000020440000203C000020600000201F
:101520005000002048000020400000202DE9F0413C
:101530002248006805F064F806460022204B04F0BB
:10154000FFFA044604F0CAFA1E4908601E48006803
:1015500005F056F806461D4A1D4B04F0F1FA044604
:1015600004F0BCFA174948601A48006888601A49B4
:10157000B1F9000005F010FA0446184905F06CFABC
:101580001049C8601449B1F9020005F005FA044693
:10159000124905F061FA0B4908611148B0F90000E1
:1015A00005F0FAF90F4908600F48B0F9000005F09E
:1015B000F3F90C494860BDE8F081000010010020FB
:1015C0000000E03F8401002014010020B81E85EBDC
:1015D00051B8CE3F18010020F0000020E200FA3C94
:1015E000AC00002070010020AE0000207047000019
:1015F00001460020034A506820F4404008435060F0
:10160000704700000010024029B1064AD269024327
:10161000044BDA6104E0034AD2698243014BDA6188
:10162000704700000010024029B1064A9269024347
:10163000044B9A6104E0034A92698243014B9A6128
:10164000704700000010024029B1064AD2680243E8
:10165000044BDA6004E0034AD2688243014BDA604B
:10166000704700000010024030B500210022002425
:1016700000232D4D6D6805F00C0121B1042905D022
:10168000082923D105E0294D056022E0274D05609A
:101690001FE0254D6D6805F47012234D6D6805F44B
:1016A0008034022505EB92421CB9214D554305605B
:1016B0000BE01D4D6D6805F400351DB11C4D554303
:1016C000056002E0194D5543056002E0174D0560C5
:1016D00000BF00BF144D6D6805F0F0010909154DFC
:1016E0006B5C0568DD4045600F4D6D6805F4E06199
:1016F000090A104D6B5C4568DD4085600A4D6D68D8
:1017000005F46051C90A0B4D6B5C4568DD40C5604E
:10171000054D6D6805F44041890B074D6B5CC5684C
:10172000B5FBF3F5056130BD0010024000127A00F0
:1017300000093D002A0100203A01002008B50121DE
:1017400041F20400FFF770FFE020ADF80000182020
:101750008DF8030003208DF8020069461048FFF75A
:101760001BF9E0210E48FFF7ABF900200D49088076
:101770004FF48270488000208880C88008814FF430
:1017800000704881102088810020C88105200882CF
:10179000054800F04FF80121034800F031F808BD7A
:1017A000000801405E0100200030014070B5054690
:1017B000002405E0601CC4B2C82C01DD002070BD0F
:1017C00002210E4800F028F80028F3D029460B48E3
:1017D00000F02EF8002405E0601CC4B2C82C01DD26
:1017E0000020ECE70121054800F016F80028F3D0AE
:1017F000024800F01AF8C0B2E1E7000000300140F2
:1018000021B1028842F04002028004E002884FF6D3
:10181000BF731A40028070470246002013890B40B4
:101820000BB1012000E00020704701468889704715
:101830008181704710B50022028802F441520B8862
:101840004C8823438C882343CC8823430C8923432F
:101850004C8923438C892343CC8923431A43028038
:10186000838B4FF2FF74234083830B8A038210BD66
:10187000704710B500F002F810BD00000CB5002054
:10188000019000903348006840F48030314908608E
:1018900000BF3048006800F4003000900198401C00
:1018A0000190009818B90198B0F5A06FF1D12948BE
:1018B000006800F4003010B10120009001E0002029
:1018C00000900098012843D12348006840F01000A0
:1018D000214908600846006820F0030008600846B7
:1018E000006840F0020008601A48406819494860E2
:1018F0000846406848600846406840F48060486098
:101900000846406820F47C1048600846406840F46F
:10191000E81048600846006840F08070086000BF2A
:101920000C48006800F000700028F9D009484068B1
:1019300020F00300074948600846406840F0020074
:10194000486000BF0348406800F00C000828F9D147
:101950000CBD000000100240002002402DE9F047BD
:1019600000246148008800EB4000142190FBF1F94D
:10197000484605F011F880465C480168404605F08D
:1019800069F9074659484168384604F065FE06463D
:1019900056488168304605F05DF9054604F0C0FF01
:1019A00000B2534908805048008800EB40001421E1
:1019B00090FBF1F9484604F0EFFF80464B48016880
:1019C000404604F049FE074648484168384604F05E
:1019D00043FE064645488168304604F03DFE054614
:1019E00004F09EFF00B2424948803F48008800EB67
:1019F0004000142190FBF1F9484604F0CDFF054664
:101A00003A480168284604F027FE80463748416876
:101A1000404605F01FF9074634488168384605F00E
:101A200019F9064604F07CFF00B2314988802E483F
:101A3000008800EB4000142190FBF1F9484604F0C7
:101A4000ABFF804629480168404605F003F905468A
:101A500026484168284605F0FDF807462348816876
:101A6000384604F0F9FD064604F05AFF00B220495A
:101A7000C88000BF1CE01E4830F914001D49B1F9B0
:101A80000010884206DB1B48B0F90000184921F815
:101A900014000BE0164830F914001749B1F9001092
:101AA000884203DC0020124921F81400601CC4B2F3
:101AB000042CE0DB0E48008881B2104800F0C3FA25
:101AC0000B48408881B20D4800F0BFFA0848808872
:101AD00081B20A4800F0BBFA0548C08881B20748C5
:101AE00000F0B7FABDE8F087AA00002098010020B6
:101AF00024000020A4000020A600002000080040D0
:101B0000042808D14FF0E021096941F004014FF0A9
:101B1000E022116107E04FF0E021096921F00401A2
:101B20004FF0E022116170477047000010B5134874
:101B3000006840F0010011490860084640681049FB
:101B400008400E494860084600680E4908400B49A5
:101B500008600846006820F4802008600846406855
:101B600020F4FE0048604FF41F008860FFF781FEFC
:101B70004FF000600449086010BD000000100240F2
:101B80000000FFF8FFFFF6FE08ED00E07FB5044619
:101B90000D4601210220FFF737FDADF8045000206B
:101BA000ADF80600ADF80840ADF80A0001A90E48EE
:101BB00000F052FA012211460B4800F0DFF81D2018
:101BC0008DF8000001208DF8010000208DF8020042
:101BD00001208DF803006846FFF75CFB01210248F5
:101BE00000F0AFF87FBD00000004004010B50121F7
:101BF000134800F0B2F8F0B112480088401C1149B7
:101C0000088011480088401C0F4908800D48008852
:101C1000FA2805DB00200B49088001200B490870D9
:101C200009480088B0F5FA7F05DB002006490880E6
:101C30000120074908700121014800F07FF810BD1C
:101C4000000400401E0000202000002005000020AD
:101C50000400002030B589B004460D46012104205F
:101C6000FFF7D2FC01210820FFF7DEFC4FF4707073
:101C7000ADF8200018208DF8230001208DF82200F7
:101C800008A92648FEF788FEADF814500020ADF8EC
:101C90001600ADF81840ADF81A0005A9204800F06C
:101CA000DBF96020ADF804000120ADF8060000204B
:101CB000ADF80800ADF80A00ADF80C00ADF80E0064
:101CC000ADF81000ADF8120001A9154800F060F859
:101CD00001A9134800F0B2F801A9114800F00EF96B
:101CE00001A90F4800F064F908210D4800F09CF8A4
:101CF00008210B4800F0F4F80821094800F04EF9DB
:101D00000821074800F092F90121054800F00AF87F
:101D10000121034800F015F809B030BD000C014066
:101D20000008004021B1028842F08002028004E0F5
:101D300002884FF67F731A4002807047CA430282BE
:101D4000704721B1028842F00102028004E002885B
:101D50004FF6FE731A400280704730B502460020ED
:101D600000230024158A05EA0103958905EA010488
:101D700013B10CB1012000E0002030BD1AB18389FD
:101D80000B43838102E083898B438381704700008A
:101D900070B5002400220023058C4FF6FE763540F6
:101DA0000584028C8388048B4FF68F752C40B51EFA
:101DB0002C400D882C43751E2A400D892A434D88DE
:101DC0002A43144DA8420BD0134DA84208D0134DFE
:101DD000A84205D0124DA84202D0124DA84213D1FC
:101DE0004FF6F7752A404D892A434FF6FB752A4076
:101DF0008D882A434FF6FF652B404FF6FF552B4049
:101E00008D892B43CD892B4383800483CD888586A0
:101E1000028470BD002C01400034014000400140AC
:101E200000440140004801400A460021018B4FF662
:101E3000F7731940114301837047000070B5002407
:101E400000220023058C4FF6EF7635400584028C86
:101E50008388048B48F6FF752C404FF6FF452C40D5
:101E60000D884FF6FF7606EA05252C434FF6DF7501
:101E70002A400D8906EA05152A434D8806EA05150C
:101E80002A43154DA84202D0144DA8421DD14FF649
:101E90007F752A404D894FF6FF7606EA05152A43DD
:101EA0004FF6BF752A408D8806EA05152A434FF67E
:101EB000FF352B404FF2FF752B408D8906EA8505D3
:101EC0002B43CD8906EA85052B4383800483CD8887
:101ED0000587028470BD0000002C014000340140E1
:101EE0000A460021018B4FF2FF7319404FF6FF7332
:101EF00003EA0223194301837047000070B50024F0
:101F000000220023058C4FF6FF6635400584028CC5
:101F10008388848B4FF68F752C404FF6FC752C40D0
:101F20000D882C434FF6FF552A400D894FF6FF765A
:101F300006EA05252A434D8806EA05252A43154D5C
:101F4000A84202D0144DA8421DD14FF2FF752A407D
:101F50004D894FF6FF7606EA05252A434FF6FF35F1
:101F60002A408D8806EA05252A434EF6FF752B4048
:101F70004DF6FF752B408D8906EA05152B43CD895B
:101F800006EA05152B4383808483CD8885870284E8
:101F900070BD0000002C0140003401400A460021C1
:101FA000818B4FF6F773194011438183704700000E
:101FB00070B5002200230024058C4EF6FF763540D4
:101FC0000584038C8488828B48F6FF752A404FF67F
:101FD000FF452A400D884FF6FF7606EA05252A437D
:101FE0004DF6FF752B400D8906EA05352B434D88CC
:101FF00006EA05352B430B4DA84202D00A4DA842F4
:1020000008D14BF6FF752C408D894FF6FF7606EA16
:1020100085152C4384808283CD88A0F840500384AA
:1020200070BD0000002C0140003401400A46002130
:10203000818B4FF2FF7319404FF6FF7303EA0223BF
:102040001943818370478186704701877047818774
:102050007047A0F840107047002202881D4B98423C
:102060000ED01D4B98420BD0B0F1804F08D01B4BC7
:10207000984205D01A4B984202D01A4B984204D18C
:102080004FF68F731A404B881A43174B984207D06C
:10209000164B984204D04FF6FF431A40CB881A43A0
:1020A00002808B8883850B8803850A4B98420BD06E
:1020B000094B984208D00E4B984205D00D4B9842E0
:1020C00002D00D4B984201D10B7A03860123838203
:1020D00070470000002C0140003401400004004023
:1020E00000080040000C00400010004000140040B8
:1020F00000400140004401400048014010B500BFCD
:1021000002F0A6F80028FBD110480078012809D178
:1021100003F056FBFFF78CF80C480078401E0B4983
:10212000087002E0002009490870FFF7FFF9FFF787
:10213000F3F8FEF7B3FE00F045F9FEF7EFFFFFF707
:102140000DFC00200249087010BD0000A80000200E
:102150001C01002010B50C490C4803F069FB00F08D
:10216000400050B1FF200A4908700020094908606A
:10217000FEF720FBFEF7C0FA02E0012005490860E7
:1021800000200549087010BD400100204A010020D0
:1021900000000020848121421C00002010B540F284
:1021A00025511D4800F04AF810B31B4800F002F911
:1021B000C4B21A48008800F40040C8B91748008823
:1021C00000F4804060B10A2C03D00020134908803D
:1021D00020E01248008840F400401049088019E0CF
:1021E0000D2C06D10D48008840F480400B49088032
:1021F00010E00A480088C0F30D0009490C54074854
:102200000088401C0549088008460088C72801DD71
:102210000020088010BD0000003801402801002087
:10222000D401002021B1828942F40052828104E06D
:1022300082894DF6FF731A408281704770B502465D
:10224000002400230025002040F66A16B14200D188
:1022500000BFC1F3421501F01F03012606FA03F384
:10226000012D02D19689334006E0022D02D1168A53
:10227000334001E0968A33400C12012606FA04F43A
:102280001688344013B10CB1012000E0002070BD6D
:10229000F0B50346002400260025002040F66A170A
:1022A000B94200D100BF1846C1F3421401F01F0625
:1022B000012707FA06F5012C01D10C3004E0022CAD
:1022C00001D1103000E014301AB107682F430760C5
:1022D00002E00768AF430760F0BD00002DE9F0475A
:1022E00086B005460E460024A24600BFA146002740
:1022F000B08900B100BF2F462C8A4CF6FF70044015
:10230000F08804432C82AC894EF6F3100440B08868
:1023100031890843718908430443AC81AC8A4FF684
:10232000FF400440B0890443AC8201A8FFF79CF948
:102330001F48874202D1DDF810A001E0DDF80CA0B3
:10234000A88900F4004040B10AEBCA0000EB0A1073
:1023500031684900B0FBF1F807E00AEBCA0000EB76
:102360000A1031688900B0FBF1F86420B8FBF0F086
:1023700004012009642101FB1089A88900F40040B0
:1023800040B1322000EBC900B0FBF1F000F00700D3
:10239000044308E0322000EB09106421B0FBF1F0A7
:1023A00000F00F0004432C8106B0BDE8F087000068
:1023B0000038014001468888C0F30800704700BF1C
:1023C000FEE7000070B5134A9168134A906804F064
:1023D00041FC12490860124801681048006804F086
:1023E00039FC06460F480168304604F035FB0446C8
:1023F0000A4801680C48006804F02EFB0546214697
:1024000004F02AF909498860044800680449086012
:1024100070BD000084010020700100209C0000209D
:10242000A0000020980000209400002098010020C7
:10243000490050EAC12018BF04204A0D18BF40F0DF
:10244000010040F2FF72B2EB515F08BF40F00200A2
:10245000012808BF052070472DE9F0414F1E00EB11
:10246000C7010446D1E9000115461E4637F00602B1
:102470000DD02A46334603F0B3FD7F1E04EBC7039D
:10248000D3E9002303F05CFB37F00602F1D1022F01
:1024900025D0042F13D0062F18BFBDE8F0812A469F
:1024A000334603F09DFDD4E90A2303F049FB2A4695
:1024B000334603F095FDD4E9082303F041FB2A4697
:1024C000334603F08DFDD4E9062303F039FB2A4699
:1024D000334603F085FDD4E9042303F031FB2A469B
:1024E000334603F07DFDD4E9022303F029FB2A469D
:1024F000334603F075FDD4E90023BDE8F04103F055
:102500001FBB012204F04DBC03F01ABB002213468E
:102510001046114603F0D0BB024A0020110704F018
:1025200040BC000001FDFFFF00BF70472DE9FE4FDA
:1025300006460F460025684601F048FA002442E0AE
:1025400056F8240057F82410A0EB010ABAF1000F46
:1025500001DB514601E0CAF10001084604F01CFA13
:1025600083464FF08F4104F0E5F880465DF8240083
:10257000002104F0A1F916D05DF82410404604F0C3
:10258000D9F882464FF07E5104F064FB814629F071
:10259000004A0F48416A504604F02AFB12D201203B
:1025A000A04005430EE00A48C169404604F020FA05
:1025B00005D30748016A404604F01AFB02D2012005
:1025C000A0400543641C032CBADB2846BDE8FE8FFF
:1025D000606E000800B587B001214802FFF724F8BB
:1025E00001211020FFF720F84FF40040FFF700F81A
:1025F0000120ADF8040000208DF8070001A91B4858
:10260000FEF7CAF91A48FDF78BFF002002908DF8FB
:102610000C008DF80D004FF4602004900020059010
:1026200001208DF8180002A91148FDF7C9FF072302
:1026300001220A210E48FDF7EBFF01210C48FDF7AE
:1026400063FF0B48FEF740F800BF0948FDF7ADFFF8
:102650000028FAD10648FEF747F800BF0448FDF706
:102660008DFF0028FAD107B000BD00000010014026
:10267000002401402DE9F04D8D4F21F0004A86B035
:1026800005460C46BA452ADBAAEB070028430AD0C8
:102690008848824501DC1AD1CDB106B02846BDE894
:1026A000F04DFFF72EBF844A844B284603F098FC78
:1026B00007460E46824A834B2846214603F090FC8B
:1026C00006B03A463346BDE8F04D03F039BA012072
:1026D000FDF7B7FE06B0BDE8F04DFFF717BF7A482B
:1026E000824542DABAF1795F0BDA2846FFF7A0FE9D
:1026F000042808BFFFF710FF284606B02146BDE8B2
:10270000F08D2A460B46104603F06AFC83460246CB
:102710006E480E460B4606217844FFF79DFE5A464A
:10272000334603F05DFC804669488A465A46334684
:1027300004217844FFF790FE5A46334603F050FCDC
:1027400000223B4603F0FCF902460B464046514648
:1027500003F0B2FA2A46234603F042FC06B02A46AA
:102760002346BDE8F04D03F0EBB9284624F00041C4
:1027700000223D463B4603F067FD4FF0FF3204F078
:1027800010FB0646024653480F460B460621784486
:10279000FFF762FE32463B4603F022FCCDE9000122
:1027A0004D4832463B4604217844FFF755FE3246F9
:1027B0003B4603F015FC00222B4603F0C1F983468B
:1027C00002913046394603F013F9804643480D46DE
:1027D000504517DCDDE900015A46029B03F06CFA14
:1027E00042462B4603F0FCFB42462B4603F0A8F979
:1027F000012204F0D6FA304A304B03F017FE304A7B
:10280000304B4CE04FF0000A52460B46404603F076
:1028100097F9CDE9031052462B461046194603F0AE
:10282000DFFB32463B4603F00FFDDDE9033203F0E8
:1028300043FA06460F46DDE900015A46029B03F0C3
:102840003BFA8346009101223046394604F0A9FA4A
:10285000194A1A4B03F0F8FC06460F46012240467F
:10286000294604F09EFA5A46009B03F0B9FB324613
:102870003B4603F0DBFD06460F4601225046294643
:1028800004F08FFA0E4DDFF858802A46434603F0D5
:10289000DBFC32463B4603F0D7FC2A46434603F0B6
:1028A000D3FC002CD8BF81F0004106B0BDE8F08D0C
:1028B0000000F03F0000F07F075C143326A6913C37
:1028C000182D4454FB21F93F0000E03F6453000001
:1028D0007A530000EE520000045300003333EF3F00
:1028E000FB21E93F2DE9F84F04460D4621F0004059
:1028F00000917349814211DC7249884201DC06D1A2
:102900002CB120462946BDE8F84FFFF7FABD6E48C6
:10291000002DCCBF6D496E49BDE8F88F6D498142ED
:1029200011DD6D498142D8BF4FF0FF366DDD204685
:102930002946FFF77DFD042808BFFFF7EDFD20467F
:102940002946BDE8F88F6549654F25F0004581426D
:1029500033DD6449814219DD002632464FF0804361
:102960002046294603F0ECF880468A46012220469C
:10297000294604F016FA00223B4603F057FD424672
:10298000534603F099F904460D463EE00126002225
:10299000BA463B462046294603F0D2F880460F4609
:1029A000002253462046294603F040FD42463B465E
:1029B00003F082F904460D4627E04B4981421BDDB6
:1029C000DFF828A10226002253462046294603F0BC
:1029D00007FB00223B4603F0B3F880460F46002277
:1029E00053462046294603F021FD42463B4603F06C
:1029F00063F904460D4608E0032622462B460020D4
:102A00003B4903F059F904460D4622462B46104631
:102A1000194603F0E5FA8B46824602460B4603F060
:102A2000DFFA07460246334888460B4606217844BB
:102A3000FFF712FD52465B4603F0D2FA82462E485B
:102A40008B463A46434605217844FFF705FD3A4652
:102A5000434603F0C5FA02460B46002E504659463F
:102A60000CDA03F06DF822462B4603F0B9FA01B0F8
:102A700022462B46BDE8F04F03F0E6BB03F060F8BA
:102A800022462B4603F0ACFA1C4A7A4402EBC603FA
:102A9000D3E9002303F0CAFC22462B4603F0C6FC10
:102AA000174A7A4402EBC603D3E9002303F0CCFBB8
:102AB000009A002AB8BF81F00041BDE8F88F0000FD
:102AC000000010440000F07F182D4454FB21F93F12
:102AD000FB21F9BF0000DC3F0000203E0000F33F77
:102AE0000000F03F0000E63F008003400000F83F98
:102AF0000000F0BF06510000C4500000625000000A
:102B00002A5000002DE9F04D9446CCF1000423F04A
:102B100000464CEA0404524F46EAD4749A4688466A
:102B200021F00042BC4206D8454240EA050442EA90
:102B3000D474BC4204D9BDE8F04D6246FFF7E4BC52
:102B4000AAF14055A5F17F6555EA0C040BD002248B
:102B500004EAAA74434DDFF810E144EAD87452EA5B
:102B6000000B04D00CE0BDE8F04DFFF7BBBE002C1D
:102B700014BF012CBDE8F08D022C30D0032C32D0D4
:102B800056EA0C0B0AD0BE4220D1BA4209D126F037
:102B9000804622F080423346114617E000291ADBB6
:102BA00025E0DFF8C8B0FB44002C04BFDBE90001DE
:102BB000BDE8F08D012C02BFDBE9000181F000418E
:102BC000BDE8F08D022C0AD0032C0CD0BA4212D1F1
:102BD000B8F1000F0BDA23482549BDE8F08D2846EF
:102BE0002449BDE8F08D28467146BDE8F08D1D48AA
:102BF0002149BDE8F08D921B12153C2AC4BF19482B
:102C00001D490EDCBAF1000FBEBF12F13C0F0020CF
:102C1000014606DB624603F04FF821F00041FFF762
:102C200061FE002C08BFBDE8F08D012C04BF81F0CF
:102C30000041BDE8F08D114A114B022C07D003F082
:102C4000F5FB2A46BDE8F04D0A4B03F0EFBB03F05D
:102C5000EDFB2A46BDE8F04D064B03F0F5BA000047
:102C60000000F07F182D4454FB2109C0BE4F000026
:102C7000FB21F9BFFB210940FB21F93F075C14331D
:102C800026A6A13C2DE9F0410446E07800F0C006FC
:102C9000E07800F03F05607800F0010098B1EF1097
:102CA0002846E91705EB5171C910A5EBC101491C74
:102CB00001F0FF080B48006820B10A48414602684D
:102CC0003846904700BF607800F0080030B10548F2
:102CD000406818B1B011034A516888470020BDE828
:102CE000F0810000A401002010B56FF00400FEF791
:102CF00007FF0A4800680A49B0FBF1F0094908706B
:102D00000846007800EB4001C1EBC0104FF6FF71A0
:102D100001EAC0000449088010BD0000080000203E
:102D200000127A001E010020200100200146114AF5
:102D300012884A434FF0E0235A6100229A611A46F2
:102D4000126942F001021A6100BF4FF0E0221069DF
:102D500000F001021AB100F48032002AF5D04FF0E1
:102D6000E022126922F001024FF0E0231A610022F2
:102D70009A617047200100200146114A12784A43A7
:102D80004FF0E0235A6100229A611A46126942F01C
:102D900001021A6100BF4FF0E022106900F0010249
:102DA0001AB100F48032002AF5D04FF0E022126907
:102DB00022F001024FF0E0231A6100229A6170476D
:102DC0001E01002038B5044664B120208DF80000B3
:102DD00028208DF8010030208DF8020038208DF871
:102DE000030004E0A32204216846FDF780FA6A4646
:102DF000042140F69E2002F013FC01F0FDFF38BDD7
:102E00003EB5044602208DF80000CA208DF801006E
:102E1000E3208DF8020009208DF803006A460421A2
:102E2000682002F0FDFBA3208DF8000004F04000B4
:102E300048B1C0208DF80100C8208DF80200C220E2
:102E40008DF8030006E0A3208DF801008DF8020044
:102E50008DF8030004F4C07048B1C4208DF804005C
:102E6000CC208DF80500C6208DF8060006E0A320D2
:102E70008DF804008DF805008DF80600A3208DF86C
:102E800007008DF808008DF809006A460A2140F60F
:102E9000A72002F0C5FB04F0030018B120208DF834
:102EA000000002E0D8208DF800006A46012140F6BB
:102EB000B62002F0B5FB04F0200018B1012000F0AC
:102EC000ADF802E0002000F0A9F804F4C07008B3E7
:102ED00004F4807060B1B2208DF800008B208DF872
:102EE0000100B6208DF802009B208DF803000BE056
:102EF000B0208DF8000080208DF80100B4208DF8FE
:102F0000020090208DF803006A46042140F6A220BA
:102F100002F086FB04F0010020B3F8208DF80000D9
:102F20006A4601214FF40B6002F07AFBFA21072078
:102F300000F02CFC072000F0F3FB012000F013FC54
:102F4000642000F0F3FC4FF4FA7000F002FDC82199
:102F5000304800F0A3FB282000F0BCFB0A2000F062
:102F6000CCFB08E0D8208DF800006A4601214FF420
:102F70000B6002F055FB04F0020018B1D9208DF867
:102F8000000002E0D8208DF800006A46012140F2DE
:102F90003D7002F045FB04F0040018B1012000F080
:102FA00069F802E0002000F065F804F0100018B1A4
:102FB0000120FFF707FF02E00020FFF703FF44F0C6
:102FC00008001549488101F017FF00201249887355
:102FD00004F0400018B10846807B801D887304F41B
:102FE000C07020B10C48807B801D0B49887304F0B1
:102FF000140020B10848807B10300749887304F022
:10300000030020B10448807B001D03498873002021
:103010003EBD000009E3CA02A40100203EB50446FB
:103020006CB10EA1D1E900208968CDE900200291A0
:103030006A4609214FF4976002F0F2FA3EBD0AA2F7
:10304000D2E900109268CDE9010200916A46092197
:103050004FF4976002F0E4FAF0E70000B8AAB38DED
:10306000B4980D355D000000B8AAAAAAB088C3C5FF
:10307000C700000038B5044664B1C0208DF80000D8
:10308000C2208DF80100C4208DF80200C6208DF802
:10309000030004E08B2204216846FDF728F96A4604
:1030A000042140F6982002F0BBFA01F0A5FE38BDDD
:1030B00010B5C8234FF48062024940F6F63001F0A3
:1030C00033FC10BD886E00082DE9F04F8DB0074627
:1030D000884615469946DDE9166B002400203080AD
:1030E0006B49887B5A4605A901F0E6FD18B1601EC0
:1030F0000DB0BDE8F08F6648807A00F0140000281B
:1031000067D09DF8140000069DF8151040EA0140B4
:103110009DF8161040EA01209DF81710084328601A
:103120009DF8180000069DF8191040EA01409DF82E
:103130001A1040EA01209DF81B10084368609DF8B2
:103140001C0000069DF81D1040EA01409DF81E106D
:1031500040EA01209DF81F100843A8609DF8200058
:1031600000069DF8211040EA01409DF8221040EA37
:1031700001209DF823100843E86004F11000C4B258
:10318000286800140190686800140290A868001470
:103190000390E8680014049001984043029901FBF1
:1031A0000100039901FB0100049901FB010ABAF136
:1031B000706F02DBBAF1885F05DD01F01DFE0020B3
:1031C0003080401E94E7B6F9000040F480703080F3
:1031D00000BF2F48807A00F0400020B305A9601C92
:1031E000085C095D40EA012000B2A8F8000005A9CA
:1031F000E01C095C05AAA01C105C41EA002000B29A
:10320000A8F8020005A9601D095C201D105C41EAB8
:10321000002000B2A8F80400A01DC4B2B6F9000056
:1032200040F0080030801A48408900F4C07008B3AC
:1032300005A9601C085C095D40EA012000B23880E5
:1032400005A9E01C095C05AAA01C105C41EA00204D
:1032500000B2788005A9601D095C201D105C41EA60
:10326000002000B2B880A01DC4B2B6F9000040F042
:10327000700030800648807A00F0030018B105A97C
:103280000819FFF7FFFC484600F0FAFB00202FE783
:10329000A401002070B588B0064601A801F0C2F96B
:1032A000BDF804000021C90341EA5045C403444865
:1032B000007A00F0030056F8200005904048007A9C
:1032C00000F0040010B10598404205903C48007A97
:1032D000C0F3C10056F8200006903948007A00F08B
:1032E000200010B10698404206903548007AC0F39D
:1032F000811056F8200007903148008900F4807052
:1033000010B10798404207900598C117A0FB04230D
:1033100001FB043100FB0510810041EA9270059029
:103320000698C117A0FB042301FB043100FB051024
:10333000810041EA927006900798C117A0FB042310
:1033400001FB043100FB0510810041EA92700790F7
:103350000598000E8DF808000598000C8DF80900FE
:103360000598000A8DF80A000598C0B28DF80B0088
:103370000698000E8DF80C000698000C8DF80D00D4
:103380000698000A8DF80E000698C0B28DF80F005E
:103390000798000E8DF810000798000C8DF81100AA
:1033A0000798000A8DF812000798C0B28DF8130034
:1033B00002AA0C214FF4257002F032F908B070BD5A
:1033C000A401002030B585B0044616A207CA02AB9E
:1033D00007C3C82C03DD4FF0FF3005B030BDC82057
:1033E00090FBF4F0401E85B2280A8DF80000E8B288
:1033F0008DF801006A46022140F2162002F010F911
:1034000010B14FF0FF30E8E702AA0C2140F6C120CE
:1034100002F006F910B14FF0FF30DEE70448848176
:103420000020DAE7FEF2ABC4AAF1DFDFBBAFDFDFDB
:10343000A40100201FB504464848007A00F00300AC
:1034400054F8200001904548007A00F0040010B1C3
:103450000198404201904148007AC0F3C10054F8FD
:10346000200002903D48007A00F0200010B1029840
:10347000404202903948007AC0F3811054F820008D
:1034800003903648008900F4807010B103984042E0
:1034900003903349019880FB0101800F40EA8100CD
:1034A00001902F49029880FB0110820042EA91703E
:1034B00002902B49039880FB0110820042EA917030
:1034C00003900198000E8DF800000198000C8DF813
:1034D00001000198000A8DF802000198C0B28DF831
:1034E00003006A4604214FF4747002F099F818B191
:1034F0004FF0FF3004B010BD0298000E8DF80000B0
:103500000298000C8DF801000298000A8DF8020064
:103510000298C0B28DF803006A4604214FF475701A
:1035200002F07EF810B14FF0FF30E3E70398000E91
:103530008DF800000398000C8DF801000398000A34
:103540008DF802000398C0B28DF803006A4604218A
:103550004FF4767002F064F8CCE70000A40100207C
:1035600009E3CA0210B586B0044647A0006803907C
:1035700046A00068029046A00068019045A000683F
:10358000009004F0030003A9085C8DF8140003A860
:10359000C4F3C101405C8DF8150003A8C4F3811188
:1035A000405C8DF8160004F0030002A9085C8DF859
:1035B000100002A8C4F3C101405C8DF8110002A8FC
:1035C000C4F38111405C8DF8120005AA032140F27A
:1035D000264002F025F818B14FF0FF3006B010BDBC
:1035E00004AA032140F22A4002F01AF810B14FF069
:1035F000FF30F3E7019805900098049004F0040070
:1036000058B19DF8140040F001008DF814009DF8A9
:10361000100040F001008DF8100004F0200058B1B7
:103620009DF8150040F001008DF815009DF811007F
:1036300040F001008DF8110004F4807058B19DF83D
:10364000160040F001008DF816009DF8120040F0C1
:1036500001008DF8120005AA03214FF4886001F0E3
:10366000DFFF10B14FF0FF30B8E704AA032140F2AA
:10367000314001F0D5FF10B14FF0FF30AEE7064802
:1036800004810020AAE700004CCD6C000CC92C007E
:103690003656760026466600A4010020F8B5054699
:1036A0000E464FF47A7095FBF0F000FB06F4200E06
:1036B0008DF80000200C8DF80100200A8DF8020022
:1036C000E0B28DF803006A4604214FF4AE7001F0B9
:1036D000A7FFF8BD38B50446052094FBF0F084B28E
:1036E00020128DF80000E0B28DF801006A46022138
:1036F0004FF4AD7001F094FF38BD38B50446052095
:1037000094FBF0F084B220128DF80000E0B28DF846
:1037100001006A4602214FF4AC7001F081FF38BD10
:1037200038B504460020009004F0010020B19DF857
:10373000000040F03000009004F0020020B19DF83D
:10374000000040F00C00009004F0040020B19DF84F
:10375000000040F0030000906A4601214FF4A4707D
:1037600001F05EFF38BD38B50446012C01DA0124B2
:1037700002E0042C00DD0424601EC0B200906A4602
:10378000012140F24F1001F04BFF38BD2DE9FC47FD
:1037900006460F4606F0070010B1B7F5C86F03DD07
:1037A0004FF0FF30BDE8FC87384603F00DF9814645
:1037B000594902F0BFFF8046684600F00DFF9DF8B2
:1037C0000000022806D0042816D0082826D0102889
:1037D00048D135E04FF08D41404603F03DF9814638
:1037E00003F0BAF884B24D49404603F035F98146FA
:1037F00003F0B2F885B238E04FF08C41404603F058
:103800002BF9814603F0A8F884B24549404603F0FD
:1038100023F9814603F0A0F885B226E04FF08B41F2
:10382000404603F019F9814603F096F884B23D4909
:10383000404603F011F9814603F08EF885B214E09A
:103840004FF08A41404603F007F9814603F084F8BF
:1038500084B23549404603F0FFF8814603F07CF816
:1038600085B202E04FF0FF309CE700BF20128DF8D8
:103870000400E0B28DF8050028128DF80600E8B2C9
:103880008DF8070006F00100A0B101AA02214FF453
:10389000EA7001F0C5FE10B14FF0FF3082E70DF184
:1038A000060202214FF4927001F0BAFE10B14FF0FF
:1038B000FF3077E706F00200A0B101AA02214FF421
:1038C000EC7001F0ADFE10B14FF0FF306AE70DF182
:1038D000060202214FF4947001F0A2FE10B14FF0E5
:1038E000FF305FE706F00400A0B101AA02214FF407
:1038F000EE7001F095FE10B14FF0FF3052E70DF180
:10390000060202214FF4967001F08AFE10B14FF0CA
:10391000FF3047E7002045E70000484300004046ED
:103920000000C045000040450000C04438B50446D2
:10393000052094FBF0F085B228128DF80000E8B263
:103940008DF801006A4602214FF4EF7001F068FE25
:1039500038BD38B50446052094FBF0F085B2281236
:103960008DF80000E8B28DF801006A4602214FF49C
:10397000ED7001F055FE38BD0EB501210846FDF78A
:1039800053FE00F07FFB01210020FCF7E5FF022041
:10399000019000208DF808000C208DF8090001200E
:1039A0008DF80A0001A8FCF78DFF07208DF80000B4
:1039B00002208DF8010000208DF8020001208DF812
:1039C00003006846FDF766FC0EBD00007CB50546A9
:1039D00028494968087801AB04220D21FDF776F8E3
:1039E00008B107207CBD9DF80700C0F301109DF8C9
:1039F000041001F0E00140EAE1008DF800009DF8BC
:103A00000700C0F381009DF8051001F0E00140EAD5
:103A1000E1008DF801009DF8070000F003009DF81B
:103A2000061001F0E00140EAE1008DF802000024F8
:103A30001CE01DF8040018B9002045F8240013E02C
:103A40000D4845F8240006E055F824000B4903F022
:103A500003F845F824001DF80400401EC0B20DF81C
:103A600004000028F0D100BF601CC4B2032CE0DBCE
:103A70000020B7E7B40000207B14AE3E1D5A843FFF
:103A80007047000010B501210648FCF722FE00BF78
:103A900002210448FCF780FD0028F9D00148FCF71A
:103AA00077FD10BD002401402DE9F04F87B0054699
:103AB0000C46914601208DF8100000208DF8110071
:103AC000FE4A1268917CFD4A5268107804AB0222CB
:103AD000FDF73BF820B14FF0FF3007B0BDE8F08FA5
:103AE000C820FFF723F900208DF81000F34A126870
:103AF000D17BF24A5268107804AB0122FDF725F819
:103B000010B14FF0FF30E8E7EC4A12685179EB4A08
:103B10005268107804AB0122FDF717F810B14FF08E
:103B2000FF30DAE7E54A1268917CE44A526810787F
:103B300004AB0122FDF709F810B14FF0FF30CCE7DC
:103B4000DE4A1268D17DDD4A5268107804AB01224A
:103B5000FCF7FBFF10B14FF0FF30BEE7D74A126809
:103B60001179D64A5268107804AB0122FCF7EDFFB8
:103B700010B14FF0FF30B0E70C208DF81000CF4AA5
:103B800012681179CD4A5268107804AB0122FCF713
:103B9000DCFF10B14FF0FF309FE70F20FFF7C6F8B2
:103BA000C648806A407A8DF81000C44A126891783D
:103BB000C24A5268107804AB0122FCF7C6FF10B16C
:103BC0004FF0FF3089E7BD48806A007A8DF8100019
:103BD000BA4A12685178B94A5268107804AB012287
:103BE000FCF7B3FF10B14FF0FF3076E7B9F1000FEB
:103BF00007D0B248806A807A40F0E0008DF810006B
:103C000004E0AE48806A807A8DF81000AB4A1268F2
:103C10009179AA4A5268107804AB0122FCF795FF0B
:103C200010B14FF0FF3058E7B9F1000F07D0A348AB
:103C3000806AC07A40F0E0008DF8100003E0A048F0
:103C4000C07A8DF810009D4A1268D1799B4A52685B
:103C5000107804AB0122FCF778FF10B14FF0FF3071
:103C60003BE7B9F1000F02D0C820FFF75FF8402012
:103C70008DF81000914A12681179904A52681078B4
:103C800004AB0122FCF761FF10B14FF0FF3024E7D5
:103C900078208DF81000894A12685179874A526855
:103CA000107804AB0122FCF750FF10B14FF0FF3049
:103CB00013E783498889FFF739F800208DF8100051
:103CC0007E4A126851797D4A5268107804AB01220D
:103CD000FCF73BFF10B14FF0FF30FEE6774A126869
:103CE000917A764A5268107804AB0222FCF7EEFE15
:103CF00010B14FF0FF30F0E69DF811009DF8101064
:103D000040EA012B0C209BFBF0F0C6B20020A8601B
:103D100068602860A06060602060824665E0674A55
:103D20001268D17A654A5268107804AB0C22FCF70D
:103D3000CDFE10B14FF0FF30CFE69DF811009DF899
:103D4000101040EA012000B2ADF808009DF8130001
:103D50009DF8121040EA012000B2ADF80A009DF86B
:103D600015009DF8141040EA012000B2ADF80C00D7
:103D7000BDF90810206808442060BDF90A10606889
:103D800008446060BDF90C10A0680844A0609DF86C
:103D900017009DF8161040EA012000B2ADF80000AF
:103DA0009DF819009DF8181040EA012000B2ADF806
:103DB00002009DF81B009DF81A1040EA012000B295
:103DC000ADF80400BDF90010286808442860BDF96A
:103DD0000210686808446860BDF90410A8680844C7
:103DE000A8600AF1010000F0FF0AB24597DB3448F1
:103DF000D0F800C02868C117090441EA104107043F
:103E0000624600233846FCF722FA32460023CDE909
:103E10000201FCF71CFA28602948D0F800C0686845
:103E2000C117090441EA10410704624600233846DD
:103E3000FCF70DFA32460023CDE90201FCF707FA40
:103E400068601F48D0F800C0A868C117090441EA9B
:103E500010410704624600233846FCF7F8F9324661
:103E60000023CDE90201FCF7F2F9A8601448D0F86C
:103E700004C02168C817000440EA11480F046246D4
:103E8000002338464146FCF7E2F932460023CDE9EB
:103E90000201FCF7DCF920600948D0F804C0606832
:103EA000C117090441EA104107046246002338465D
:103EB000FCF7CDF93246002304E00000B4000020F6
:103EC000606E0008CDE90201FCF7C1F9606011489D
:103ED000D0F804C0A068C117090441EA10410704E2
:103EE000624600233846FCF7B2F932460023CDE99A
:103EF0000201FCF7ACF9A060A068002804DDA0680E
:103F0000A0F58030A06003E0A06800F58030A060DC
:103F10000020E2E5606E000801200149C87070478A
:103F2000B40100202DE9FC5F06460F4600253D49FF
:103F30004968087801AB03220D21FCF7C7FD10B1D9
:103F40000720BDE8FC9F9DF8040000F01F008DF8DD
:103F500004009DF8050000F01F008DF805009DF895
:103F6000060000F01F008DF80600002456E056F809
:103F7000240057F82410A0EB010BBBF1000F01DB6C
:103F8000594601E0CBF10001084602F005FD4FF073
:103F90008F41009002F0CEFB814601A8005D68B31E
:103FA0002149086802F010FD834659461F4802F077
:103FB000C1FB804604E01E49404602F04DFD8046AC
:103FC00001A8005D401EC0B201A908550028F2D129
:103FD0004146484602F0AEFB83464FF07E5102F068
:103FE00039FE82462AF0004B0F488169584602F09C
:103FF000FFFD12D20120A04005430EE00A480169EE
:10400000484602F0F5FC05D307484169484602F0EE
:10401000EFFD02D20120A0400543641C032CA6DB67
:1040200028468EE7B4000020606E000800B04C45C2
:1040300054E3853F014691F90020002A01DD00206C
:104040001EE091F90020002A01DA042018E091F91D
:104050000120002A01DD012012E091F90120002A4F
:1040600001DA05200CE091F90220002A01DD02208E
:1040700006E091F90220002A01DA062000E007207C
:104080007047000008B501210420FDF7CDFA022099
:10409000ADF8000048208DF8030069460148FCF7A0
:1040A0007BFC08BD0008014008B501210820FDF790
:1040B000BBFA0120ADF8000010208DF803000220AB
:1040C0008DF8020069461048FCF766FC0220ADF846
:1040D000000069460C48FCF75FFC4FF48060ADF8C7
:1040E000000069460848FCF757FC01210648FCF728
:1040F000E9FC02210448FCF7E5FC4FF4806102482A
:10410000FCF7E0FC08BD0000000C01404FF4A0608B
:10411000FDF7F8F8FEF7E8FD4FF4E13001F08EFC12
:10412000FFF72AFCFFF7C0FFFEF754FA01F0F2FB9D
:1041300040F2CF216320FDF729FD092140F21F3015
:10414000FDF788FDFCF75AFD00F0EAF9FCF7B2FF35
:1041500037E01C48007830B100201A490870FFF79A
:1041600091FC1949088019480078002805DD174896
:104170000078401E1549087002E0002013490870BD
:104180001348007808B1FDF7B9FF1248007810B164
:10419000FDF7E0FF02E001200F4908600F480078BA
:1041A00060B100200D4908700B482430006808B940
:1041B000012000E000200849243108600120FEF7BA
:1041C000B5FDC6E705000020020000200000002029
:1041D0001C0100201C0000208481214204000020DA
:1041E00070B50446002624F00104184890F8240015
:1041F00008B1002070BD1548807A10B94FF0FF302B
:10420000F8E71248057C807A204010490874084677
:10421000007CA04202D04FF0FF3600E0002614B927
:104220000A48007D18B1012001F082FA02E0002066
:1042300001F07EFA3CB100F0DFFD20B103480574C7
:104240004FF0FF30D6E73046D4E70000B40000203E
:104250002DE9F04F89B0A348C07800287DD0A1484F
:1042600040780028FAD0A048A049A14BA14ACDE946
:104270000010A149A148FEF727FF18B1012009B09D
:10428000BDE8F08F9848007810B900209549C870B3
:104290009648008800F4807000287CD09549086812
:1042A00002F07AFB04464FF09D4102F043FA944934
:1042B00008609049486802F06FFB04464FF09D414A
:1042C00002F038FA8F4908608A49886802F064FB76
:1042D00004464FF09D4102F02DFA8B490860854954
:1042E000C86802F059FB04464FF09D4102F022FAE3
:1042F00086490860834801684FF0804002F0ACFBBB
:10430000069082480168069802F0A6FB82467C4827
:1043100001684FF0804002F09FFB06907A480168E8
:10432000069802F099FB8346514602F093FC0790F1
:1043300002F066F90646FEF79DF980464FF06632B8
:10434000734B01F04DFE044601F0C8FB7149086053
:104350006D4801684FF0804000E0A9E002F07CFB6E
:10436000039069480168039802F076FB824665482D
:1043700001684FF0404002F06FFB03906148016814
:10438000039802F069FB8346514602F063FC8146C4
:104390004FF07E5100E089E002F05EF9044602F041
:1043A0002FF9CDE90401564801684FF0804002F032
:1043B00053FB834653480168584602F04DFB814643
:1043C000514801684FF0804002F046FB83464F4859
:1043D0000168584602F040FB8246494602F03CF92B
:1043E000044602F00DF90746DDE90423FEF78AFBD7
:1043F0004FF06632464BCDE9060101F0F1FD05466E
:1044000001F06CFB4449086040480168006802F014
:1044100023FB03903C480168006802F01DFB0290FA
:1044200038480168006802F017FB83463448016889
:10443000006802F011FB5946019002F00DF9824626
:10444000029902F007FC8146039902F003FC04463E
:1044500002F0D6F8CDE904012C480168284800682C
:1044600002F0FAFA8246284801682648006802F0FD
:10447000F3FA8346514602F0EFF881464FF080414F
:1044800002F0EAFA044602F0BBF80746DDE904232D
:10449000FEF738FB4FF066321D4BCDE9060101F007
:1044A0009FFD054601F01AFB1C4908600020E6E666
:1044B0000C48C07890B106A807AB0D4A0E49009091
:1044C0000E4800F0FDFA08B10120D8E69DF818006A
:1044D00010B900200349C8700020D0E600BF0120B9
:1044E000CDE60000B4010020FE000020FC0000200A
:1044F000EC000020C4010020F6000020F0000020A5
:104500000001002004010020080100200C0100200F
:1045100066A64C4014010020100100201801002064
:1045200070B500F033F905460DB1012070BD78205B
:1045300001F00EF808B10220F8E77820FFF750FEEE
:1045400008B10320F2E7642000F0B4FF08B10420B2
:10455000ECE70E211E48FBF7D2FE03201C49087031
:10456000FEF7A6FD08B10520E0E71A4B1846FFF755
:1045700061FD0446D81CFFF75DFD44EAC00084B22B
:10458000981DFFF757FD44EA801084B200BF26460D
:104590003046FEF7E7FF08B10620C7E740F2731088
:1045A0000B49C880C888FEF72BFC08B10720BDE77F
:1045B0006420FEF707FF08B10820B7E7012000F0EC
:1045C00075FE01200249487001F06AF80020ADE74D
:1045D000B4010020E100002001461148407A30B1CA
:1045E000012807D0022808D003280CD108E00220B7
:1045F00008700BE00420087008E00820087005E04F
:104600001020087002E04FF0FF30704700BF0448F0
:10461000C07C18B108784006000E08700020F4E74E
:10462000B400002001461348407A30B1012808D078
:1046300002280AD0032810D10BE04FF480400880F4
:104640000EE041F69C7008800AE04FF4805008802C
:1046500006E04FF40060088002E04FF0FF30704742
:1046600000BF0448C07C10B10888401008800020BA
:10467000F5E70000B400002001460248007C087005
:1046800000207047B400002001460F48007A30B186
:10469000012807D0022809D003280FD10AE0FA2008
:1046A00008800EE04FF4FA7008800AE04FF47A7048
:1046B000088006E04FF4FA60088002E000200880DD
:1046C00000BF00BF00207047B400002001460E4824
:1046D000007A30B1012807D0022808D003280CD175
:1046E00008E00A4808600BE00948086008E009484B
:1046F000086005E00848086002E04FF0FF307047AE
:1047000000BF0020FBE70000B400002000000343CE
:10471000000083423333034233338341014612485E
:10472000C07A082817D2DFE800F01704070A0D1036
:104730001318BC20088013E06220088010E02A20B3
:1047400008800DE0142008800AE00A20088007E0B5
:104750000520088004E000BF00BF0020088000BFE3
:1047600000BF002070470000B4000020014606484A
:1047700090F8240010B14FF0FF3070470248C08914
:1047800008800020F9E70000B40000201CB580205C
:104790008DF80000634A1268917C624A5268107872
:1047A0006B460122FCF7D1F910B14FF0FF301CBD70
:1047B0006420FEF7BBFA00208DF80000594A126809
:1047C000917C584A526810786B460122FCF7BDF97B
:1047D00010B14FF0FF30EAE7524A1268917D514A1A
:1047E000526810786B460622FCF770F910B14FF052
:1047F000FF30DCE79DF80500C007400F9DF803106F
:1048000001F0010140EA41009DF8011001F00101B1
:1048100040EA010484B1012C03D101214148C17453
:104820002DE0022C03D100213E48C17427E000BFD7
:1048300000BF4FF0FF30BAE73A4A1268D178394AE0
:10484000526810786B460122FCF740F910B14FF026
:10485000FF30ACE79DF8000000F00F0424B900BF62
:1048600000BF4FF0FF30A2E7042C05D100BF00BF0E
:1048700001212C48C17402E000212A48C174FF21A3
:1048800028488172FF2027490872FF21254841727C
:10489000C1724FF6FF71C181FF2101748174012142
:1048A000017380F82210002180F8231041750175F2
:1048B0001630016041608160163880F8241080F85D
:1048C0002510C1844FF4FA6000F038FD10B14FF0AC
:1048D000FF306CE7022000F001FC10B14FF0FF3018
:1048E00065E72A2000F0A4FD10B14FF0FF305EE72D
:1048F000322000F0DFFD10B14FF0FF3057E700200D
:10490000FFF76EFC10B14FF0FF3050E7002000F0D1
:1049100027FC10B14FF0FF3049E7002000F018FEEF
:10492000002044E7B40000202DE9F04385B005469F
:104930000E4690469946294890F8250020B14FF040
:10494000FF3005B0BDE8F08316B94FF0FF30F8E74F
:10495000002423E0281B102801DD102000E0281B84
:1049600087B232193946204600F05AFE10B14FF096
:10497000FF30E6E701AA3946204600F0FDF910B104
:104980004FF0FF30DDE730193A4601A9FBF783FC11
:1049900010B16FF00100D4E7E01984B2AC42D9DB6A
:1049A0004FEA28208DF8000008F0FF008DF8010084
:1049B0000A4A1268917E094A526810786B460222B0
:1049C000FCF7C3F810B14FF0FF30BAE701210348FC
:1049D00080F82510A0F826900020B2E7B40000204F
:1049E00038B50446282C02DD4FF0FF3038BDDCB965
:1049F000002000F0E7FC00208DF8000007208DF873
:104A000001002E4A1268917C2C4A526810786B463D
:104A10000222FCF79AF810B14FF0FF30E6E70021D0
:104A2000264801750020E1E7012000F0CBFC2020A2
:104A30008DF80000012C06D100208DF80100052022
:104A400000F0F6FC17E0052C06DC01208DF80100D3
:104A5000052000F0EDFC0EE0142C06DC02208DF8A1
:104A600001000A2000F0E4FC05E003208DF80100BD
:104A7000142000F0DDFC9DF80100072101EB8010FF
:104A8000C0B28DF801000D4A1268917C0B4A526841
:104A900010786B460222FCF758F810B14FF0FF3047
:104AA000A4E70821054881720021017301210175E5
:104AB0000020FFF795FB002098E70000B4000020DD
:104AC0002DE9FE4F0746884692461D46DDF830B078
:104AD00000260024774890F8240010B1601EBDE83D
:104AE000FE8F002028707348807A10B94FF0FF3095
:104AF000F5E77048007C10B94FF0FF30EFE76D48E4
:104B0000007C00F0400008B1B01CC6B26948007CCF
:104B100000F0200008B1B01CC6B26648007C00F06E
:104B2000100008B1B01CC6B26248007C00F008005A
:104B300008B1B01DC6B25F4A1268917A5D4A5268E8
:104B400010786B460222FBF7C1FF10B14FF0FF3027
:104B5000C5E79DF801009DF8001040EA0129B14524
:104B600001DA0020BBE7534840684088B9EB600F8A
:104B700017DD504A1268517C4E4A526810786B46D5
:104B80000122FBF7A3FF10B14FF0FF30A7E79DF81C
:104B9000000000F0100020B100F02EF96FF00100CD
:104BA0009DE75046FEF76CFF424A1268D17A414AAF
:104BB000526810786B463246FBF788FF10B14FF011
:104BC000FF308CE799FBF6F0401E8BF800000020C8
:104BD0002870B4422AD03748007C00F0080028B37F
:104BE000601C1DF800001DF8041040EA012000B20E
:104BF000A8F80000E01C1DF80010A01C1DF8000023
:104C000041EA002000B2A8F80200601D1DF8001063
:104C1000201D1DF8000041EA002000B2A8F80400A1
:104C2000287840F008002870A01D84B2B44213D048
:104C30002048007C00F0400070B1601C1DF80000AE
:104C40001DF8041040EA012000B23880287840F0B6
:104C500040002870A01C84B2B44213D01548007CD8
:104C600000F0200070B1601C1DF800001DF8041059
:104C700040EA012000B27880287840F020002870B7
:104C8000A01C84B2B44213D00A48007C00F010008B
:104C900070B1601C1DF800001DF8041040EA0120EE
:104CA00000B2B880287840F010002870A01C84B2B0
:104CB000002014E7B4000020F8B504460F4616465D
:104CC0002C4890F8240010B94FF0FF30F8BD294867
:104CD000807A10B94FF0FF30F8E7264A1268917ACF
:104CE000244A526810786B460222FBF7EFFE10B19F
:104CF0004FF0FF30EAE79DF801009DF8001040EA10
:104D00000125A54203DA00203070401EDEE7194875
:104D100040684088B5EB600F17DD164A1268517C79
:104D2000144A526810786B460122FBF7CFFE10B18F
:104D30004FF0FF30CAE79DF8000000F0100020B1EE
:104D400000F05AF86FF00100C0E7E2B2094B1B68AF
:104D5000D97A084B5B6818783B46FBF7B7FE10B171
:104D60004FF0FF30B2E795FBF4F0401E30700020AA
:104D7000ACE70000B4000020F8B504460D46164626
:104D800016B94FF0FF30F8BD1A48807A10B94FF0CD
:104D9000FF30F8E720128DF80000E0B28DF8010036
:104DA0009DF801002844134949684989884202DD79
:104DB0004FF0FF30E7E70F4A1268117E0D4A526844
:104DC00010786B460222FBF7C0FE10B14FF0FF30A7
:104DD000D9E7EAB2074B1B68597D064B5B68187828
:104DE0003346FBF773FE10B14FF0FF30CBE70020E6
:104DF000C9E70000B400002008B57048807A10B9F7
:104E00004FF0FF3008BD002000906C4A1268D17B43
:104E10006A4A526810786B460122FBF796FE10B181
:104E20004FF0FF30EEE7654A12685179634A5268E5
:104E300010786B460122FBF788FE10B14FF0FF306F
:104E4000E0E75E4A126811795C4A526810786B4656
:104E50000122FBF77AFE10B14FF0FF30D2E757483E
:104E600090F82400002853D00C200090534A126878
:104E70001179524A526810786B460122FBF765FEA1
:104E800010B14FF0FF30BDE73220FDF74FFFC020DB
:104E900000904A48807A00F0010020B19DF800009F
:104EA00040F020000090454A12681179434A526848
:104EB00010786B460122FBF748FE10B14FF0FF302F
:104EC000A0E73E48407C10B10220009001E00020A5
:104ED00000903A4A1268D17B384A526810786B4683
:104EE0000122FBF732FE10B14FF0FF308AE70020BD
:104EF0000090324A12685179304A526810786B46F5
:104F00000122FBF722FE002855D04FF0FF3079E751
:104F100004200090294A12681179284A52681078B2
:104F20006B460122FBF711FE10B14FF0FF3069E72D
:104F30002248807C20B92148807A00F0010010B915
:104F40004020009001E0602000901C4A1268117916
:104F50001A4A526810786B460122FBF7F6FD10B131
:104F60004FF0FF304EE73220FDF7E0FE1348407C63
:104F700010B10120009001E0002000900F4A12685B
:104F8000D17B0E4A526810786B460122FBF7DDFD9B
:104F900010B14FF0FF3035E7084A12685179074ADF
:104FA00052681078054B10330122FBF7CEFD10B18B
:104FB0004FF0FF3026E7002024E70000B400002077
:104FC0002DE9F04F8DB083460F4602200C904248E9
:104FD00090F8240020B1002000F068F9012600E0DC
:104FE000002603A8FFF750FB05A8FFF7F5FA01A874
:104FF000FFF794FB02A8FFF7B9FB374890F80AA027
:1050000004A8FFF739FB002407E000223946584680
:10501000FEF74AFD00B902E0641C022CF5DB00BF7C
:10502000022C01D1002528E0002407E0012206A976
:1050300009A8FEF739FD00B902E0641C022CF5DB7B
:1050400000BF022C01D1002517E006A93846FDF764
:105050006DFA00F0FF0809A95846FEF763FF00F05B
:10506000FF090025B9F1000F01D145F00105B8F1A4
:10507000000F01D145F0020500BFFF20164908725C
:10508000FF2115484172C1724FF6FF71C181FF21A6
:105090008172017401210173BDF80C0000F04EF91A
:1050A0009DF8140000F01AF8BDF8040000F0C0F9F3
:1050B000BDF8080000F0FEF9504600F049FA9DF8EE
:1050C0001000FFF78DF816B1012000F0EFF8284628
:1050D0000DB0BDE8F08F0000B400002038B50446E4
:1050E0001E48807A10B94FF0FF3038BD022C06D030
:1050F000042C07D0082C08D0102C0CD108E000207C
:1051000000900BE00820009008E01020009005E0DF
:105110001820009002E04FF0FF30E6E700BF0F4894
:10512000407A9DF80010B0EBE10F01D10020DCE7E0
:105130000A4A1268D179094A526810786B460122EE
:10514000FBF703FD10B14FF0FF30CEE79DF80000F4
:10515000C110024841720020C7E70000B4000020DF
:1051600038B504465048807CA04201D1002038BDAB
:10517000002C46D04C4A126811794B4A526810787C
:105180006B460122FBF7A2FC10B14FF0FF30EEE7B7
:105190009DF8000020F020000090434A1268117929
:1051A000414A526810786B460122FBF7CEFC10B1E1
:1051B0004FF0FF30DBE70320FDF7B8FD0220009041
:1051C000394890F8220020B19DF8000040F080009E
:1051D0000090354890F8230020B19DF8000040F081
:1051E00030000090304A1268117D2F4A52681078C2
:1051F0006B460122FBF7A9FC002851D04FF0FF308D
:10520000B5E7294A12681179274A526810786B4627
:105210000122FBF75BFC10B14FF0FF30A7E72248FB
:10522000807A00F0010028B19DF8000040F02000D5
:10523000009004E09DF8000020F0200000901A4A41
:1052400012681179184A526810786B460122FBF7F0
:105250007CFC10B14FF0FF3089E70320FDF766FDBD
:10526000114890F8220010B18020009001E0002049
:1052700000900D4890F8230020B19DF8000040F008
:1052800030000090084A1268117D074A5268107871
:105290006B460122FBF759FC10B14FF0FF3066E777
:1052A00001488474002062E7B400002038B5044649
:1052B000214890F82400A04201D1002038BD24B339
:1052C0001D4890F8250010B94FF0FF30F6E7002098
:1052D00000F02EFA0020FFF743FF1749C88C00F0BA
:1052E000E9F8002000901449496808786B460122CB
:1052F0002321FBF72AFC01210F4880F8241001200C
:1053000000F016FAFFF778FD13E0002000F010FA25
:105310000948007C00900849496808786B460122DA
:105320002321FBF712FC0021034880F82410FFF72B
:1053300063FD0020C2E70000B400002038B5044639
:105340001F48807A10B94FF0FF3038BDFA2C09D0D1
:10535000B4F5FA7F09D0B4F57A7F09D0B4F5FA6FC5
:105360000CD108E0002000900BE00820009008E03D
:105370001020009005E01820009002E04FF0FF3070
:10538000E3E700BF0E48007A9DF80010B0EBE10F94
:1053900001D10020D9E70A4A12689179084A526877
:1053A00010786B460122FBF7D0FB10B14FF0FF30B5
:1053B000CBE79DF80000C010014908720020C4E747
:1053C000B400002038B50446184890F82300A042E5
:1053D00001D1002038BD14B13020009001E0002040
:1053E00000901248807C20B19DF8000040F002003F
:1053F00000900E4890F8220020B19DF8000040F087
:1054000080000090094A1268117D084A526810789D
:105410006B460122FBF799FB10B14FF0FF30D9E743
:10542000024880F823400020D4E70000B4000020A8
:1054300038B504461E48807A10B94FF0FF3038BDA9
:10544000BC2C02DB0120009015E0622C02DB022064
:10545000009010E02A2C02DB032000900BE0142CBB
:1054600002DB0420009006E00A2C02DB05200090FD
:1054700001E0062000900E48C07A9DF80010884296
:1054800001D10020DBE70A4A12689178084A526885
:1054900010786B460122FBF758FB10B14FF0FF303C
:1054A000CDE79DF800100248C1720020C7E7000058
:1054B000B400002038B504462448807A10B94FF073
:1054C000FF3038BD214890F8240010B14FF0FF3074
:1054D000F7E71E48007D50B134B1282C04DCE0B25F
:1054E000FFF77EFA0020ECE70020FFF779FA042CA2
:1054F00001DA042404E0B4F57A7F01DD4FF47A7414
:105500004FF47A7090FBF4F0401EC0B200900F4A46
:10551000126851780D4A526810786B460122FBF7E9
:1055200014FB10B14FF0FF30CBE79DF80000401C9A
:105530004FF47A7191FBF0F081B20448C1810146C9
:10554000C9894810FFF774FF0020BAE7B4000020B3
:1055500038B5044604F0700010B10120009005E059
:1055600014B10020009001E0402000902B4A126806
:10557000917C2A4A526810786B460122FBF7E5FAC3
:1055800020B1002125488172481E38BD9DF80000D9
:1055900020F04001214801730020009004F04000F9
:1055A00020B99DF8000040F00400009004F02000B5
:1055B00020B99DF8000040F00200009004F01000B7
:1055C00020B99DF8000040F00100009004F00800B0
:1055D00020B99DF8000040F0380000900F4A126892
:1055E000D17C0E4A526810786B460122FBF7ADFA67
:1055F00020B1002109488172481EC6E724B1082C59
:1056000002D00020FFF7DEFE0448847200210175FD
:105610003220FDF78BFB0020B7E70000B40000202C
:10562000F8B504460D46164616B94FF0FF30F8BDE2
:105630001A48807A10B94FF0FF30F8E720128DF841
:105640000000E0B28DF801009DF8010028441349E4
:1056500049684989884202DD4FF0FF30E7E70F4A89
:105660001268117E0D4A526810786B460222FBF7D1
:105670006CFA10B14FF0FF30D9E7EAB2074B1B6864
:10568000597D064B5B6818783346FBF75EFA10B11C
:105690004FF0FF30CBE70020C9E70000B400002046
:1056A00070B588B002A905A8FFF78AFC0446032C50
:1056B0003CD101A8FFF70AF8059801F06DF90646FC
:1056C000019901F0C9F9054601F02AF905900698FB
:1056D00001F062F90646019901F0BEF9054601F0B4
:1056E0001FF90690079801F057F90646019901F055
:1056F000B3F9054601F014F9079005A8FDF79AFEE5
:105700006846FEF78FFFBDF80010029848430290EC
:10571000BDF80010039848430390BDF800100498AA
:105720004843049002A8FDF7B5FD00BF08B070BD66
:1057300038B50446214890F82400C0B114B10220C5
:10574000009001E0002000901C4A1268D17B1B4AA7
:10575000526810786B460122FBF7F7F910B14FF051
:10576000FF3038BD9DF800101448417423E0134801
:10577000807A10B94FF0FF30F3E724B10F48407C36
:1057800008B10020EDE714B10120009001E00020F5
:1057900000900A4A1268D17B084A526810786B461A
:1057A0000122FBF7D2F910B14FF0FF30D9E79DF895
:1057B0000010024841740020D3E70000B40000202C
:1057C00010B5002017490860052217492A2000F06B
:1057D000DDF80121212000F0F5F80121222000F060
:1057E000F1F80221252000F0EDF82721262000F015
:1057F000E9F81421312000F0E5F806213D2000F001
:10580000E1F801213C2000F0DDF8FF21272000F025
:10581000D9F80F21202000F0D5F801200349C1F864
:105820008C0110BD8C012142336E00080000214222
:105830002DE9F04105460F46072000F055F80446D3
:105840002146272000F0BEF804F04000F8B16020A7
:1058500000F04AF80646FF21E12000F0B3F80A22E2
:105860003946A82000F092F8202E04DDFF21E22026
:1058700000F0A8F808E032462946612000F018F848
:10588000FF21E22000F09EF86020BDE8F08104F0E6
:10589000400050B114222946612000F009F8FF2190
:1058A000E22000F08FF84020EFE70F20EDE7000046
:1058B0002DE9F04107460D461646002009490860CB
:1058C0003846FBF773FF002405E0FF20FBF76EFF6F
:1058D0002855601CC4B2B442F7DB012001490860BE
:1058E000BDE8F0819001214270B5044600200749CF
:1058F00008602046FBF75AFFFF20FBF757FF0546DD
:1059000001200349C1F89001284670BD9001214251
:105910000000214208B501211420FBF785FE082074
:10592000ADF8000010208DF8030003208DF8020070
:1059300069461448FBF730F81020ADF800008DF8E8
:10594000030003208DF8020069460E48FBF724F897
:105950001020ADF8000048208DF8030069460A4881
:10596000FBF71AF810210748FBF7ACF808210548A7
:10597000FBF7A6F810210448FBF7A4F8FBF7DEFEBE
:1059800008BD000000080140001001402DE9F04171
:1059900007460D4616460020094908603846FBF7C1
:1059A00005FF002404E0285DFBF700FF601CC4B283
:1059B000B442F8DB012002490860BDE8F081000034
:1059C0009001214270B505460C460020064908604A
:1059D0002846FBF7EBFE2046FBF7E8FE01200349D3
:1059E000C1F8900170BD00009001214200002142E9
:1059F0002DE9F04106460F4600F032FC041E0D462C
:105A000018BF0120284320F00040C0F17F6000F162
:105A1000E040C00F0ED0301C18BF0120384320F0EA
:105A20000040C0F17F6000F1E040C00F04BF0120E2
:105A3000FAF707FD20462946BDE8F08110B586B08B
:105A40000446012144F20400FBF7EEFD4FF4007020
:105A5000ADF8140003208DF8160018208DF81700FB
:105A600005A91C48FAF798FF4FF48060ADF81400C0
:105A700004208DF8170005A91648FAF78DFF252098
:105A80008DF8000003208DF801008DF80200012040
:105A90008DF803006846FBF7FDFB01940020ADF88C
:105AA0000800ADF80A00ADF80C00ADF810000C20AD
:105AB000ADF80E0001A90848FCF710FC012240F2E5
:105AC00025510548FCF7E4FB01210348FCF7AAFB3C
:105AD00006B010BD000801400038014021F000422E
